{
  "abi": [
    {
      "inputs": [
        {
          "internalType": "address",
          "name": "trustedForwarder",
          "type": "address"
        }
      ],
      "stateMutability": "nonpayable",
      "type": "constructor"
    },
    {
      "anonymous": false,
      "inputs": [
        {
          "indexed": true,
          "internalType": "bytes32",
          "name": "path",
          "type": "bytes32"
        },
        {
          "indexed": true,
          "internalType": "address",
          "name": "tokenAddress",
          "type": "address"
        },
        {
          "indexed": false,
          "internalType": "uint256",
          "name": "amount",
          "type": "uint256"
        }
      ],
      "name": "BountyUpdated",
      "type": "event"
    },
    {
      "anonymous": false,
      "inputs": [
        {
          "indexed": true,
          "internalType": "bytes32",
          "name": "path",
          "type": "bytes32"
        },
        {
          "indexed": true,
          "internalType": "address",
          "name": "owner",
          "type": "address"
        },
        {
          "indexed": true,
          "internalType": "enum NodeType",
          "name": "nodeType",
          "type": "uint8"
        },
        {
          "indexed": false,
          "internalType": "bytes32",
          "name": "parent",
          "type": "bytes32"
        }
      ],
      "name": "NodeUpdated",
      "type": "event"
    },
    {
      "anonymous": false,
      "inputs": [
        {
          "indexed": true,
          "internalType": "address",
          "name": "previousOwner",
          "type": "address"
        },
        {
          "indexed": true,
          "internalType": "address",
          "name": "newOwner",
          "type": "address"
        }
      ],
      "name": "OwnershipTransferred",
      "type": "event"
    },
    {
      "inputs": [
        {
          "internalType": "bytes32",
          "name": "_parent",
          "type": "bytes32"
        },
        {
          "internalType": "bytes",
          "name": "_data",
          "type": "bytes"
        }
      ],
      "name": "addShare",
      "outputs": [
        {
          "internalType": "bytes32",
          "name": "",
          "type": "bytes32"
        }
      ],
      "stateMutability": "nonpayable",
      "type": "function"
    },
    {
      "inputs": [
        {
          "internalType": "bytes32",
          "name": "_parent",
          "type": "bytes32"
        },
        {
          "internalType": "bytes",
          "name": "_data",
          "type": "bytes"
        }
      ],
      "name": "addSolution",
      "outputs": [
        {
          "internalType": "bytes32",
          "name": "",
          "type": "bytes32"
        }
      ],
      "stateMutability": "nonpayable",
      "type": "function"
    },
    {
      "inputs": [
        {
          "internalType": "bytes",
          "name": "_data",
          "type": "bytes"
        },
        {
          "internalType": "address",
          "name": "_tokenAddress",
          "type": "address"
        },
        {
          "internalType": "uint256",
          "name": "_amount",
          "type": "uint256"
        }
      ],
      "name": "addTask",
      "outputs": [
        {
          "internalType": "bytes32",
          "name": "",
          "type": "bytes32"
        }
      ],
      "stateMutability": "payable",
      "type": "function"
    },
    {
      "inputs": [],
      "name": "getAllTasks",
      "outputs": [
        {
          "internalType": "bytes32[]",
          "name": "",
          "type": "bytes32[]"
        }
      ],
      "stateMutability": "view",
      "type": "function"
    },
    {
      "inputs": [
        {
          "internalType": "bytes32",
          "name": "_path",
          "type": "bytes32"
        }
      ],
      "name": "getBountiesForTask",
      "outputs": [
        {
          "components": [
            {
              "internalType": "address",
              "name": "tokenAddress",
              "type": "address"
            },
            {
              "internalType": "uint256",
              "name": "amount",
              "type": "uint256"
            }
          ],
          "internalType": "struct Bounty[]",
          "name": "",
          "type": "tuple[]"
        }
      ],
      "stateMutability": "view",
      "type": "function"
    },
    {
      "inputs": [
        {
          "internalType": "bytes32",
          "name": "_path",
          "type": "bytes32"
        }
      ],
      "name": "getNode",
      "outputs": [
        {
          "internalType": "bytes32",
          "name": "",
          "type": "bytes32"
        },
        {
          "internalType": "address",
          "name": "",
          "type": "address"
        },
        {
          "internalType": "enum NodeType",
          "name": "",
          "type": "uint8"
        },
        {
          "internalType": "bytes",
          "name": "",
          "type": "bytes"
        },
        {
          "internalType": "bytes32[]",
          "name": "",
          "type": "bytes32[]"
        },
        {
          "internalType": "bool",
          "name": "",
          "type": "bool"
        },
        {
          "internalType": "bytes32",
          "name": "",
          "type": "bytes32"
        }
      ],
      "stateMutability": "view",
      "type": "function"
    },
    {
      "inputs": [
        {
          "internalType": "bytes32",
          "name": "_path",
          "type": "bytes32"
        }
      ],
      "name": "getTask",
      "outputs": [
        {
          "internalType": "address",
          "name": "",
          "type": "address"
        },
        {
          "internalType": "bytes",
          "name": "",
          "type": "bytes"
        },
        {
          "internalType": "bool",
          "name": "",
          "type": "bool"
        },
        {
          "internalType": "bytes32[]",
          "name": "",
          "type": "bytes32[]"
        }
      ],
      "stateMutability": "view",
      "type": "function"
    },
    {
      "inputs": [
        {
          "internalType": "bytes32",
          "name": "_taskPath",
          "type": "bytes32"
        },
        {
          "internalType": "address",
          "name": "_tokenAddress",
          "type": "address"
        },
        {
          "internalType": "uint256",
          "name": "_amount",
          "type": "uint256"
        }
      ],
      "name": "increaseBounty",
      "outputs": [],
      "stateMutability": "payable",
      "type": "function"
    },
    {
      "inputs": [
        {
          "internalType": "address",
          "name": "forwarder",
          "type": "address"
        }
      ],
      "name": "isTrustedForwarder",
      "outputs": [
        {
          "internalType": "bool",
          "name": "",
          "type": "bool"
        }
      ],
      "stateMutability": "view",
      "type": "function"
    },
    {
      "inputs": [],
      "name": "nodesCount",
      "outputs": [
        {
          "internalType": "uint256",
          "name": "",
          "type": "uint256"
        }
      ],
      "stateMutability": "view",
      "type": "function"
    },
    {
      "inputs": [],
      "name": "owner",
      "outputs": [
        {
          "internalType": "address",
          "name": "",
          "type": "address"
        }
      ],
      "stateMutability": "view",
      "type": "function"
    },
    {
      "inputs": [
        {
          "internalType": "bytes32",
          "name": "taskPath",
          "type": "bytes32"
        },
        {
          "internalType": "address[]",
          "name": "addresses",
          "type": "address[]"
        },
        {
          "internalType": "address[]",
          "name": "tokenAddresses",
          "type": "address[]"
        },
        {
          "internalType": "uint256[]",
          "name": "amounts",
          "type": "uint256[]"
        }
      ],
      "name": "payoutTask",
      "outputs": [],
      "stateMutability": "nonpayable",
      "type": "function"
    },
    {
      "inputs": [],
      "name": "renounceOwnership",
      "outputs": [],
      "stateMutability": "nonpayable",
      "type": "function"
    },
    {
      "inputs": [],
      "name": "rootTaskPath",
      "outputs": [
        {
          "internalType": "bytes32",
          "name": "",
          "type": "bytes32"
        }
      ],
      "stateMutability": "view",
      "type": "function"
    },
    {
      "inputs": [
        {
          "internalType": "address",
          "name": "trustedForwarder",
          "type": "address"
        }
      ],
      "name": "setTrustedForwarder",
      "outputs": [],
      "stateMutability": "nonpayable",
      "type": "function"
    },
    {
      "inputs": [
        {
          "internalType": "address",
          "name": "newOwner",
          "type": "address"
        }
      ],
      "name": "transferOwnership",
      "outputs": [],
      "stateMutability": "nonpayable",
      "type": "function"
    },
    {
      "inputs": [
        {
          "internalType": "bytes32[]",
          "name": "_paths",
          "type": "bytes32[]"
        },
        {
          "internalType": "bool[]",
          "name": "_isOpens",
          "type": "bool[]"
        }
      ],
      "name": "updateNodesIsOpen",
      "outputs": [
        {
          "internalType": "uint256",
          "name": "",
          "type": "uint256"
        }
      ],
      "stateMutability": "nonpayable",
      "type": "function"
    },
    {
      "inputs": [
        {
          "internalType": "bytes32",
          "name": "_path",
          "type": "bytes32"
        },
        {
          "internalType": "bytes",
          "name": "_data",
          "type": "bytes"
        }
      ],
      "name": "updateTaskData",
      "outputs": [],
      "stateMutability": "nonpayable",
      "type": "function"
    },
    {
      "stateMutability": "payable",
      "type": "receive"
    }
  ],
  "bytecode": {
    "object": "0x60a06040526000600355348015620000635760405162461bcd60e51b815260206004820152602260248201527f45746865722073656e7420746f206e6f6e2d70617961626c652066756e637469604482019081526137b760f11b6064830152608482fd5b5060405162003514380380620035148339810160408190526200008691620004f8565b6001600160a01b038116608052620000a7620000a1620000e8565b62000104565b620000de600060405180604001604052806008815260200167526f6f745461736b60c01b815250336000806200015460201b60201c565b60045550620005ee565b6000620000ff6200037d60201b62001acf1760201c565b905090565b600080546001600160a01b038381166001600160a01b0319831681178455604051919092169283917f8be0079c531659141344cd1fd0a4f28419497f9722a3daafe3b4186f6b6457e09190a35050565b6000808551116200016457600080fd5b600062000170620003b5565b90506000878260405160200162000191929190918252602082015260400190565b60408051601f198184030181528282528051602091820120610100840183526001600160a01b038a1684528184018b9052825160008152918201835291830152915060608101866002811115620001ec57620001ec62000575565b8152600160208083018290526040808401869052606084018d90526080909301889052600085815282825292909220835181546001600160a01b0319166001600160a01b039091161781558383015180519193620002509385019291019062000415565b50604082015180516200026e916002840191602090910190620004a4565b50606082015160038201805460ff1916600183600281111562000295576200029562000575565b02179055506080820151600380830180549215156101000261ff00199093169290921790915560a0830151600483015560c0830151600583015560e090920151600690910155600089815260016020818152604083206002018054808401825590845290832001849055825490929190620003129084906200058b565b9091555085905060028111156200032d576200032d62000575565b866001600160a01b0316827fcd4204a6cfd0ad4e00073973d9db47cc8ee30485ec5f0fe3c9b23538f2c7d2488b6040516200036a91815260200190565b60405180910390a4979650505050505050565b6080516000906001600160a01b03163303620003a0575060131936013560601c90565b620000ff6200041160201b62001b181760201c565b60006003546001620003c891906200058b565b620003d2620000e8565b604051602001620003f69291909182526001600160a01b0316602082015260400190565b60405160208183030381529060405280519060200120905090565b3390565b8280546200042390620005b2565b90600052602060002090601f01602090048101928262000447576000855562000492565b82601f106200046257805160ff191683800117855562000492565b8280016001018555821562000492579182015b828111156200049257825182559160200191906001019062000475565b50620004a0929150620004e1565b5090565b8280548282559060005260206000209081019282156200049257916020028201828111156200049257825182559160200191906001019062000475565b5b80821115620004a05760008155600101620004e2565b600060208284031215620005565760405162461bcd60e51b815260206004820152602260248201527f414249206465636f64696e673a207475706c65206461746120746f6f2073686f6044820152611c9d60f21b6064820152608481fd5b81516001600160a01b03811681146200056e57600080fd5b9392505050565b634e487b7160e01b600052602160045260246000fd5b60008219821115620005ad57634e487b7160e01b600052601160045260246000fd5b500190565b600181811c90821680620005c757607f821691505b602082108103620005e857634e487b7160e01b600052602260045260246000fd5b50919050565b608051612f0362000611600039600081816103b80152611ad30152612f036000f3fe60806040526004361061010d5760003560e01c80638da5cb5b11610095578063ee5e9d9e11610064578063ee5e9d9e1461066a578063f1a3c5b3146106c5578063f2fde38b14610716578063fe40865814610771578063fe949a11146107cc57610141565b80638da5cb5b146104f6578063d03388db14610559578063da742228146105b4578063e985ccd71461060f57610141565b80635357d429116100dc5780635357d4291461033f578063572b6c0514610360578063715018a6146103f8578063779900b4146104485780638973df07146104a557610141565b806315a290351461019a5780633047c26d1461020e5780634498c6cf1461026957806350c946fe146102d157610141565b366101415761013f6040518060400160405280600c81526020016b0a48a868a92ac8a88408aa8960a31b8152506107df565b005b60405162461bcd60e51b815260206004820152602960248201527f556e6b6e6f776e207369676e617475726520616e64206e6f2066616c6c62616360448201908152681ac81919599a5b995960ba1b6064830152608482fd5b3480156101e15760405162461bcd60e51b81526020600482015260226024820152600080516020612eae833981519152604482019081526137b760f11b6064830152608482fd5b506101f56101f0366004612569565b610825565b6040516102059493929190612618565b60405180910390f35b3480156102555760405162461bcd60e51b81526020600482015260226024820152600080516020612eae833981519152604482019081526137b760f11b6064830152608482fd5b5061013f610264366004612807565b6109b1565b3480156102b05760405162461bcd60e51b81526020600482015260226024820152600080516020612eae833981519152604482019081526137b760f11b6064830152608482fd5b506102c46102bf366004612569565b610f73565b60405161020591906128ff565b3480156103185760405162461bcd60e51b81526020600482015260226024820152600080516020612eae833981519152604482019081526137b760f11b6064830152608482fd5b5061032c610327366004612569565b61103c565b604051610205979695949392919061296d565b61035261034d366004612aa3565b611191565b604051908152602001610205565b3480156103a75760405162461bcd60e51b81526020600482015260226024820152600080516020612eae833981519152604482019081526137b760f11b6064830152608482fd5b506103e86103b6366004612b00565b7f00000000000000000000000000000000000000000000000000000000000000006001600160a01b0390811691161490565b6040519015158152602001610205565b34801561043f5760405162461bcd60e51b81526020600482015260226024820152600080516020612eae833981519152604482019081526137b760f11b6064830152608482fd5b5061013f611294565b34801561048f5760405162461bcd60e51b81526020600482015260226024820152600080516020612eae833981519152604482019081526137b760f11b6064830152608482fd5b506104986112e9565b6040516102059190612b1e565b3480156104ec5760405162461bcd60e51b81526020600482015260226024820152600080516020612eae833981519152604482019081526137b760f11b6064830152608482fd5b5061035260045481565b34801561053d5760405162461bcd60e51b81526020600482015260226024820152600080516020612eae833981519152604482019081526137b760f11b6064830152608482fd5b506000546040516001600160a01b039091168152602001610205565b3480156105a05760405162461bcd60e51b81526020600482015260226024820152600080516020612eae833981519152604482019081526137b760f11b6064830152608482fd5b506103526105af366004612ba9565b61134f565b3480156105fb5760405162461bcd60e51b81526020600482015260226024820152600080516020612eae833981519152604482019081526137b760f11b6064830152608482fd5b5061013f61060a366004612b00565b6115ca565b3480156106565760405162461bcd60e51b81526020600482015260226024820152600080516020612eae833981519152604482019081526137b760f11b6064830152608482fd5b50610352610665366004612c71565b611635565b3480156106b15760405162461bcd60e51b81526020600482015260226024820152600080516020612eae833981519152604482019081526137b760f11b6064830152608482fd5b506103526106c0366004612c71565b61169f565b34801561070c5760405162461bcd60e51b81526020600482015260226024820152600080516020612eae833981519152604482019081526137b760f11b6064830152608482fd5b5061035260035481565b34801561075d5760405162461bcd60e51b81526020600482015260226024820152600080516020612eae833981519152604482019081526137b760f11b6064830152608482fd5b5061013f61076c366004612b00565b6116fa565b3480156107b85760405162461bcd60e51b81526020600482015260226024820152600080516020612eae833981519152604482019081526137b760f11b6064830152608482fd5b5061013f6107c7366004612c71565b6117b1565b61013f6107da366004612cb4565b61191a565b610822816040516024016107f39190612cdc565b60408051601f198184030181529190526020810180516001600160e01b031663104c13eb60e21b179052611b1c565b50565b600081815260016020526060818184610842565b60405180910390fd5b856000808281526001602052604090206003015460ff16600281111561086a5761086a612957565b146108875760405162461bcd60e51b815260040161083990612cef565b600087815260016020819052604090912080546003820154928201805492936001600160a01b03909216929091610100900460ff1690600285019083906108cd90612d1c565b80601f01602080910402602001604051908101604052809291908181526020018280546108f990612d1c565b80156109465780601f1061091b57610100808354040283529160200191610946565b820191906000526020600020905b81548152906001019060200180831161092957829003601f168201915b505050505092508080548060200260200160405190810160405280929190818152602001828054801561099857602002820191906000526020600020905b815481526020019060010190808311610984575b5050505050905096509650965096505050509193509193565b60008490526001602052836109c4611b3d565b6000828152600160205260409020546001600160a01b03908116911614610a2d5760405162461bcd60e51b815260206004820152601d60248201527f4f6e6c79206e6f6465206f776e65722063616e2065646974206e6f64650000006044820152606401610839565b846000808281526001602052604090206003015460ff166002811115610a5557610a55612957565b14610a725760405162461bcd60e51b815260040161083990612cef565b6000855111610abb5760405162461bcd60e51b8152602060048201526015602482015274139bc81859191c995cdcd95cc81c1c9bdd9a591959605a1b6044820152606401610839565b8251855114610b215760405162461bcd60e51b815260206004820152602c60248201527f4d7573742062652073616d65206e756d626572206f662061646472657373657360448201526b20616e6420616d6f756e747360a01b6064820152608401610839565b6000805b8651811015610f69576000858281518110610b4257610b42612d56565b602002602001015111610b5457600080fd5b858181518110610b6657610b66612d56565b6020026020010151915060005b600089815260026020526040902054811015610f5657600089815260026020526040902080546001600160a01b038516919083908110610bb557610bb5612d56565b60009182526020909120600290910201546001600160a01b031603610f4457858281518110610be657610be6612d56565b6020026020010151600260008b81526020019081526020016000208281548110610c1257610c12612d56565b9060005260206000209060020201600101541015610c2f57600080fd5b858281518110610c4157610c41612d56565b6020026020010151600260008b81526020019081526020016000208281548110610c6d57610c6d612d56565b90600052602060002090600202016001016000828254610c8d9190612d82565b90915550506001600160a01b038316610d8457858281518110610cb257610cb2612d56565b6020026020010151471015610d135760405162461bcd60e51b815260206004820152602160248201527f436f6e7472616374206d757374206861766520656e6f7567682062616c616e636044820152606560f81b6064820152608401610839565b878281518110610d2557610d25612d56565b60200260200101516001600160a01b03166108fc878481518110610d4b57610d4b612d56565b60200260200101519081150290604051600060405180830381858888f19350505050158015610d7e573d6000803e3d6000fd5b50610f44565b6000839050868381518110610d9b57610d9b612d56565b60209081029190910101516040516370a0823160e01b81523060048201526001600160a01b038316906370a082319060240160206040518083038186803b158015610e355760405162461bcd60e51b815260206004820152602560248201527f54617267657420636f6e747261637420646f6573206e6f7420636f6e7461696e604482019081526420636f646560d81b6064830152608482fd5b505afa158015610e49573d6000803e3d6000fd5b505050506040513d601f19601f82011682018060405250810190610e6d9190612d99565b1015610ebb5760405162461bcd60e51b815260206004820181905260248201527f436f6e7472616374206d757374206861766520656e6f75676820746f6b656e736044820152606401610839565b610ef230888581518110610ed157610ed1612d56565b6020026020010151836001600160a01b0316611b479092919063ffffffff16565b610f42898481518110610f0757610f07612d56565b6020026020010151888581518110610f2157610f21612d56565b6020026020010151836001600160a01b0316611c919092919063ffffffff16565b505b80610f4e81612db5565b915050610b73565b5080610f6181612db5565b915050610b25565b5050505050505050565b600081815260016020526040812060030154606091839182919060ff166002811115610fa157610fa1612957565b14610fbe5760405162461bcd60e51b815260040161083990612cef565b600084815260026020908152604080832080548251818502810185019093528083529193909284015b8282101561102f576000848152602090819020604080518082019091526002850290910180546001600160a01b03168252600190810154828401529083529092019101610fe7565b5050505092505050919050565b6000818152600160208190526040822060058101548154600383015460068401549484018054879687966060968796899687968e96949593946001600160a01b039093169360ff8084169492936002890193610100909104909116919084906110a490612d1c565b80601f01602080910402602001604051908101604052809291908181526020018280546110d090612d1c565b801561111d5780601f106110f25761010080835404028352916020019161111d565b820191906000526020600020905b81548152906001019060200180831161110057829003601f168201915b505050505093508280548060200260200160405190810160405280929190818152602001828054801561116f57602002820191906000526020600020905b81548152602001906001019080831161115b575b5050505050925098509850985098509850985098505050919395979092949650565b6000806001600160a01b0384166111c957600034116111c25760405162461bcd60e51b815260040161083990612dce565b50346111d6565b6111d38484611cc6565b50815b60006111ef600454876111e7611b3d565b600080611eaf565b6000818152600260208181526040808420815180830183526001600160a01b038c811682528185018a81528354600180820186559489529786902092519790960290910180546001600160a01b03191696909116959095178555925193909201929092558051808201909152601081526f5461736b43726561746f72536861726560801b91810191909152909150611288908290611635565b509150505b9392505050565b61129c611b3d565b6001600160a01b03166112b76000546001600160a01b031690565b6001600160a01b0316146112dd5760405162461bcd60e51b815260040161083990612e24565b6112e760006120c4565b565b60045460009081526001602090815260409182902060020180548351818402810184019094528084526060939283018282801561134557602002820191906000526020600020905b815481526020019060010190808311611331575b5050505050905090565b600081518351146113b95760405162461bcd60e51b815260206004820152602e60248201527f4e756d626572206f66206e6f646520706174687320616e642069734f70656e7360448201526d081b5d5cdd08189948195c5d585b60921b6064820152608401610839565b6000805b84518110156115c257600080600160008885815181106113df576113df612d56565b60209081029190910181015182528101919091526040016000206003015460ff16600281111561141157611411612957565b03611457576001600087848151811061142c5761142c612d56565b6020908102919091018101518252810191909152604001600020546001600160a01b031690506114b3565b600160006001600089868151811061147157611471612d56565b6020026020010151815260200190815260200160002060060154815260200190815260200160002060000160009054906101000a90046001600160a01b031690505b60006114bd611b3d565b6001600160a01b0316826001600160a01b031614801561153657508583815181106114ea576114ea612d56565b602002602001015115156001600089868151811061150a5761150a612d56565b6020026020010151815260200190815260200160002060030160019054906101000a900460ff16151514155b905080156115ad5785838151811061155057611550612d56565b60200260200101516001600089868151811061156e5761156e612d56565b6020026020010151815260200190815260200160002060030160016101000a81548160ff02191690831515021790555083806115a990612db5565b9450505b505080806115ba90612db5565b9150506113bd565b509392505050565b6115d2611b3d565b6001600160a01b03166115ed6000546001600160a01b031690565b6001600160a01b0316146116135760405162461bcd60e51b815260040161083990612e24565b600580546001600160a01b0319166001600160a01b0392909216919091179055565b60008281526001602052604081206003015483908290819060ff16600281111561166157611661612957565b0361166d575083611681565b506000848152600160205260409020600601545b611696858561168e611b3d565b600285611eaf565b95945050505050565b600082815260016020526040812060030154839060029060ff16818111156116c9576116c9612957565b146116d357600080fd5b60008481526001602052604090206006015461169685856116f2611b3d565b600185611eaf565b611702611b3d565b6001600160a01b031661171d6000546001600160a01b031690565b6001600160a01b0316146117435760405162461bcd60e51b815260040161083990612e24565b6001600160a01b0381166117a85760405162461bcd60e51b815260206004820152602660248201527f4f776e61626c653a206e6577206f776e657220697320746865207a65726f206160448201526564647265737360d01b6064820152608401610839565b610822816120c4565b60008290526001602052816117c4611b3d565b6000828152600160205260409020546001600160a01b0390811691161461182d5760405162461bcd60e51b815260206004820152601d60248201527f4f6e6c79206e6f6465206f776e65722063616e2065646974206e6f64650000006044820152606401610839565b826000808281526001602052604090206003015460ff16600281111561185557611855612957565b146118725760405162461bcd60e51b815260040161083990612cef565b60008481526001602081815260409092208551611897939190920191908601906123f6565b5060008481526001602052604090206003015460ff1660028111156118be576118be612957565b600085815260016020908152604091829020805460059091015492519283526001600160a01b03169187917fcd4204a6cfd0ad4e00073973d9db47cc8ee30485ec5f0fe3c9b23538f2c7d248910160405180910390a450505050565b6000838152600160205260408120600301548491829160ff16600281111561194457611944612957565b146119615760405162461bcd60e51b815260040161083990612cef565b60006001600160a01b03851661199857600034116119915760405162461bcd60e51b815260040161083990612dce565b50346119a5565b6119a28585611cc6565b50825b60005b600087815260026020526040902054811015611a6b57600087815260026020526040902080546001600160a01b0388169190839081106119ea576119ea612d56565b60009182526020909120600290910201546001600160a01b031603611a59576000878152600260205260409020805483919083908110611a2c57611a2c612d56565b90600052602060002090600202016001016000828254611a4c9190612e59565b90915550611ac892505050565b80611a6381612db5565b9150506119a8565b50600086815260026020818152604080842081518083019092526001600160a01b038a81168352828401968752815460018082018455928752939095209151929093020180546001600160a01b0319169190931617825591519101555b5050505050565b60007f00000000000000000000000000000000000000000000000000000000000000006001600160a01b03163303611b0e575060131936013560601c90565b503390565b905090565b3390565b80516a636f6e736f6c652e6c6f67602083016000808483855afa5050505050565b6000611b13611acf565b604051636eb1769f60e11b81523060048201526001600160a01b038381166024830152600091839186169063dd62ed3e9060440160206040518083038186803b158015611be35760405162461bcd60e51b815260206004820152602560248201527f54617267657420636f6e747261637420646f6573206e6f7420636f6e7461696e604482019081526420636f646560d81b6064830152608482fd5b505afa158015611bf7573d6000803e3d6000fd5b505050506040513d601f19601f82011682018060405250810190611c1b9190612d99565b611c259190612e59565b6040516001600160a01b038516602482015260448101829052909150611c8b90859063095ea7b360e01b906064015b60408051601f198184030181529190526020810180516001600160e01b03166001600160e01b031990931692909217909152612114565b50505050565b6040516001600160a01b038316602482015260448101829052611cc190849063a9059cbb60e01b90606401611c54565b505050565b6000826001600160a01b03163b11611d315760405162461bcd60e51b815260206004820152602860248201527f5f746f6b656e41646472657373206d757374206265206120636f6e7472616374604482015267206164647265737360c01b6064820152608401610839565b60008111611da75760405162461bcd60e51b815260206004820152603860248201527f455243323020746f6b656e206d7573742068617665205f616d6f756e7420746f60448201527f20637265617465207461736b207769746820626f756e747900000000000000006064820152608401610839565b81816001600160a01b0382166370a08231611dc0611b3d565b6040516001600160e01b031960e084901b1681526001600160a01b03909116600482015260240160206040518083038186803b158015611e4f5760405162461bcd60e51b815260206004820152602560248201527f54617267657420636f6e747261637420646f6573206e6f7420636f6e7461696e604482019081526420636f646560d81b6064830152608482fd5b505afa158015611e63573d6000803e3d6000fd5b505050506040513d601f19601f82011682018060405250810190611e879190612d99565b1015611e9257600080fd5b611cc1611e9d611b3d565b6001600160a01b0383169030856121e6565b600080855111611ebe57600080fd5b6000611ec861221e565b905060008782604051602001611ee8929190918252602082015260400190565b60408051601f198184030181528282528051602091820120610100840183526001600160a01b038a1684528184018b9052825160008152918201835291830152915060608101866002811115611f4057611f40612957565b8152600160208083018290526040808401869052606084018d90526080909301889052600085815282825292909220835181546001600160a01b0319166001600160a01b039091161781558383015180519193611fa2938501929101906123f6565b5060408201518051611fbe91600284019160209091019061247a565b50606082015160038201805460ff19166001836002811115611fe257611fe2612957565b02179055506080820151600380830180549215156101000261ff00199093169290921790915560a0830151600483015560c0830151600583015560e09092015160069091015560008981526001602081815260408320600201805480840182559084529083200184905582549092919061205d908490612e59565b90915550859050600281111561207557612075612957565b866001600160a01b0316827fcd4204a6cfd0ad4e00073973d9db47cc8ee30485ec5f0fe3c9b23538f2c7d2488b6040516120b191815260200190565b60405180910390a4979650505050505050565b600080546001600160a01b038381166001600160a01b0319831681178455604051919092169283917f8be0079c531659141344cd1fd0a4f28419497f9722a3daafe3b4186f6b6457e09190a35050565b6000612169826040518060400160405280602081526020017f5361666545524332303a206c6f772d6c6576656c2063616c6c206661696c6564815250856001600160a01b03166122759092919063ffffffff16565b805190915015611cc157808060200190518101906121879190612e71565b611cc15760405162461bcd60e51b815260206004820152602a60248201527f5361666545524332303a204552433230206f7065726174696f6e20646964206e6044820152691bdd081cdd58d8d9595960b21b6064820152608401610839565b6040516001600160a01b0380851660248301528316604482015260648101829052611c8b9085906323b872dd60e01b90608401611c54565b6000600354600161222f9190612e59565b612237611b3d565b60405160200161225a9291909182526001600160a01b0316602082015260400190565b60405160208183030381529060405280519060200120905090565b6060612284848460008561228c565b949350505050565b6060824710156122ed5760405162461bcd60e51b815260206004820152602660248201527f416464726573733a20696e73756666696369656e742062616c616e636520666f6044820152651c8818d85b1b60d21b6064820152608401610839565b6001600160a01b0385163b6123445760405162461bcd60e51b815260206004820152601d60248201527f416464726573733a2063616c6c20746f206e6f6e2d636f6e74726163740000006044820152606401610839565b600080866001600160a01b031685876040516123609190612e91565b60006040518083038185875af1925050503d806000811461239d576040519150601f19603f3d011682016040523d82523d6000602084013e6123a2565b606091505b50915091506123b28282866123bd565b979650505050505050565b606083156123cc57508161128d565b8251156123dc5782518084602001fd5b8160405162461bcd60e51b81526004016108399190612cdc565b82805461240290612d1c565b90600052602060002090601f016020900481019282612424576000855561246a565b82601f1061243d57805160ff191683800117855561246a565b8280016001018555821561246a579182015b8281111561246a57825182559160200191906001019061244f565b506124769291506124b4565b5090565b82805482825590600052602060002090810192821561246a579160200282018281111561246a57825182559160200191906001019061244f565b5b8082111561247657600081556001016124b5565b60405162461bcd60e51b815260206004820152602260248201527f414249206465636f64696e673a207475706c65206461746120746f6f2073686f6044820152611c9d60f21b6064820152608481fd5b60405162461bcd60e51b815260206004820152602260248201527f414249206465636f64696e673a20696e76616c6964207475706c65206f666673604482015261195d60f21b6064820152608481fd5b60006020828403121561257e5761257e6124c9565b5035919050565b60005b838110156125a0578181015183820152602001612588565b83811115611c8b5750506000910152565b600081518084526125c9816020860160208601612585565b601f01601f19169290920160200192915050565b600081518084526020808501945080840160005b8381101561260d578151875295820195908201906001016125f1565b509495945050505050565b6001600160a01b038516815260806020820181905260009061263c908301866125b1565b841515604084015282810360608401526123b281856125dd565b60405162461bcd60e51b815260206004820152602b60248201527f414249206465636f64696e673a20696e76616c69642063616c6c64617461206160448201526a1c9c985e481bd9999cd95d60aa1b6064820152608481fd5b634e487b7160e01b600052604160045260246000fd5b604051601f8201601f1916810167ffffffffffffffff811182821017156126ee576126ee6126af565b604052919050565b600067ffffffffffffffff821115612710576127106126af565b5060051b60200190565b60405162461bcd60e51b815260206004820152602b60248201527f414249206465636f64696e673a20696e76616c69642063616c6c64617461206160448201526a727261792073747269646560a81b6064820152608481fd5b80356001600160a01b038116811461278a57600080fd5b919050565b600082601f8301126127a3576127a3612656565b813560206127b86127b3836126f6565b6126c5565b82815260059290921b840181019181810190868411156127da576127da61271a565b8286015b848110156127fc576127ef81612773565b83529183019183016127de565b509695505050505050565b60008060008060808587031215612820576128206124c9565b8435935060208086013567ffffffffffffffff8082111561284357612843612519565b61284f89838a0161278f565b9550604088013591508082111561286857612868612519565b61287489838a0161278f565b9450606088013591508082111561288d5761288d612519565b508601601f810188136128a2576128a2612656565b80356128b06127b3826126f6565b81815260059190911b8201830190838101908a8311156128d2576128d261271a565b928401925b828410156128f0578335825292840192908401906128d7565b979a9699509497505050505050565b602080825282518282018190526000919060409081850190868401855b8281101561294a57815180516001600160a01b0316855286015186850152928401929085019060010161291c565b5091979650505050505050565b634e487b7160e01b600052602160045260246000fd5b8781526001600160a01b038716602082015260006003871061299f57634e487b7160e01b600052602160045260246000fd5b86604083015260e060608301526129b960e08301876125b1565b82810360808401526129cb81876125dd565b94151560a0840152505060c0015295945050505050565b600082601f8301126129f6576129f6612656565b8135602067ffffffffffffffff821115612a1257612a126126af565b612a24601f8301601f191682016126c5565b8281528582848701011115612a885760405162461bcd60e51b815260048101839052602760248201527f414249206465636f64696e673a20696e76616c69642062797465206172726179604482015266040d8cadccee8d60cb1b6064820152608481fd5b82828601838301376000928101909101919091529392505050565b600080600060608486031215612abb57612abb6124c9565b833567ffffffffffffffff811115612ad557612ad5612519565b612ae1868287016129e2565b935050612af060208501612773565b9150604084013590509250925092565b600060208284031215612b1557612b156124c9565b61128d82612773565b60208152600061128d60208301846125dd565b801515811461082257600080fd5b600082601f830112612b5357612b53612656565b81356020612b636127b3836126f6565b82815260059290921b84018101918181019086841115612b8557612b8561271a565b8286015b848110156127fc578035612b9c81612b31565b8352918301918301612b89565b60008060408385031215612bbf57612bbf6124c9565b823567ffffffffffffffff80821115612bda57612bda612519565b818501915085601f830112612bf157612bf1612656565b81356020612c016127b3836126f6565b82815260059290921b84018101918181019089841115612c2357612c2361271a565b948201945b83861015612c4157853582529482019490820190612c28565b96505086013592505080821115612c5a57612c5a612519565b50612c6785828601612b3f565b9150509250929050565b60008060408385031215612c8757612c876124c9565b82359150602083013567ffffffffffffffff811115612ca857612ca8612519565b612c67858286016129e2565b600080600060608486031215612ccc57612ccc6124c9565b83359250612af060208501612773565b60208152600061128d60208301846125b1565b6020808252601390820152724e6f6465206d7573742062652061207461736b60681b604082015260600190565b600181811c90821680612d3057607f821691505b602082108103612d5057634e487b7160e01b600052602260045260246000fd5b50919050565b634e487b7160e01b600052603260045260246000fd5b634e487b7160e01b600052601160045260246000fd5b600082821015612d9457612d94612d6c565b500390565b600060208284031215612dae57612dae6124c9565b5051919050565b600060018201612dc757612dc7612d6c565b5060010190565b60208082526036908201527f5472616e73616374696f6e206d75737420686176652076616c756520746f20636040820152757265617465207461736b207769746820626f756e747960501b606082015260800190565b6020808252818101527f4f776e61626c653a2063616c6c6572206973206e6f7420746865206f776e6572604082015260600190565b60008219821115612e6c57612e6c612d6c565b500190565b600060208284031215612e8657612e866124c9565b815161128d81612b31565b60008251612ea3818460208701612585565b919091019291505056fe45746865722073656e7420746f206e6f6e2d70617961626c652066756e637469a2646970667358221220997cfd13511a82628db8047afbc5164804f9d454b9a2a872f8a94e53ac11c5c864736f6c634300080d0033",
    "linkReferences": {}
  },
  "methodIdentifiers": {
    "addShare(bytes32,bytes)": "e985ccd7",
    "addSolution(bytes32,bytes)": "ee5e9d9e",
    "addTask(bytes,address,uint256)": "5357d429",
    "getAllTasks()": "779900b4",
    "getBountiesForTask(bytes32)": "4498c6cf",
    "getNode(bytes32)": "50c946fe",
    "getTask(bytes32)": "15a29035",
    "increaseBounty(bytes32,address,uint256)": "fe949a11",
    "isTrustedForwarder(address)": "572b6c05",
    "nodesCount()": "f1a3c5b3",
    "owner()": "8da5cb5b",
    "payoutTask(bytes32,address[],address[],uint256[])": "3047c26d",
    "renounceOwnership()": "715018a6",
    "rootTaskPath()": "8973df07",
    "setTrustedForwarder(address)": "da742228",
    "transferOwnership(address)": "f2fde38b",
    "updateNodesIsOpen(bytes32[],bool[])": "d03388db",
    "updateTaskData(bytes32,bytes)": "fe408658"
  },
  "id": 14
}