{
  "abi": [
    {
      "inputs": [
        {
          "internalType": "address",
          "name": "trustedForwarder",
          "type": "address"
        }
      ],
      "stateMutability": "nonpayable",
      "type": "constructor"
    },
    {
      "anonymous": false,
      "inputs": [
        {
          "indexed": true,
          "internalType": "address",
          "name": "owner",
          "type": "address"
        },
        {
          "indexed": true,
          "internalType": "bytes32",
          "name": "parent",
          "type": "bytes32"
        },
        {
          "indexed": false,
          "internalType": "bytes32",
          "name": "path",
          "type": "bytes32"
        },
        {
          "indexed": false,
          "internalType": "enum NodeType",
          "name": "nodeType",
          "type": "uint8"
        }
      ],
      "name": "NewNodeCreated",
      "type": "event"
    },
    {
      "anonymous": false,
      "inputs": [
        {
          "indexed": true,
          "internalType": "address",
          "name": "previousOwner",
          "type": "address"
        },
        {
          "indexed": true,
          "internalType": "address",
          "name": "newOwner",
          "type": "address"
        }
      ],
      "name": "OwnershipTransferred",
      "type": "event"
    },
    {
      "inputs": [
        {
          "internalType": "bytes32",
          "name": "_parent",
          "type": "bytes32"
        },
        {
          "internalType": "bytes",
          "name": "_data",
          "type": "bytes"
        }
      ],
      "name": "addShare",
      "outputs": [
        {
          "internalType": "bytes32",
          "name": "",
          "type": "bytes32"
        }
      ],
      "stateMutability": "nonpayable",
      "type": "function"
    },
    {
      "inputs": [
        {
          "internalType": "bytes32",
          "name": "_parent",
          "type": "bytes32"
        },
        {
          "internalType": "bytes",
          "name": "_data",
          "type": "bytes"
        }
      ],
      "name": "addSolution",
      "outputs": [
        {
          "internalType": "bytes32",
          "name": "",
          "type": "bytes32"
        }
      ],
      "stateMutability": "nonpayable",
      "type": "function"
    },
    {
      "inputs": [
        {
          "internalType": "bytes",
          "name": "_data",
          "type": "bytes"
        },
        {
          "internalType": "address",
          "name": "_tokenAddress",
          "type": "address"
        },
        {
          "internalType": "uint256",
          "name": "_amount",
          "type": "uint256"
        }
      ],
      "name": "addTask",
      "outputs": [
        {
          "internalType": "bytes32",
          "name": "",
          "type": "bytes32"
        }
      ],
      "stateMutability": "payable",
      "type": "function"
    },
    {
      "inputs": [
        {
          "internalType": "bytes32",
          "name": "",
          "type": "bytes32"
        },
        {
          "internalType": "address",
          "name": "",
          "type": "address"
        }
      ],
      "name": "bounties",
      "outputs": [
        {
          "internalType": "uint256",
          "name": "",
          "type": "uint256"
        }
      ],
      "stateMutability": "view",
      "type": "function"
    },
    {
      "inputs": [],
      "name": "getAllTasks",
      "outputs": [
        {
          "internalType": "bytes32[]",
          "name": "",
          "type": "bytes32[]"
        }
      ],
      "stateMutability": "view",
      "type": "function"
    },
    {
      "inputs": [
        {
          "internalType": "bytes32",
          "name": "_path",
          "type": "bytes32"
        }
      ],
      "name": "getNode",
      "outputs": [
        {
          "internalType": "bytes32",
          "name": "",
          "type": "bytes32"
        },
        {
          "internalType": "address",
          "name": "",
          "type": "address"
        },
        {
          "internalType": "enum NodeType",
          "name": "",
          "type": "uint8"
        },
        {
          "internalType": "bytes",
          "name": "",
          "type": "bytes"
        },
        {
          "internalType": "bytes32[]",
          "name": "",
          "type": "bytes32[]"
        },
        {
          "internalType": "bool",
          "name": "",
          "type": "bool"
        },
        {
          "internalType": "bytes32",
          "name": "",
          "type": "bytes32"
        }
      ],
      "stateMutability": "view",
      "type": "function"
    },
    {
      "inputs": [
        {
          "internalType": "bytes32",
          "name": "_path",
          "type": "bytes32"
        }
      ],
      "name": "getTask",
      "outputs": [
        {
          "internalType": "address",
          "name": "",
          "type": "address"
        },
        {
          "internalType": "bytes",
          "name": "",
          "type": "bytes"
        },
        {
          "internalType": "bool",
          "name": "",
          "type": "bool"
        },
        {
          "internalType": "bytes32[]",
          "name": "",
          "type": "bytes32[]"
        }
      ],
      "stateMutability": "view",
      "type": "function"
    },
    {
      "inputs": [
        {
          "internalType": "bytes32",
          "name": "_path",
          "type": "bytes32"
        }
      ],
      "name": "hasSenderContributedToAnySubnode",
      "outputs": [
        {
          "internalType": "bool",
          "name": "",
          "type": "bool"
        }
      ],
      "stateMutability": "view",
      "type": "function"
    },
    {
      "inputs": [
        {
          "internalType": "bytes32",
          "name": "_taskPath",
          "type": "bytes32"
        },
        {
          "internalType": "address",
          "name": "_tokenAddress",
          "type": "address"
        },
        {
          "internalType": "uint256",
          "name": "_amount",
          "type": "uint256"
        }
      ],
      "name": "increaseBounty",
      "outputs": [
        {
          "internalType": "uint256",
          "name": "",
          "type": "uint256"
        }
      ],
      "stateMutability": "payable",
      "type": "function"
    },
    {
      "inputs": [
        {
          "internalType": "address",
          "name": "forwarder",
          "type": "address"
        }
      ],
      "name": "isTrustedForwarder",
      "outputs": [
        {
          "internalType": "bool",
          "name": "",
          "type": "bool"
        }
      ],
      "stateMutability": "view",
      "type": "function"
    },
    {
      "inputs": [],
      "name": "nodesCount",
      "outputs": [
        {
          "internalType": "uint256",
          "name": "",
          "type": "uint256"
        }
      ],
      "stateMutability": "view",
      "type": "function"
    },
    {
      "inputs": [],
      "name": "owner",
      "outputs": [
        {
          "internalType": "address",
          "name": "",
          "type": "address"
        }
      ],
      "stateMutability": "view",
      "type": "function"
    },
    {
      "inputs": [
        {
          "internalType": "bytes32",
          "name": "taskPath",
          "type": "bytes32"
        },
        {
          "internalType": "address[]",
          "name": "addresses",
          "type": "address[]"
        },
        {
          "internalType": "address[]",
          "name": "tokenAddresses",
          "type": "address[]"
        },
        {
          "internalType": "uint256[]",
          "name": "amounts",
          "type": "uint256[]"
        }
      ],
      "name": "payoutTask",
      "outputs": [],
      "stateMutability": "nonpayable",
      "type": "function"
    },
    {
      "inputs": [],
      "name": "renounceOwnership",
      "outputs": [],
      "stateMutability": "nonpayable",
      "type": "function"
    },
    {
      "inputs": [],
      "name": "rootTaskPath",
      "outputs": [
        {
          "internalType": "bytes32",
          "name": "",
          "type": "bytes32"
        }
      ],
      "stateMutability": "view",
      "type": "function"
    },
    {
      "inputs": [
        {
          "internalType": "address",
          "name": "newOwner",
          "type": "address"
        }
      ],
      "name": "transferOwnership",
      "outputs": [],
      "stateMutability": "nonpayable",
      "type": "function"
    },
    {
      "inputs": [
        {
          "internalType": "bytes32[]",
          "name": "_paths",
          "type": "bytes32[]"
        },
        {
          "internalType": "bool[]",
          "name": "_isOpens",
          "type": "bool[]"
        }
      ],
      "name": "updateNodesIsOpen",
      "outputs": [
        {
          "internalType": "uint256",
          "name": "",
          "type": "uint256"
        }
      ],
      "stateMutability": "nonpayable",
      "type": "function"
    },
    {
      "stateMutability": "payable",
      "type": "receive"
    }
  ],
  "bytecode": {
    "object": "0x60a06040526000600355348015620000635760405162461bcd60e51b815260206004820152602260248201527f45746865722073656e7420746f206e6f6e2d70617961626c652066756e637469604482019081526137b760f11b6064830152608482fd5b506040516200317d3803806200317d8339810160408190526200008691620005f6565b6001600160a01b038116608052620000a7620000a162000132565b6200014e565b620000de600060405180604001604052806008815260200167526f6f745461736b60c01b815250336000806200019e60201b60201c565b600481905550620001136040518060600160405280602681526020016200315760269139620003c060201b620007841760201c565b6200012b6004546200040e60201b6200170d1760201c565b5062000777565b6000620001496200045a60201b620017521760201c565b905090565b600080546001600160a01b038381166001600160a01b0319831681178455604051919092169283917f8be0079c531659141344cd1fd0a4f28419497f9722a3daafe3b4186f6b6457e09190a35050565b600080855111620001ae57600080fd5b6000620001ba62000492565b905060008782604051602001620001db929190918252602082015260400190565b604051602081830303815290604052805190602001209050604051806101000160405280828152602001898152602001858152602001876001600160a01b0316815260200186600281111562000235576200023562000673565b815260208082018a90526040805160008082528184018352828501919091526001606094850181905286825280845290829020855181559285015190830155830151600280830191909155918301516003820180546001600160a01b039092166001600160a01b03198316811782556080860151939491926001600160a81b0319161790600160a01b908490811115620002d357620002d362000673565b021790555060a08201518051620002f591600484019160209091019062000513565b5060c0820151805162000313916005840191602090910190620005a2565b5060e091909101516006909101805460ff191691151591909117905560008881526001602081815260408320600501805480840182559084529083200183905560038054919290916200036890849062000689565b9250508190555087866001600160a01b03167f92f79e4ee75e2f5728dfd026fd65e2fd7e6677ce4945b6e08f0a4d1d81da61a48388604051620003ad929190620006b0565b60405180910390a3979650505050505050565b6200040b81604051602401620003d79190620006e3565b60408051601f198184030181529190526020810180516001600160e01b0390811663104c13eb60e21b17909152620004ee16565b50565b6200040b816040516024016200042691815260200190565b60408051601f198184030181529190526020810180516001600160e01b039081166327b7cf8560e01b17909152620004ee16565b6080516000906001600160a01b031633036200047d575060131936013560601c90565b620001496200050f60201b6200179b1760201c565b60006003546001620004a5919062000689565b620004af62000132565b604051602001620004d39291909182526001600160a01b0316602082015260400190565b60405160208183030381529060405280519060200120905090565b80516a636f6e736f6c652e6c6f67602083016000808483855afa5050505050565b3390565b82805462000521906200073b565b90600052602060002090601f01602090048101928262000545576000855562000590565b82601f106200056057805160ff191683800117855562000590565b8280016001018555821562000590579182015b828111156200059057825182559160200191906001019062000573565b506200059e929150620005df565b5090565b8280548282559060005260206000209081019282156200059057916020028201828111156200059057825182559160200191906001019062000573565b5b808211156200059e5760008155600101620005e0565b600060208284031215620006545760405162461bcd60e51b815260206004820152602260248201527f414249206465636f64696e673a207475706c65206461746120746f6f2073686f6044820152611c9d60f21b6064820152608481fd5b81516001600160a01b03811681146200066c57600080fd5b9392505050565b634e487b7160e01b600052602160045260246000fd5b60008219821115620006ab57634e487b7160e01b600052601160045260246000fd5b500190565b8281526040810160038310620006d657634e487b7160e01b600052602160045260246000fd5b8260208301529392505050565b600060208083528351808285015260005b818110156200071257858101830151858201604001528201620006f4565b8181111562000725576000604083870101525b50601f01601f1916929092016040019392505050565b600181811c908216806200075057607f821691505b6020821081036200077157634e487b7160e01b600052602260045260246000fd5b50919050565b6080516129bd6200079a600039600081816103b8015261175601526129bd6000f3fe6080604052600436106101025760003560e01c80638973df0711610095578063e985ccd711610064578063e985ccd71461060f578063ee5e9d9e1461066a578063f1a3c5b3146106c5578063f2fde38b14610716578063fe949a111461077157610136565b80638973df07146104a55780638da5cb5b146104f6578063c059a6e114610559578063d03388db146105b457610136565b80635357d429116100d15780635357d4291461034d578063572b6c0514610360578063715018a6146103f8578063779900b41461044857610136565b806315a290351461018f5780633047c26d146102035780634f8013511461025e57806350c946fe146102df57610136565b36610136576101346040518060400160405280600c81526020016b0a48a868a92ac8a88408aa8960a31b815250610784565b005b60405162461bcd60e51b815260206004820152602960248201527f556e6b6e6f776e207369676e617475726520616e64206e6f2066616c6c62616360448201908152681ac81919599a5b995960ba1b6064830152608482fd5b3480156101d65760405162461bcd60e51b81526020600482015260226024820152600080516020612968833981519152604482019081526137b760f11b6064830152608482fd5b506101ea6101e5366004612095565b6107ca565b6040516101fa9493929190612144565b60405180910390f35b34801561024a5760405162461bcd60e51b81526020600482015260226024820152600080516020612968833981519152604482019081526137b760f11b6064830152608482fd5b50610134610259366004612333565b61090a565b3480156102a55760405162461bcd60e51b81526020600482015260226024820152600080516020612968833981519152604482019081526137b760f11b6064830152608482fd5b506102d16102b436600461242b565b600260209081526000928352604080842090915290825290205481565b6040519081526020016101fa565b3480156103265760405162461bcd60e51b81526020600482015260226024820152600080516020612968833981519152604482019081526137b760f11b6064830152608482fd5b5061033a610335366004612095565b610dbf565b6040516101fa9796959493929190612492565b6102d161035b3660046125b1565b610f16565b3480156103a75760405162461bcd60e51b81526020600482015260226024820152600080516020612968833981519152604482019081526137b760f11b6064830152608482fd5b506103e86103b636600461260e565b7f00000000000000000000000000000000000000000000000000000000000000006001600160a01b0390811691161490565b60405190151581526020016101fa565b34801561043f5760405162461bcd60e51b81526020600482015260226024820152600080516020612968833981519152604482019081526137b760f11b6064830152608482fd5b50610134610fd8565b34801561048f5760405162461bcd60e51b81526020600482015260226024820152600080516020612968833981519152604482019081526137b760f11b6064830152608482fd5b5061049861105d565b6040516101fa919061262c565b3480156104ec5760405162461bcd60e51b81526020600482015260226024820152600080516020612968833981519152604482019081526137b760f11b6064830152608482fd5b506102d160045481565b34801561053d5760405162461bcd60e51b81526020600482015260226024820152600080516020612968833981519152604482019081526137b760f11b6064830152608482fd5b506000546040516001600160a01b0390911681526020016101fa565b3480156105a05760405162461bcd60e51b81526020600482015260226024820152600080516020612968833981519152604482019081526137b760f11b6064830152608482fd5b506103e86105af366004612095565b6110c3565b3480156105fb5760405162461bcd60e51b81526020600482015260226024820152600080516020612968833981519152604482019081526137b760f11b6064830152608482fd5b506102d161060a3660046126b7565b611223565b3480156106565760405162461bcd60e51b81526020600482015260226024820152600080516020612968833981519152604482019081526137b760f11b6064830152608482fd5b506102d161066536600461277f565b6114a1565b3480156106b15760405162461bcd60e51b81526020600482015260226024820152600080516020612968833981519152604482019081526137b760f11b6064830152608482fd5b506102d16106c036600461277f565b611512565b34801561070c5760405162461bcd60e51b81526020600482015260226024820152600080516020612968833981519152604482019081526137b760f11b6064830152608482fd5b506102d160035481565b34801561075d5760405162461bcd60e51b81526020600482015260226024820152600080516020612968833981519152604482019081526137b760f11b6064830152608482fd5b5061013461076c36600461260e565b611574565b6102d161077f3660046127c2565b61165b565b6107c78160405160240161079891906127ea565b60408051601f198184030181529190526020810180516001600160e01b031663104c13eb60e21b17905261179f565b50565b6000818152600160205260608181846107e7565b60405180910390fd5b6000868152600160205260409020600381015460068201546004830180546001600160a01b0390931692909160ff169060058501908390610827906127fd565b80601f0160208091040260200160405190810160405280929190818152602001828054610853906127fd565b80156108a05780601f10610875576101008083540402835291602001916108a0565b820191906000526020600020905b81548152906001019060200180831161088357829003601f168201915b50505050509250808054806020026020016040519081016040528092919081815260200182805480156108f257602002820191906000526020600020905b8154815260200190600101908083116108de575b50505050509050955095509550955050509193509193565b600084905260016020528361091d6117c0565b6000828152600160205260409020600301546001600160a01b039081169116146109895760405162461bcd60e51b815260206004820152601d60248201527f4f6e6c79206e6f6465206f776e65722063616e2065646974206e6f646500000060448201526064016107de565b60008451116109d25760405162461bcd60e51b8152602060048201526015602482015274139bc81859191c995cdcd95cc81c1c9bdd9a591959605a1b60448201526064016107de565b8151845114610a385760405162461bcd60e51b815260206004820152602c60248201527f4d7573742062652073616d65206e756d626572206f662061646472657373657360448201526b20616e6420616d6f756e747360a01b60648201526084016107de565b6000805b8551811015610db6576000848281518110610a5957610a59612831565b602002602001015111610a6b57600080fd5b848181518110610a7d57610a7d612831565b60200260200101519150838181518110610a9957610a99612831565b60209081029190910181015160008981526002835260408082206001600160a01b038716835290935291909120541015610ad257600080fd5b6001600160a01b038216610bc457838181518110610af257610af2612831565b6020026020010151471015610b535760405162461bcd60e51b815260206004820152602160248201527f436f6e7472616374206d757374206861766520656e6f7567682062616c616e636044820152606560f81b60648201526084016107de565b858181518110610b6557610b65612831565b60200260200101516001600160a01b03166108fc858381518110610b8b57610b8b612831565b60200260200101519081150290604051600060405180830381858888f19350505050158015610bbe573d6000803e3d6000fd5b50610d4f565b6000829050848281518110610bdb57610bdb612831565b60209081029190910101516040516370a0823160e01b81523060048201526001600160a01b038316906370a082319060240160206040518083038186803b158015610c755760405162461bcd60e51b815260206004820152602560248201527f54617267657420636f6e747261637420646f6573206e6f7420636f6e7461696e604482019081526420636f646560d81b6064830152608482fd5b505afa158015610c89573d6000803e3d6000fd5b505050506040513d601f19601f82011682018060405250810190610cad9190612847565b1015610cfb5760405162461bcd60e51b815260206004820181905260248201527f436f6e7472616374206d757374206861766520656e6f75676820746f6b656e7360448201526064016107de565b610d4d30888481518110610d1157610d11612831565b6020026020010151878581518110610d2b57610d2b612831565b6020026020010151846001600160a01b03166117ca909392919063ffffffff16565b505b838181518110610d6157610d61612831565b60209081029190910181015160008981526002835260408082206001600160a01b0387168352909352918220805491929091610d9e908490612879565b90915550819050610dae81612890565b915050610a3c565b50505050505050565b6000818152600160205280806060808280876000898152600160208190526040909120908101546003820154600683015460028401546004850180546001600160a01b0385169460ff600160a01b90910481169492936005890193909116918490610e29906127fd565b80601f0160208091040260200160405190810160405280929190818152602001828054610e55906127fd565b8015610ea25780601f10610e7757610100808354040283529160200191610ea2565b820191906000526020600020905b815481529060010190602001808311610e8557829003601f168201915b5050505050935082805480602002602001604051908101604052809291908181526020018280548015610ef457602002820191906000526020600020905b815481526020019060010190808311610ee0575b5050505050925098509850985098509850985098505050919395979092949650565b6000806001600160a01b038416610f4e5760003411610f475760405162461bcd60e51b81526004016107de906128a9565b5034610f5b565b610f58848461182a565b50815b6000610f7460045487610f6c6117c0565b600080611a18565b60008181526002602090815260408083206001600160a01b038a1684528252918290208590558151808301909252601082526f5461736b43726561746f72536861726560801b90820152909150610fcc9082906114a1565b509150505b9392505050565b610fe06117c0565b6001600160a01b0316610ffb6000546001600160a01b031690565b6001600160a01b0316146110515760405162461bcd60e51b815260206004820181905260248201527f4f776e61626c653a2063616c6c6572206973206e6f7420746865206f776e657260448201526064016107de565b61105b6000611c28565b565b6004546000908152600160209081526040918290206005018054835181840281018401909452808452606093928301828280156110b957602002820191906000526020600020905b8154815260200190600101908083116110a5575b5050505050905090565b600081815260016020908152604080832060050180548251818502810185019093528083528593859392919083018282801561111e57602002820191906000526020600020905b81548152602001906001019080831161110a575b5050505050905060005b8151811015611216576111396117c0565b6001600160a01b03166001600084848151811061115857611158612831565b6020908102919091018101518252810191909152604001600020600301546001600160a01b03160361118f5760019350505061121d565b6000600160008484815181106111a7576111a7612831565b602002602001015181526020019081526020016000206005018054905011156112045760006111ee8383815181106111e1576111e1612831565b60200260200101516110c3565b90508015611202576001945050505061121d565b505b8061120e81612890565b915050611128565b5060009250505b50919050565b6000815183511461128d5760405162461bcd60e51b815260206004820152602e60248201527f4e756d626572206f66206e6f646520706174687320616e642069734f70656e7360448201526d081b5d5cdd08189948195c5d585b60921b60648201526084016107de565b6000805b845181101561149957600080600160008885815181106112b3576112b3612831565b6020026020010151815260200190815260200160002060030160149054906101000a900460ff1660028111156112eb576112eb61245a565b03611334576001600087848151811061130657611306612831565b6020908102919091018101518252810191909152604001600020600301546001600160a01b03169050611390565b600160006001600089868151811061134e5761134e612831565b6020026020010151815260200190815260200160002060020154815260200190815260200160002060030160009054906101000a90046001600160a01b031690505b600061139a6117c0565b6001600160a01b0316826001600160a01b031614801561140d57508583815181106113c7576113c7612831565b60200260200101511515600160008986815181106113e7576113e7612831565b60209081029190910181015182528101919091526040016000206006015460ff16151514155b905080156114845785838151811061142757611427612831565b60200260200101516001600089868151811061144557611445612831565b6020026020010151815260200190815260200160002060060160006101000a81548160ff021916908315150217905550838061148090612890565b9450505b5050808061149190612890565b915050611291565b509392505050565b600082815260016020526040812060030154839082908190600160a01b900460ff1660028111156114d4576114d461245a565b036114e05750836114f4565b506000848152600160205260409020600201545b61150985856115016117c0565b600285611a18565b95945050505050565b6000828152600160205260408120600301548390600290600160a01b900460ff16818111156115435761154361245a565b1461154d57600080fd5b600084815260016020526040902060020154611509858561156c6117c0565b600185611a18565b61157c6117c0565b6001600160a01b03166115976000546001600160a01b031690565b6001600160a01b0316146115ed5760405162461bcd60e51b815260206004820181905260248201527f4f776e61626c653a2063616c6c6572206973206e6f7420746865206f776e657260448201526064016107de565b6001600160a01b0381166116525760405162461bcd60e51b815260206004820152602660248201527f4f776e61626c653a206e6577206f776e657220697320746865207a65726f206160448201526564647265737360d01b60648201526084016107de565b6107c781611c28565b600083815260016020528360006001600160a01b03851661169d57600034116116965760405162461bcd60e51b81526004016107de906128a9565b50346116aa565b6116a7858561182a565b50825b60008681526002602090815260408083206001600160a01b0389168452909152812080548392906116dc9084906128ff565b909155505050600094855250506002602090815260408085206001600160a01b039490941685529290525090205490565b6107c78160405160240161172391815260200190565b60408051601f198184030181529190526020810180516001600160e01b03166327b7cf8560e01b17905261179f565b60007f00000000000000000000000000000000000000000000000000000000000000006001600160a01b03163303611791575060131936013560601c90565b503390565b905090565b3390565b80516a636f6e736f6c652e6c6f67602083016000808483855afa5050505050565b6000611796611752565b604080516001600160a01b0385811660248301528416604482015260648082018490528251808303909101815260849091019091526020810180516001600160e01b03166323b872dd60e01b179052611824908590611c78565b50505050565b6000826001600160a01b03163b116118955760405162461bcd60e51b815260206004820152602860248201527f5f746f6b656e41646472657373206d757374206265206120636f6e7472616374604482015267206164647265737360c01b60648201526084016107de565b6000811161190b5760405162461bcd60e51b815260206004820152603860248201527f455243323020746f6b656e206d7573742068617665205f616d6f756e7420746f60448201527f20637265617465207461736b207769746820626f756e7479000000000000000060648201526084016107de565b81816001600160a01b0382166370a082316119246117c0565b6040516001600160e01b031960e084901b1681526001600160a01b03909116600482015260240160206040518083038186803b1580156119b35760405162461bcd60e51b815260206004820152602560248201527f54617267657420636f6e747261637420646f6573206e6f7420636f6e7461696e604482019081526420636f646560d81b6064830152608482fd5b505afa1580156119c7573d6000803e3d6000fd5b505050506040513d601f19601f820116820180604052508101906119eb9190612847565b10156119f657600080fd5b611a13611a016117c0565b6001600160a01b0383169030856117ca565b505050565b600080855111611a2757600080fd5b6000611a31611d4a565b905060008782604051602001611a51929190918252602082015260400190565b604051602081830303815290604052805190602001209050604051806101000160405280828152602001898152602001858152602001876001600160a01b03168152602001866002811115611aa857611aa861245a565b815260208082018a90526040805160008082528184018352828501919091526001606094850181905286825280845290829020855181559285015190830155830151600280830191909155918301516003820180546001600160a01b039092166001600160a01b03198316811782556080860151939491926001600160a81b0319161790600160a01b908490811115611b4357611b4361245a565b021790555060a08201518051611b63916004840191602090910190611f22565b5060c08201518051611b7f916005840191602090910190611fa6565b5060e091909101516006909101805460ff19169115159190911790556000888152600160208181526040832060050180548084018255908452908320018390556003805491929091611bd29084906128ff565b9250508190555087866001600160a01b03167f92f79e4ee75e2f5728dfd026fd65e2fd7e6677ce4945b6e08f0a4d1d81da61a48388604051611c15929190612917565b60405180910390a3979650505050505050565b600080546001600160a01b038381166001600160a01b0319831681178455604051919092169283917f8be0079c531659141344cd1fd0a4f28419497f9722a3daafe3b4186f6b6457e09190a35050565b6000611ccd826040518060400160405280602081526020017f5361666545524332303a206c6f772d6c6576656c2063616c6c206661696c6564815250856001600160a01b0316611da19092919063ffffffff16565b805190915015611a135780806020019051810190611ceb919061292b565b611a135760405162461bcd60e51b815260206004820152602a60248201527f5361666545524332303a204552433230206f7065726174696f6e20646964206e6044820152691bdd081cdd58d8d9595960b21b60648201526084016107de565b60006003546001611d5b91906128ff565b611d636117c0565b604051602001611d869291909182526001600160a01b0316602082015260400190565b60405160208183030381529060405280519060200120905090565b6060611db08484600085611db8565b949350505050565b606082471015611e195760405162461bcd60e51b815260206004820152602660248201527f416464726573733a20696e73756666696369656e742062616c616e636520666f6044820152651c8818d85b1b60d21b60648201526084016107de565b6001600160a01b0385163b611e705760405162461bcd60e51b815260206004820152601d60248201527f416464726573733a2063616c6c20746f206e6f6e2d636f6e747261637400000060448201526064016107de565b600080866001600160a01b03168587604051611e8c919061294b565b60006040518083038185875af1925050503d8060008114611ec9576040519150601f19603f3d011682016040523d82523d6000602084013e611ece565b606091505b5091509150611ede828286611ee9565b979650505050505050565b60608315611ef8575081610fd1565b825115611f085782518084602001fd5b8160405162461bcd60e51b81526004016107de91906127ea565b828054611f2e906127fd565b90600052602060002090601f016020900481019282611f505760008555611f96565b82601f10611f6957805160ff1916838001178555611f96565b82800160010185558215611f96579182015b82811115611f96578251825591602001919060010190611f7b565b50611fa2929150611fe0565b5090565b828054828255906000526020600020908101928215611f965791602002820182811115611f96578251825591602001919060010190611f7b565b5b80821115611fa25760008155600101611fe1565b60405162461bcd60e51b815260206004820152602260248201527f414249206465636f64696e673a207475706c65206461746120746f6f2073686f6044820152611c9d60f21b6064820152608481fd5b60405162461bcd60e51b815260206004820152602260248201527f414249206465636f64696e673a20696e76616c6964207475706c65206f666673604482015261195d60f21b6064820152608481fd5b6000602082840312156120aa576120aa611ff5565b5035919050565b60005b838110156120cc5781810151838201526020016120b4565b838111156118245750506000910152565b600081518084526120f58160208601602086016120b1565b601f01601f19169290920160200192915050565b600081518084526020808501945080840160005b838110156121395781518752958201959082019060010161211d565b509495945050505050565b6001600160a01b0385168152608060208201819052600090612168908301866120dd565b84151560408401528281036060840152611ede8185612109565b60405162461bcd60e51b815260206004820152602b60248201527f414249206465636f64696e673a20696e76616c69642063616c6c64617461206160448201526a1c9c985e481bd9999cd95d60aa1b6064820152608481fd5b634e487b7160e01b600052604160045260246000fd5b604051601f8201601f1916810167ffffffffffffffff8111828210171561221a5761221a6121db565b604052919050565b600067ffffffffffffffff82111561223c5761223c6121db565b5060051b60200190565b60405162461bcd60e51b815260206004820152602b60248201527f414249206465636f64696e673a20696e76616c69642063616c6c64617461206160448201526a727261792073747269646560a81b6064820152608481fd5b80356001600160a01b03811681146122b657600080fd5b919050565b600082601f8301126122cf576122cf612182565b813560206122e46122df83612222565b6121f1565b82815260059290921b8401810191818101908684111561230657612306612246565b8286015b848110156123285761231b8161229f565b835291830191830161230a565b509695505050505050565b6000806000806080858703121561234c5761234c611ff5565b8435935060208086013567ffffffffffffffff8082111561236f5761236f612045565b61237b89838a016122bb565b9550604088013591508082111561239457612394612045565b6123a089838a016122bb565b945060608801359150808211156123b9576123b9612045565b508601601f810188136123ce576123ce612182565b80356123dc6122df82612222565b81815260059190911b8201830190838101908a8311156123fe576123fe612246565b928401925b8284101561241c57833582529284019290840190612403565b979a9699509497505050505050565b6000806040838503121561244157612441611ff5565b823591506124516020840161229f565b90509250929050565b634e487b7160e01b600052602160045260246000fd5b6003811061248e57634e487b7160e01b600052602160045260246000fd5b9052565b8781526001600160a01b03871660208201526124b16040820187612470565b60e0606082015260006124c760e08301876120dd565b82810360808401526124d98187612109565b94151560a0840152505060c0015295945050505050565b600082601f83011261250457612504612182565b8135602067ffffffffffffffff821115612520576125206121db565b612532601f8301601f191682016121f1565b82815285828487010111156125965760405162461bcd60e51b815260048101839052602760248201527f414249206465636f64696e673a20696e76616c69642062797465206172726179604482015266040d8cadccee8d60cb1b6064820152608481fd5b82828601838301376000928101909101919091529392505050565b6000806000606084860312156125c9576125c9611ff5565b833567ffffffffffffffff8111156125e3576125e3612045565b6125ef868287016124f0565b9350506125fe6020850161229f565b9150604084013590509250925092565b60006020828403121561262357612623611ff5565b610fd18261229f565b602081526000610fd16020830184612109565b80151581146107c757600080fd5b600082601f83011261266157612661612182565b813560206126716122df83612222565b82815260059290921b8401810191818101908684111561269357612693612246565b8286015b848110156123285780356126aa8161263f565b8352918301918301612697565b600080604083850312156126cd576126cd611ff5565b823567ffffffffffffffff808211156126e8576126e8612045565b818501915085601f8301126126ff576126ff612182565b8135602061270f6122df83612222565b82815260059290921b8401810191818101908984111561273157612731612246565b948201945b8386101561274f57853582529482019490820190612736565b9650508601359250508082111561276857612768612045565b506127758582860161264d565b9150509250929050565b6000806040838503121561279557612795611ff5565b82359150602083013567ffffffffffffffff8111156127b6576127b6612045565b612775858286016124f0565b6000806000606084860312156127da576127da611ff5565b833592506125fe6020850161229f565b602081526000610fd160208301846120dd565b600181811c9082168061281157607f821691505b60208210810361121d57634e487b7160e01b600052602260045260246000fd5b634e487b7160e01b600052603260045260246000fd5b60006020828403121561285c5761285c611ff5565b5051919050565b634e487b7160e01b600052601160045260246000fd5b60008282101561288b5761288b612863565b500390565b6000600182016128a2576128a2612863565b5060010190565b60208082526036908201527f5472616e73616374696f6e206d75737420686176652076616c756520746f20636040820152757265617465207461736b207769746820626f756e747960501b606082015260800190565b6000821982111561291257612912612863565b500190565b82815260408101610fd16020830184612470565b60006020828403121561294057612940611ff5565b8151610fd18161263f565b6000825161295d8184602087016120b1565b919091019291505056fe45746865722073656e7420746f206e6f6e2d70617961626c652066756e637469a2646970667358221220e9a240bc7fda61bf61587fade3f7e23db835730cc85b6d018e94555421cd355464736f6c634300080d003343726561746564205461736b506f7274616c20726f6f74207461736b20776974682070617468",
    "linkReferences": {}
  },
  "methodIdentifiers": {
    "addShare(bytes32,bytes)": "e985ccd7",
    "addSolution(bytes32,bytes)": "ee5e9d9e",
    "addTask(bytes,address,uint256)": "5357d429",
    "bounties(bytes32,address)": "4f801351",
    "getAllTasks()": "779900b4",
    "getNode(bytes32)": "50c946fe",
    "getTask(bytes32)": "15a29035",
    "hasSenderContributedToAnySubnode(bytes32)": "c059a6e1",
    "increaseBounty(bytes32,address,uint256)": "fe949a11",
    "isTrustedForwarder(address)": "572b6c05",
    "nodesCount()": "f1a3c5b3",
    "owner()": "8da5cb5b",
    "payoutTask(bytes32,address[],address[],uint256[])": "3047c26d",
    "renounceOwnership()": "715018a6",
    "rootTaskPath()": "8973df07",
    "transferOwnership(address)": "f2fde38b",
    "updateNodesIsOpen(bytes32[],bool[])": "d03388db"
  },
  "id": 14
}