{
  "abi": [
    {
      "inputs": [
        {
          "internalType": "address",
          "name": "_trustedForwarder",
          "type": "address"
        }
      ],
      "stateMutability": "nonpayable",
      "type": "constructor"
    },
    {
      "anonymous": false,
      "inputs": [
        {
          "indexed": true,
          "internalType": "bytes32",
          "name": "path",
          "type": "bytes32"
        },
        {
          "indexed": true,
          "internalType": "address",
          "name": "tokenAddress",
          "type": "address"
        },
        {
          "indexed": false,
          "internalType": "uint256",
          "name": "amount",
          "type": "uint256"
        }
      ],
      "name": "BountyUpdated",
      "type": "event"
    },
    {
      "anonymous": false,
      "inputs": [
        {
          "indexed": true,
          "internalType": "bytes32",
          "name": "path",
          "type": "bytes32"
        },
        {
          "indexed": true,
          "internalType": "address",
          "name": "owner",
          "type": "address"
        },
        {
          "indexed": true,
          "internalType": "enum NodeType",
          "name": "nodeType",
          "type": "uint8"
        },
        {
          "indexed": false,
          "internalType": "bytes32",
          "name": "parent",
          "type": "bytes32"
        }
      ],
      "name": "NodeUpdated",
      "type": "event"
    },
    {
      "anonymous": false,
      "inputs": [
        {
          "indexed": true,
          "internalType": "address",
          "name": "previousOwner",
          "type": "address"
        },
        {
          "indexed": true,
          "internalType": "address",
          "name": "newOwner",
          "type": "address"
        }
      ],
      "name": "OwnershipTransferred",
      "type": "event"
    },
    {
      "inputs": [
        {
          "internalType": "bytes32",
          "name": "_parent",
          "type": "bytes32"
        },
        {
          "internalType": "bytes",
          "name": "_data",
          "type": "bytes"
        }
      ],
      "name": "addShare",
      "outputs": [
        {
          "internalType": "bytes32",
          "name": "",
          "type": "bytes32"
        }
      ],
      "stateMutability": "nonpayable",
      "type": "function"
    },
    {
      "inputs": [
        {
          "internalType": "bytes32",
          "name": "_parent",
          "type": "bytes32"
        },
        {
          "internalType": "bytes",
          "name": "_data",
          "type": "bytes"
        }
      ],
      "name": "addSolution",
      "outputs": [
        {
          "internalType": "bytes32",
          "name": "",
          "type": "bytes32"
        }
      ],
      "stateMutability": "nonpayable",
      "type": "function"
    },
    {
      "inputs": [
        {
          "internalType": "bytes",
          "name": "_data",
          "type": "bytes"
        },
        {
          "internalType": "address",
          "name": "_tokenAddress",
          "type": "address"
        },
        {
          "internalType": "uint256",
          "name": "_amount",
          "type": "uint256"
        }
      ],
      "name": "addTask",
      "outputs": [
        {
          "internalType": "bytes32",
          "name": "",
          "type": "bytes32"
        }
      ],
      "stateMutability": "payable",
      "type": "function"
    },
    {
      "inputs": [],
      "name": "getAllTasks",
      "outputs": [
        {
          "internalType": "bytes32[]",
          "name": "",
          "type": "bytes32[]"
        }
      ],
      "stateMutability": "view",
      "type": "function"
    },
    {
      "inputs": [
        {
          "internalType": "bytes32",
          "name": "_path",
          "type": "bytes32"
        }
      ],
      "name": "getBountiesForTask",
      "outputs": [
        {
          "components": [
            {
              "internalType": "address",
              "name": "tokenAddress",
              "type": "address"
            },
            {
              "internalType": "uint256",
              "name": "amount",
              "type": "uint256"
            }
          ],
          "internalType": "struct Bounty[]",
          "name": "",
          "type": "tuple[]"
        }
      ],
      "stateMutability": "view",
      "type": "function"
    },
    {
      "inputs": [
        {
          "internalType": "bytes32",
          "name": "_path",
          "type": "bytes32"
        }
      ],
      "name": "getNode",
      "outputs": [
        {
          "internalType": "bytes32",
          "name": "",
          "type": "bytes32"
        },
        {
          "internalType": "address",
          "name": "",
          "type": "address"
        },
        {
          "internalType": "enum NodeType",
          "name": "",
          "type": "uint8"
        },
        {
          "internalType": "bytes",
          "name": "",
          "type": "bytes"
        },
        {
          "internalType": "bytes32[]",
          "name": "",
          "type": "bytes32[]"
        },
        {
          "internalType": "bool",
          "name": "",
          "type": "bool"
        },
        {
          "internalType": "bytes32",
          "name": "",
          "type": "bytes32"
        }
      ],
      "stateMutability": "view",
      "type": "function"
    },
    {
      "inputs": [
        {
          "internalType": "bytes32",
          "name": "_path",
          "type": "bytes32"
        }
      ],
      "name": "getTask",
      "outputs": [
        {
          "internalType": "address",
          "name": "",
          "type": "address"
        },
        {
          "internalType": "bytes",
          "name": "",
          "type": "bytes"
        },
        {
          "internalType": "bool",
          "name": "",
          "type": "bool"
        },
        {
          "internalType": "bytes32[]",
          "name": "",
          "type": "bytes32[]"
        }
      ],
      "stateMutability": "view",
      "type": "function"
    },
    {
      "inputs": [
        {
          "internalType": "bytes32",
          "name": "_taskPath",
          "type": "bytes32"
        },
        {
          "internalType": "address",
          "name": "_tokenAddress",
          "type": "address"
        },
        {
          "internalType": "uint256",
          "name": "_amount",
          "type": "uint256"
        }
      ],
      "name": "increaseBounty",
      "outputs": [],
      "stateMutability": "payable",
      "type": "function"
    },
    {
      "inputs": [
        {
          "internalType": "address",
          "name": "forwarder",
          "type": "address"
        }
      ],
      "name": "isTrustedForwarder",
      "outputs": [
        {
          "internalType": "bool",
          "name": "",
          "type": "bool"
        }
      ],
      "stateMutability": "view",
      "type": "function"
    },
    {
      "inputs": [],
      "name": "nodesCount",
      "outputs": [
        {
          "internalType": "uint256",
          "name": "",
          "type": "uint256"
        }
      ],
      "stateMutability": "view",
      "type": "function"
    },
    {
      "inputs": [],
      "name": "owner",
      "outputs": [
        {
          "internalType": "address",
          "name": "",
          "type": "address"
        }
      ],
      "stateMutability": "view",
      "type": "function"
    },
    {
      "inputs": [
        {
          "internalType": "bytes32",
          "name": "taskPath",
          "type": "bytes32"
        },
        {
          "internalType": "address[]",
          "name": "addresses",
          "type": "address[]"
        },
        {
          "internalType": "address[]",
          "name": "tokenAddresses",
          "type": "address[]"
        },
        {
          "internalType": "uint256[]",
          "name": "amounts",
          "type": "uint256[]"
        }
      ],
      "name": "payoutTask",
      "outputs": [],
      "stateMutability": "nonpayable",
      "type": "function"
    },
    {
      "inputs": [],
      "name": "renounceOwnership",
      "outputs": [],
      "stateMutability": "nonpayable",
      "type": "function"
    },
    {
      "inputs": [],
      "name": "rootTaskPath",
      "outputs": [
        {
          "internalType": "bytes32",
          "name": "",
          "type": "bytes32"
        }
      ],
      "stateMutability": "view",
      "type": "function"
    },
    {
      "inputs": [
        {
          "internalType": "address",
          "name": "_trustedForwarder",
          "type": "address"
        }
      ],
      "name": "setTrustedForwarder",
      "outputs": [],
      "stateMutability": "nonpayable",
      "type": "function"
    },
    {
      "inputs": [
        {
          "internalType": "address",
          "name": "newOwner",
          "type": "address"
        }
      ],
      "name": "transferOwnership",
      "outputs": [],
      "stateMutability": "nonpayable",
      "type": "function"
    },
    {
      "inputs": [],
      "name": "trustedForwarder",
      "outputs": [
        {
          "internalType": "address",
          "name": "",
          "type": "address"
        }
      ],
      "stateMutability": "view",
      "type": "function"
    },
    {
      "inputs": [
        {
          "internalType": "bytes32[]",
          "name": "_paths",
          "type": "bytes32[]"
        },
        {
          "internalType": "bool[]",
          "name": "_isOpens",
          "type": "bool[]"
        }
      ],
      "name": "updateNodesIsOpen",
      "outputs": [
        {
          "internalType": "uint256",
          "name": "",
          "type": "uint256"
        }
      ],
      "stateMutability": "nonpayable",
      "type": "function"
    },
    {
      "inputs": [
        {
          "internalType": "bytes32",
          "name": "_path",
          "type": "bytes32"
        },
        {
          "internalType": "bytes",
          "name": "_data",
          "type": "bytes"
        }
      ],
      "name": "updateTaskData",
      "outputs": [],
      "stateMutability": "nonpayable",
      "type": "function"
    },
    {
      "inputs": [
        {
          "internalType": "bytes32",
          "name": "_path",
          "type": "bytes32"
        },
        {
          "internalType": "address",
          "name": "_newOwner",
          "type": "address"
        }
      ],
      "name": "updateTaskOwner",
      "outputs": [],
      "stateMutability": "nonpayable",
      "type": "function"
    },
    {
      "inputs": [
        {
          "internalType": "uint256",
          "name": "_amount",
          "type": "uint256"
        }
      ],
      "name": "withdrawToOwner",
      "outputs": [],
      "stateMutability": "nonpayable",
      "type": "function"
    },
    {
      "inputs": [
        {
          "internalType": "address",
          "name": "_tokenAddress",
          "type": "address"
        },
        {
          "internalType": "uint256",
          "name": "_amount",
          "type": "uint256"
        }
      ],
      "name": "withdrawTokenToOwner",
      "outputs": [],
      "stateMutability": "nonpayable",
      "type": "function"
    },
    {
      "stateMutability": "payable",
      "type": "receive"
    }
  ],
  "bytecode": {
    "object": "0x60a06040526000600355348015620000635760405162461bcd60e51b815260206004820152602260248201527f45746865722073656e7420746f206e6f6e2d70617961626c652066756e637469604482019081526137b760f11b6064830152608482fd5b50604051620039de380380620039de8339810160408190526200008691620004f8565b6001600160a01b038116608052620000a7620000a1620000e8565b62000104565b620000de600060405180604001604052806008815260200167526f6f745461736b60c01b815250336000806200015460201b60201c565b60045550620005ee565b6000620000ff6200037d60201b62001ece1760201c565b905090565b600080546001600160a01b038381166001600160a01b0319831681178455604051919092169283917f8be0079c531659141344cd1fd0a4f28419497f9722a3daafe3b4186f6b6457e09190a35050565b6000808551116200016457600080fd5b600062000170620003b5565b90506000878260405160200162000191929190918252602082015260400190565b60408051601f198184030181528282528051602091820120610100840183526001600160a01b038a1684528184018b9052825160008152918201835291830152915060608101866002811115620001ec57620001ec62000575565b8152600160208083018290526040808401869052606084018d90526080909301889052600085815282825292909220835181546001600160a01b0319166001600160a01b039091161781558383015180519193620002509385019291019062000415565b50604082015180516200026e916002840191602090910190620004a4565b50606082015160038201805460ff1916600183600281111562000295576200029562000575565b02179055506080820151600380830180549215156101000261ff00199093169290921790915560a0830151600483015560c0830151600583015560e090920151600690910155600089815260016020818152604083206002018054808401825590845290832001849055825490929190620003129084906200058b565b9091555085905060028111156200032d576200032d62000575565b866001600160a01b0316827fcd4204a6cfd0ad4e00073973d9db47cc8ee30485ec5f0fe3c9b23538f2c7d2488b6040516200036a91815260200190565b60405180910390a4979650505050505050565b6080516000906001600160a01b03163303620003a0575060131936013560601c90565b620000ff6200041160201b62001f171760201c565b60006003546001620003c891906200058b565b620003d2620000e8565b604051602001620003f69291909182526001600160a01b0316602082015260400190565b60405160208183030381529060405280519060200120905090565b3390565b8280546200042390620005b2565b90600052602060002090601f01602090048101928262000447576000855562000492565b82601f106200046257805160ff191683800117855562000492565b8280016001018555821562000492579182015b828111156200049257825182559160200191906001019062000475565b50620004a0929150620004e1565b5090565b8280548282559060005260206000209081019282156200049257916020028201828111156200049257825182559160200191906001019062000475565b5b80821115620004a05760008155600101620004e2565b600060208284031215620005565760405162461bcd60e51b815260206004820152602260248201527f414249206465636f64696e673a207475706c65206461746120746f6f2073686f6044820152611c9d60f21b6064820152608481fd5b81516001600160a01b03811681146200056e57600080fd5b9392505050565b634e487b7160e01b600052602160045260246000fd5b60008219821115620005ad57634e487b7160e01b600052601160045260246000fd5b500190565b600181811c90821680620005c757607f821691505b602082108103620005e857634e487b7160e01b600052602260045260246000fd5b50919050565b6080516133cd620006116000396000818161049a0152611ed201526133cd6000f3fe6080604052600436106101395760003560e01c80637da0a877116100ab578063e985ccd71161006f578063e985ccd7146107b5578063ee5e9d9e14610810578063f1a3c5b31461086b578063f2fde38b146108bc578063fe40865814610917578063fe949a11146109725761016d565b80637da0a877146105e25780638973df07146106555780638da5cb5b146106a6578063d03388db146106ff578063da7422281461075a5761016d565b80635357d429116100fd5780635357d429146103c657806356a6338f146103e7578063572b6c05146104425780636a5bbc1d146104da578063715018a614610535578063779900b4146105855761016d565b806315a29035146101c65780633047c26d1461023a5780634498c6cf146102955780634723218d146102fd57806350c946fe146103585761016d565b3661016d5761016b6040518060400160405280600c81526020016b0a48a868a92ac8a88408aa8960a31b815250610985565b005b60405162461bcd60e51b815260206004820152602960248201527f556e6b6e6f776e207369676e617475726520616e64206e6f2066616c6c62616360448201908152681ac81919599a5b995960ba1b6064830152608482fd5b34801561020d5760405162461bcd60e51b81526020600482015260226024820152600080516020613358833981519152604482019081526137b760f11b6064830152608482fd5b5061022161021c36600461293f565b6109cb565b60405161023194939291906129ee565b60405180910390f35b3480156102815760405162461bcd60e51b81526020600482015260226024820152600080516020613358833981519152604482019081526137b760f11b6064830152608482fd5b5061016b610290366004612bdd565b610b57565b3480156102dc5760405162461bcd60e51b81526020600482015260226024820152600080516020613358833981519152604482019081526137b760f11b6064830152608482fd5b506102f06102eb36600461293f565b61109d565b6040516102319190612cd5565b3480156103445760405162461bcd60e51b81526020600482015260226024820152600080516020613358833981519152604482019081526137b760f11b6064830152608482fd5b5061016b610353366004612d2d565b611166565b34801561039f5760405162461bcd60e51b81526020600482015260226024820152600080516020613358833981519152604482019081526137b760f11b6064830152608482fd5b506103b36103ae36600461293f565b611292565b6040516102319796959493929190612d72565b6103d96103d4366004612ea8565b6113e7565b604051908152602001610231565b34801561042e5760405162461bcd60e51b81526020600482015260226024820152600080516020613358833981519152604482019081526137b760f11b6064830152608482fd5b5061016b61043d366004612f05565b6114ea565b3480156104895760405162461bcd60e51b81526020600482015260226024820152600080516020613358833981519152604482019081526137b760f11b6064830152608482fd5b506104ca610498366004612f32565b7f00000000000000000000000000000000000000000000000000000000000000006001600160a01b0390811691161490565b6040519015158152602001610231565b3480156105215760405162461bcd60e51b81526020600482015260226024820152600080516020613358833981519152604482019081526137b760f11b6064830152608482fd5b5061016b61053036600461293f565b611679565b34801561057c5760405162461bcd60e51b81526020600482015260226024820152600080516020613358833981519152604482019081526137b760f11b6064830152608482fd5b5061016b61171f565b3480156105cc5760405162461bcd60e51b81526020600482015260226024820152600080516020613358833981519152604482019081526137b760f11b6064830152608482fd5b506105d5611774565b6040516102319190612f50565b3480156106295760405162461bcd60e51b81526020600482015260226024820152600080516020613358833981519152604482019081526137b760f11b6064830152608482fd5b5060055461063d906001600160a01b031681565b6040516001600160a01b039091168152602001610231565b34801561069c5760405162461bcd60e51b81526020600482015260226024820152600080516020613358833981519152604482019081526137b760f11b6064830152608482fd5b506103d960045481565b3480156106ed5760405162461bcd60e51b81526020600482015260226024820152600080516020613358833981519152604482019081526137b760f11b6064830152608482fd5b506000546001600160a01b031661063d565b3480156107465760405162461bcd60e51b81526020600482015260226024820152600080516020613358833981519152604482019081526137b760f11b6064830152608482fd5b506103d9610755366004612fdb565b6117da565b3480156107a15760405162461bcd60e51b81526020600482015260226024820152600080516020613358833981519152604482019081526137b760f11b6064830152608482fd5b5061016b6107b0366004612f32565b611a55565b3480156107fc5760405162461bcd60e51b81526020600482015260226024820152600080516020613358833981519152604482019081526137b760f11b6064830152608482fd5b506103d961080b3660046130a3565b611ac0565b3480156108575760405162461bcd60e51b81526020600482015260226024820152600080516020613358833981519152604482019081526137b760f11b6064830152608482fd5b506103d96108663660046130a3565b611b2a565b3480156108b25760405162461bcd60e51b81526020600482015260226024820152600080516020613358833981519152604482019081526137b760f11b6064830152608482fd5b506103d960035481565b3480156109035760405162461bcd60e51b81526020600482015260226024820152600080516020613358833981519152604482019081526137b760f11b6064830152608482fd5b5061016b610912366004612f32565b611b85565b34801561095e5760405162461bcd60e51b81526020600482015260226024820152600080516020613358833981519152604482019081526137b760f11b6064830152608482fd5b5061016b61096d3660046130a3565b611c3c565b61016b6109803660046130e6565b611d19565b6109c881604051602401610999919061310e565b60408051601f198184030181529190526020810180516001600160e01b031663104c13eb60e21b179052611f1b565b50565b6000818152600160205260608181846109e8565b60405180910390fd5b856000808281526001602052604090206003015460ff166002811115610a1057610a10612d5c565b14610a2d5760405162461bcd60e51b81526004016109df90613121565b600087815260016020819052604090912080546003820154928201805492936001600160a01b03909216929091610100900460ff169060028501908390610a739061314e565b80601f0160208091040260200160405190810160405280929190818152602001828054610a9f9061314e565b8015610aec5780601f10610ac157610100808354040283529160200191610aec565b820191906000526020600020905b815481529060010190602001808311610acf57829003601f168201915b5050505050925080805480602002602001604051908101604052809291908181526020018280548015610b3e57602002820191906000526020600020905b815481526020019060010190808311610b2a575b5050505050905096509650965096505050509193509193565b6000849052600160205283610b6a611f3c565b6000828152600160205260409020546001600160a01b03908116911614610ba35760405162461bcd60e51b81526004016109df90613188565b846000808281526001602052604090206003015460ff166002811115610bcb57610bcb612d5c565b14610be85760405162461bcd60e51b81526004016109df90613121565b6000855111610c315760405162461bcd60e51b8152602060048201526015602482015274139bc81859191c995cdcd95cc81c1c9bdd9a591959605a1b60448201526064016109df565b8251855114610c975760405162461bcd60e51b815260206004820152602c60248201527f4d7573742062652073616d65206e756d626572206f662061646472657373657360448201526b20616e6420616d6f756e747360a01b60648201526084016109df565b6000805b8651811015611093576000858281518110610cb857610cb86131bf565b602002602001015111610cca57600080fd5b858181518110610cdc57610cdc6131bf565b6020026020010151915060005b60008981526002602052604090205481101561108057600089815260026020526040902080546001600160a01b038516919083908110610d2b57610d2b6131bf565b60009182526020909120600290910201546001600160a01b03160361106e57858281518110610d5c57610d5c6131bf565b6020026020010151600260008b81526020019081526020016000208281548110610d8857610d886131bf565b9060005260206000209060020201600101541015610da557600080fd5b858281518110610db757610db76131bf565b6020026020010151600260008b81526020019081526020016000208281548110610de357610de36131bf565b90600052602060002090600202016001016000828254610e0391906131eb565b90915550506001600160a01b038316610ec057858281518110610e2857610e286131bf565b6020026020010151471015610e4f5760405162461bcd60e51b81526004016109df90613202565b878281518110610e6157610e616131bf565b60200260200101516001600160a01b03166108fc878481518110610e8757610e876131bf565b60200260200101519081150290604051600060405180830381858888f19350505050158015610eba573d6000803e3d6000fd5b5061106e565b6000839050868381518110610ed757610ed76131bf565b60209081029190910101516040516370a0823160e01b81523060048201526001600160a01b038316906370a082319060240160206040518083038186803b158015610f5f5760405162461bcd60e51b81526020600482015260256024820152600080516020613378833981519152604482019081526420636f646560d81b6064830152608482fd5b505afa158015610f73573d6000803e3d6000fd5b505050506040513d601f19601f82011682018060405250810190610f979190613243565b1015610fe55760405162461bcd60e51b815260206004820181905260248201527f436f6e7472616374206d757374206861766520656e6f75676820746f6b656e7360448201526064016109df565b61101c30888581518110610ffb57610ffb6131bf565b6020026020010151836001600160a01b0316611f469092919063ffffffff16565b61106c898481518110611031576110316131bf565b602002602001015188858151811061104b5761104b6131bf565b6020026020010151836001600160a01b031661207e9092919063ffffffff16565b505b806110788161325f565b915050610ce9565b508061108b8161325f565b915050610c9b565b5050505050505050565b600081815260016020526040812060030154606091839182919060ff1660028111156110cb576110cb612d5c565b146110e85760405162461bcd60e51b81526004016109df90613121565b600084815260026020908152604080832080548251818502810185019093528083529193909284015b82821015611159576000848152602090819020604080518082019091526002850290910180546001600160a01b03168252600190810154828401529083529092019101611111565b5050505092505050919050565b6000829052600160205281611179611f3c565b6000828152600160205260409020546001600160a01b039081169116146111b25760405162461bcd60e51b81526004016109df90613188565b826000808281526001602052604090206003015460ff1660028111156111da576111da612d5c565b146111f75760405162461bcd60e51b81526004016109df90613121565b600084815260016020526040902080546001600160a01b0319166001600160a01b0385161781556003015460ff16600281111561123657611236612d5c565b600085815260016020908152604091829020805460059091015492519283526001600160a01b03169187917fcd4204a6cfd0ad4e00073973d9db47cc8ee30485ec5f0fe3c9b23538f2c7d248910160405180910390a450505050565b6000818152600160208190526040822060058101548154600383015460068401549484018054879687966060968796899687968e96949593946001600160a01b039093169360ff8084169492936002890193610100909104909116919084906112fa9061314e565b80601f01602080910402602001604051908101604052809291908181526020018280546113269061314e565b80156113735780601f1061134857610100808354040283529160200191611373565b820191906000526020600020905b81548152906001019060200180831161135657829003601f168201915b50505050509350828054806020026020016040519081016040528092919081815260200182805480156113c557602002820191906000526020600020905b8154815260200190600101908083116113b1575b5050505050925098509850985098509850985098505050919395979092949650565b6000806001600160a01b03841661141f57600034116114185760405162461bcd60e51b81526004016109df90613278565b503461142c565b61142984846120ae565b50815b60006114456004548761143d611f3c565b600080612285565b6000818152600260208181526040808420815180830183526001600160a01b038c811682528185018a81528354600180820186559489529786902092519790960290910180546001600160a01b03191696909116959095178555925193909201929092558051808201909152601081526f5461736b43726561746f72536861726560801b918101919091529091506114de908290611ac0565b509150505b9392505050565b6114f2611f3c565b6001600160a01b031661150d6000546001600160a01b031690565b6001600160a01b0316146115335760405162461bcd60e51b81526004016109df906132ce565b6040516370a0823160e01b8152306004820152829082906001600160a01b038316906370a082319060240160206040518083038186803b1580156115b45760405162461bcd60e51b81526020600482015260256024820152600080516020613378833981519152604482019081526420636f646560d81b6064830152608482fd5b505afa1580156115c8573d6000803e3d6000fd5b505050506040513d601f19601f820116820180604052508101906115ec9190613243565b101561163a5760405162461bcd60e51b815260206004820181905260248201527f436f6e7472616374206d757374206861766520656e6f75676820746f6b656e7360448201526064016109df565b61164e6001600160a01b0382163084611f46565b6116746116636000546001600160a01b031690565b6001600160a01b038316908461207e565b505050565b611681611f3c565b6001600160a01b031661169c6000546001600160a01b031690565b6001600160a01b0316146116c25760405162461bcd60e51b81526004016109df906132ce565b804710156116e25760405162461bcd60e51b81526004016109df90613202565b600080546040516001600160a01b039091169183156108fc02918491818181858888f1935050505015801561171b573d6000803e3d6000fd5b5050565b611727611f3c565b6001600160a01b03166117426000546001600160a01b031690565b6001600160a01b0316146117685760405162461bcd60e51b81526004016109df906132ce565b611772600061249a565b565b6004546000908152600160209081526040918290206002018054835181840281018401909452808452606093928301828280156117d057602002820191906000526020600020905b8154815260200190600101908083116117bc575b5050505050905090565b600081518351146118445760405162461bcd60e51b815260206004820152602e60248201527f4e756d626572206f66206e6f646520706174687320616e642069734f70656e7360448201526d081b5d5cdd08189948195c5d585b60921b60648201526084016109df565b6000805b8451811015611a4d576000806001600088858151811061186a5761186a6131bf565b60209081029190910181015182528101919091526040016000206003015460ff16600281111561189c5761189c612d5c565b036118e257600160008784815181106118b7576118b76131bf565b6020908102919091018101518252810191909152604001600020546001600160a01b0316905061193e565b60016000600160008986815181106118fc576118fc6131bf565b6020026020010151815260200190815260200160002060060154815260200190815260200160002060000160009054906101000a90046001600160a01b031690505b6000611948611f3c565b6001600160a01b0316826001600160a01b03161480156119c15750858381518110611975576119756131bf565b6020026020010151151560016000898681518110611995576119956131bf565b6020026020010151815260200190815260200160002060030160019054906101000a900460ff16151514155b90508015611a38578583815181106119db576119db6131bf565b6020026020010151600160008986815181106119f9576119f96131bf565b6020026020010151815260200190815260200160002060030160016101000a81548160ff0219169083151502179055508380611a349061325f565b9450505b50508080611a459061325f565b915050611848565b509392505050565b611a5d611f3c565b6001600160a01b0316611a786000546001600160a01b031690565b6001600160a01b031614611a9e5760405162461bcd60e51b81526004016109df906132ce565b600580546001600160a01b0319166001600160a01b0392909216919091179055565b60008281526001602052604081206003015483908290819060ff166002811115611aec57611aec612d5c565b03611af8575083611b0c565b506000848152600160205260409020600601545b611b218585611b19611f3c565b600285612285565b95945050505050565b600082815260016020526040812060030154839060029060ff1681811115611b5457611b54612d5c565b14611b5e57600080fd5b600084815260016020526040902060060154611b218585611b7d611f3c565b600185612285565b611b8d611f3c565b6001600160a01b0316611ba86000546001600160a01b031690565b6001600160a01b031614611bce5760405162461bcd60e51b81526004016109df906132ce565b6001600160a01b038116611c335760405162461bcd60e51b815260206004820152602660248201527f4f776e61626c653a206e6577206f776e657220697320746865207a65726f206160448201526564647265737360d01b60648201526084016109df565b6109c88161249a565b6000829052600160205281611c4f611f3c565b6000828152600160205260409020546001600160a01b03908116911614611c885760405162461bcd60e51b81526004016109df90613188565b826000808281526001602052604090206003015460ff166002811115611cb057611cb0612d5c565b14611ccd5760405162461bcd60e51b81526004016109df90613121565b60008481526001602081815260409092208551611cf2939190920191908601906127cc565b5060008481526001602052604090206003015460ff16600281111561123657611236612d5c565b6000838152600160205260408120600301548491829160ff166002811115611d4357611d43612d5c565b14611d605760405162461bcd60e51b81526004016109df90613121565b60006001600160a01b038516611d975760003411611d905760405162461bcd60e51b81526004016109df90613278565b5034611da4565b611da185856120ae565b50825b60005b600087815260026020526040902054811015611e6a57600087815260026020526040902080546001600160a01b038816919083908110611de957611de96131bf565b60009182526020909120600290910201546001600160a01b031603611e58576000878152600260205260409020805483919083908110611e2b57611e2b6131bf565b90600052602060002090600202016001016000828254611e4b9190613303565b90915550611ec792505050565b80611e628161325f565b915050611da7565b50600086815260026020818152604080842081518083019092526001600160a01b038a81168352828401968752815460018082018455928752939095209151929093020180546001600160a01b0319169190931617825591519101555b5050505050565b60007f00000000000000000000000000000000000000000000000000000000000000006001600160a01b03163303611f0d575060131936013560601c90565b503390565b905090565b3390565b80516a636f6e736f6c652e6c6f67602083016000808483855afa5050505050565b6000611f12611ece565b604051636eb1769f60e11b81523060048201526001600160a01b038381166024830152600091839186169063dd62ed3e9060440160206040518083038186803b158015611fd05760405162461bcd60e51b81526020600482015260256024820152600080516020613378833981519152604482019081526420636f646560d81b6064830152608482fd5b505afa158015611fe4573d6000803e3d6000fd5b505050506040513d601f19601f820116820180604052508101906120089190613243565b6120129190613303565b6040516001600160a01b03851660248201526044810182905290915061207890859063095ea7b360e01b906064015b60408051601f198184030181529190526020810180516001600160e01b03166001600160e01b0319909316929092179091526124ea565b50505050565b6040516001600160a01b03831660248201526044810182905261167490849063a9059cbb60e01b90606401612041565b6000826001600160a01b03163b116121195760405162461bcd60e51b815260206004820152602860248201527f5f746f6b656e41646472657373206d757374206265206120636f6e7472616374604482015267206164647265737360c01b60648201526084016109df565b6000811161218f5760405162461bcd60e51b815260206004820152603860248201527f455243323020746f6b656e206d7573742068617665205f616d6f756e7420746f60448201527f20637265617465207461736b207769746820626f756e7479000000000000000060648201526084016109df565b81816001600160a01b0382166370a082316121a8611f3c565b6040516001600160e01b031960e084901b1681526001600160a01b03909116600482015260240160206040518083038186803b1580156122255760405162461bcd60e51b81526020600482015260256024820152600080516020613378833981519152604482019081526420636f646560d81b6064830152608482fd5b505afa158015612239573d6000803e3d6000fd5b505050506040513d601f19601f8201168201806040525081019061225d9190613243565b101561226857600080fd5b611674612273611f3c565b6001600160a01b0383169030856125bc565b60008085511161229457600080fd5b600061229e6125f4565b9050600087826040516020016122be929190918252602082015260400190565b60408051601f198184030181528282528051602091820120610100840183526001600160a01b038a1684528184018b905282516000815291820183529183015291506060810186600281111561231657612316612d5c565b8152600160208083018290526040808401869052606084018d90526080909301889052600085815282825292909220835181546001600160a01b0319166001600160a01b039091161781558383015180519193612378938501929101906127cc565b5060408201518051612394916002840191602090910190612850565b50606082015160038201805460ff191660018360028111156123b8576123b8612d5c565b02179055506080820151600380830180549215156101000261ff00199093169290921790915560a0830151600483015560c0830151600583015560e090920151600690910155600089815260016020818152604083206002018054808401825590845290832001849055825490929190612433908490613303565b90915550859050600281111561244b5761244b612d5c565b866001600160a01b0316827fcd4204a6cfd0ad4e00073973d9db47cc8ee30485ec5f0fe3c9b23538f2c7d2488b60405161248791815260200190565b60405180910390a4979650505050505050565b600080546001600160a01b038381166001600160a01b0319831681178455604051919092169283917f8be0079c531659141344cd1fd0a4f28419497f9722a3daafe3b4186f6b6457e09190a35050565b600061253f826040518060400160405280602081526020017f5361666545524332303a206c6f772d6c6576656c2063616c6c206661696c6564815250856001600160a01b031661264b9092919063ffffffff16565b805190915015611674578080602001905181019061255d919061331b565b6116745760405162461bcd60e51b815260206004820152602a60248201527f5361666545524332303a204552433230206f7065726174696f6e20646964206e6044820152691bdd081cdd58d8d9595960b21b60648201526084016109df565b6040516001600160a01b03808516602483015283166044820152606481018290526120789085906323b872dd60e01b90608401612041565b600060035460016126059190613303565b61260d611f3c565b6040516020016126309291909182526001600160a01b0316602082015260400190565b60405160208183030381529060405280519060200120905090565b606061265a8484600085612662565b949350505050565b6060824710156126c35760405162461bcd60e51b815260206004820152602660248201527f416464726573733a20696e73756666696369656e742062616c616e636520666f6044820152651c8818d85b1b60d21b60648201526084016109df565b6001600160a01b0385163b61271a5760405162461bcd60e51b815260206004820152601d60248201527f416464726573733a2063616c6c20746f206e6f6e2d636f6e747261637400000060448201526064016109df565b600080866001600160a01b03168587604051612736919061333b565b60006040518083038185875af1925050503d8060008114612773576040519150601f19603f3d011682016040523d82523d6000602084013e612778565b606091505b5091509150612788828286612793565b979650505050505050565b606083156127a25750816114e3565b8251156127b25782518084602001fd5b8160405162461bcd60e51b81526004016109df919061310e565b8280546127d89061314e565b90600052602060002090601f0160209004810192826127fa5760008555612840565b82601f1061281357805160ff1916838001178555612840565b82800160010185558215612840579182015b82811115612840578251825591602001919060010190612825565b5061284c92915061288a565b5090565b8280548282559060005260206000209081019282156128405791602002820182811115612840578251825591602001919060010190612825565b5b8082111561284c576000815560010161288b565b60405162461bcd60e51b815260206004820152602260248201527f414249206465636f64696e673a207475706c65206461746120746f6f2073686f6044820152611c9d60f21b6064820152608481fd5b60405162461bcd60e51b815260206004820152602260248201527f414249206465636f64696e673a20696e76616c6964207475706c65206f666673604482015261195d60f21b6064820152608481fd5b6000602082840312156129545761295461289f565b5035919050565b60005b8381101561297657818101518382015260200161295e565b838111156120785750506000910152565b6000815180845261299f81602086016020860161295b565b601f01601f19169290920160200192915050565b600081518084526020808501945080840160005b838110156129e3578151875295820195908201906001016129c7565b509495945050505050565b6001600160a01b0385168152608060208201819052600090612a1290830186612987565b8415156040840152828103606084015261278881856129b3565b60405162461bcd60e51b815260206004820152602b60248201527f414249206465636f64696e673a20696e76616c69642063616c6c64617461206160448201526a1c9c985e481bd9999cd95d60aa1b6064820152608481fd5b634e487b7160e01b600052604160045260246000fd5b604051601f8201601f1916810167ffffffffffffffff81118282101715612ac457612ac4612a85565b604052919050565b600067ffffffffffffffff821115612ae657612ae6612a85565b5060051b60200190565b60405162461bcd60e51b815260206004820152602b60248201527f414249206465636f64696e673a20696e76616c69642063616c6c64617461206160448201526a727261792073747269646560a81b6064820152608481fd5b80356001600160a01b0381168114612b6057600080fd5b919050565b600082601f830112612b7957612b79612a2c565b81356020612b8e612b8983612acc565b612a9b565b82815260059290921b84018101918181019086841115612bb057612bb0612af0565b8286015b84811015612bd257612bc581612b49565b8352918301918301612bb4565b509695505050505050565b60008060008060808587031215612bf657612bf661289f565b8435935060208086013567ffffffffffffffff80821115612c1957612c196128ef565b612c2589838a01612b65565b95506040880135915080821115612c3e57612c3e6128ef565b612c4a89838a01612b65565b94506060880135915080821115612c6357612c636128ef565b508601601f81018813612c7857612c78612a2c565b8035612c86612b8982612acc565b81815260059190911b8201830190838101908a831115612ca857612ca8612af0565b928401925b82841015612cc657833582529284019290840190612cad565b979a9699509497505050505050565b602080825282518282018190526000919060409081850190868401855b82811015612d2057815180516001600160a01b03168552860151868501529284019290850190600101612cf2565b5091979650505050505050565b60008060408385031215612d4357612d4361289f565b82359150612d5360208401612b49565b90509250929050565b634e487b7160e01b600052602160045260246000fd5b8781526001600160a01b0387166020820152600060038710612da457634e487b7160e01b600052602160045260246000fd5b86604083015260e06060830152612dbe60e0830187612987565b8281036080840152612dd081876129b3565b94151560a0840152505060c0015295945050505050565b600082601f830112612dfb57612dfb612a2c565b8135602067ffffffffffffffff821115612e1757612e17612a85565b612e29601f8301601f19168201612a9b565b8281528582848701011115612e8d5760405162461bcd60e51b815260048101839052602760248201527f414249206465636f64696e673a20696e76616c69642062797465206172726179604482015266040d8cadccee8d60cb1b6064820152608481fd5b82828601838301376000928101909101919091529392505050565b600080600060608486031215612ec057612ec061289f565b833567ffffffffffffffff811115612eda57612eda6128ef565b612ee686828701612de7565b935050612ef560208501612b49565b9150604084013590509250925092565b60008060408385031215612f1b57612f1b61289f565b612f2483612b49565b946020939093013593505050565b600060208284031215612f4757612f4761289f565b6114e382612b49565b6020815260006114e360208301846129b3565b80151581146109c857600080fd5b600082601f830112612f8557612f85612a2c565b81356020612f95612b8983612acc565b82815260059290921b84018101918181019086841115612fb757612fb7612af0565b8286015b84811015612bd2578035612fce81612f63565b8352918301918301612fbb565b60008060408385031215612ff157612ff161289f565b823567ffffffffffffffff8082111561300c5761300c6128ef565b818501915085601f83011261302357613023612a2c565b81356020613033612b8983612acc565b82815260059290921b8401810191818101908984111561305557613055612af0565b948201945b838610156130735785358252948201949082019061305a565b9650508601359250508082111561308c5761308c6128ef565b5061309985828601612f71565b9150509250929050565b600080604083850312156130b9576130b961289f565b82359150602083013567ffffffffffffffff8111156130da576130da6128ef565b61309985828601612de7565b6000806000606084860312156130fe576130fe61289f565b83359250612ef560208501612b49565b6020815260006114e36020830184612987565b6020808252601390820152724e6f6465206d7573742062652061207461736b60681b604082015260600190565b600181811c9082168061316257607f821691505b60208210810361318257634e487b7160e01b600052602260045260246000fd5b50919050565b6020808252601d908201527f4f6e6c79206e6f6465206f776e65722063616e2065646974206e6f6465000000604082015260600190565b634e487b7160e01b600052603260045260246000fd5b634e487b7160e01b600052601160045260246000fd5b6000828210156131fd576131fd6131d5565b500390565b60208082526021908201527f436f6e7472616374206d757374206861766520656e6f7567682062616c616e636040820152606560f81b606082015260800190565b6000602082840312156132585761325861289f565b5051919050565b600060018201613271576132716131d5565b5060010190565b60208082526036908201527f5472616e73616374696f6e206d75737420686176652076616c756520746f20636040820152757265617465207461736b207769746820626f756e747960501b606082015260800190565b6020808252818101527f4f776e61626c653a2063616c6c6572206973206e6f7420746865206f776e6572604082015260600190565b60008219821115613316576133166131d5565b500190565b6000602082840312156133305761333061289f565b81516114e381612f63565b6000825161334d81846020870161295b565b919091019291505056fe45746865722073656e7420746f206e6f6e2d70617961626c652066756e63746954617267657420636f6e747261637420646f6573206e6f7420636f6e7461696ea2646970667358221220ef551eb18c917ae16cab71ce5ccd14a21ad47daddd6f44f1ff4467c2ece4368864736f6c634300080d0033",
    "linkReferences": {}
  },
  "methodIdentifiers": {
    "addShare(bytes32,bytes)": "e985ccd7",
    "addSolution(bytes32,bytes)": "ee5e9d9e",
    "addTask(bytes,address,uint256)": "5357d429",
    "getAllTasks()": "779900b4",
    "getBountiesForTask(bytes32)": "4498c6cf",
    "getNode(bytes32)": "50c946fe",
    "getTask(bytes32)": "15a29035",
    "increaseBounty(bytes32,address,uint256)": "fe949a11",
    "isTrustedForwarder(address)": "572b6c05",
    "nodesCount()": "f1a3c5b3",
    "owner()": "8da5cb5b",
    "payoutTask(bytes32,address[],address[],uint256[])": "3047c26d",
    "renounceOwnership()": "715018a6",
    "rootTaskPath()": "8973df07",
    "setTrustedForwarder(address)": "da742228",
    "transferOwnership(address)": "f2fde38b",
    "trustedForwarder()": "7da0a877",
    "updateNodesIsOpen(bytes32[],bool[])": "d03388db",
    "updateTaskData(bytes32,bytes)": "fe408658",
    "updateTaskOwner(bytes32,address)": "4723218d",
    "withdrawToOwner(uint256)": "6a5bbc1d",
    "withdrawTokenToOwner(address,uint256)": "56a6338f"
  },
  "id": 14
}