{
  "abi": [
    {
      "inputs": [
        {
          "internalType": "address",
          "name": "trustedForwarder",
          "type": "address"
        }
      ],
      "stateMutability": "nonpayable",
      "type": "constructor"
    },
    {
      "anonymous": false,
      "inputs": [
        {
          "indexed": true,
          "internalType": "address",
          "name": "owner",
          "type": "address"
        },
        {
          "indexed": true,
          "internalType": "bytes32",
          "name": "parent",
          "type": "bytes32"
        },
        {
          "indexed": false,
          "internalType": "bytes32",
          "name": "path",
          "type": "bytes32"
        },
        {
          "indexed": false,
          "internalType": "enum NodeType",
          "name": "nodeType",
          "type": "uint8"
        }
      ],
      "name": "NewNodeCreated",
      "type": "event"
    },
    {
      "anonymous": false,
      "inputs": [
        {
          "indexed": true,
          "internalType": "address",
          "name": "previousOwner",
          "type": "address"
        },
        {
          "indexed": true,
          "internalType": "address",
          "name": "newOwner",
          "type": "address"
        }
      ],
      "name": "OwnershipTransferred",
      "type": "event"
    },
    {
      "inputs": [
        {
          "internalType": "bytes32",
          "name": "_parent",
          "type": "bytes32"
        },
        {
          "internalType": "bytes",
          "name": "_data",
          "type": "bytes"
        }
      ],
      "name": "addShare",
      "outputs": [
        {
          "internalType": "bytes32",
          "name": "",
          "type": "bytes32"
        }
      ],
      "stateMutability": "nonpayable",
      "type": "function"
    },
    {
      "inputs": [
        {
          "internalType": "bytes32",
          "name": "_parent",
          "type": "bytes32"
        },
        {
          "internalType": "bytes",
          "name": "_data",
          "type": "bytes"
        }
      ],
      "name": "addSolution",
      "outputs": [
        {
          "internalType": "bytes32",
          "name": "",
          "type": "bytes32"
        }
      ],
      "stateMutability": "nonpayable",
      "type": "function"
    },
    {
      "inputs": [
        {
          "internalType": "bytes",
          "name": "_data",
          "type": "bytes"
        },
        {
          "internalType": "address",
          "name": "_tokenAddress",
          "type": "address"
        },
        {
          "internalType": "uint256",
          "name": "_amount",
          "type": "uint256"
        }
      ],
      "name": "addTask",
      "outputs": [
        {
          "internalType": "bytes32",
          "name": "",
          "type": "bytes32"
        }
      ],
      "stateMutability": "payable",
      "type": "function"
    },
    {
      "inputs": [],
      "name": "getAllTasks",
      "outputs": [
        {
          "internalType": "bytes32[]",
          "name": "",
          "type": "bytes32[]"
        }
      ],
      "stateMutability": "view",
      "type": "function"
    },
    {
      "inputs": [
        {
          "internalType": "bytes32",
          "name": "_path",
          "type": "bytes32"
        }
      ],
      "name": "getNode",
      "outputs": [
        {
          "internalType": "bytes32",
          "name": "",
          "type": "bytes32"
        },
        {
          "internalType": "address",
          "name": "",
          "type": "address"
        },
        {
          "internalType": "enum NodeType",
          "name": "",
          "type": "uint8"
        },
        {
          "internalType": "bytes",
          "name": "",
          "type": "bytes"
        },
        {
          "internalType": "bytes32[]",
          "name": "",
          "type": "bytes32[]"
        },
        {
          "internalType": "bool",
          "name": "",
          "type": "bool"
        },
        {
          "internalType": "bytes32",
          "name": "",
          "type": "bytes32"
        }
      ],
      "stateMutability": "view",
      "type": "function"
    },
    {
      "inputs": [
        {
          "internalType": "bytes32",
          "name": "_path",
          "type": "bytes32"
        }
      ],
      "name": "getTask",
      "outputs": [
        {
          "internalType": "address",
          "name": "",
          "type": "address"
        },
        {
          "internalType": "bytes",
          "name": "",
          "type": "bytes"
        },
        {
          "internalType": "bool",
          "name": "",
          "type": "bool"
        },
        {
          "internalType": "bytes32[]",
          "name": "",
          "type": "bytes32[]"
        },
        {
          "internalType": "address",
          "name": "",
          "type": "address"
        },
        {
          "internalType": "uint256",
          "name": "",
          "type": "uint256"
        }
      ],
      "stateMutability": "view",
      "type": "function"
    },
    {
      "inputs": [
        {
          "internalType": "bytes32",
          "name": "_path",
          "type": "bytes32"
        }
      ],
      "name": "hasSenderContributedToAnySubnode",
      "outputs": [
        {
          "internalType": "bool",
          "name": "",
          "type": "bool"
        }
      ],
      "stateMutability": "view",
      "type": "function"
    },
    {
      "inputs": [
        {
          "internalType": "address",
          "name": "forwarder",
          "type": "address"
        }
      ],
      "name": "isTrustedForwarder",
      "outputs": [
        {
          "internalType": "bool",
          "name": "",
          "type": "bool"
        }
      ],
      "stateMutability": "view",
      "type": "function"
    },
    {
      "inputs": [],
      "name": "nodesCount",
      "outputs": [
        {
          "internalType": "uint256",
          "name": "",
          "type": "uint256"
        }
      ],
      "stateMutability": "view",
      "type": "function"
    },
    {
      "inputs": [],
      "name": "owner",
      "outputs": [
        {
          "internalType": "address",
          "name": "",
          "type": "address"
        }
      ],
      "stateMutability": "view",
      "type": "function"
    },
    {
      "inputs": [
        {
          "internalType": "bytes32",
          "name": "taskPath",
          "type": "bytes32"
        },
        {
          "internalType": "address[]",
          "name": "addresses",
          "type": "address[]"
        },
        {
          "internalType": "uint256[]",
          "name": "amounts",
          "type": "uint256[]"
        }
      ],
      "name": "payoutTask",
      "outputs": [],
      "stateMutability": "nonpayable",
      "type": "function"
    },
    {
      "inputs": [],
      "name": "renounceOwnership",
      "outputs": [],
      "stateMutability": "nonpayable",
      "type": "function"
    },
    {
      "inputs": [],
      "name": "rootTaskPath",
      "outputs": [
        {
          "internalType": "bytes32",
          "name": "",
          "type": "bytes32"
        }
      ],
      "stateMutability": "view",
      "type": "function"
    },
    {
      "inputs": [
        {
          "internalType": "address",
          "name": "newOwner",
          "type": "address"
        }
      ],
      "name": "transferOwnership",
      "outputs": [],
      "stateMutability": "nonpayable",
      "type": "function"
    },
    {
      "inputs": [
        {
          "internalType": "bytes32[]",
          "name": "_paths",
          "type": "bytes32[]"
        },
        {
          "internalType": "bool[]",
          "name": "_isOpens",
          "type": "bool[]"
        }
      ],
      "name": "updateNodesIsOpen",
      "outputs": [
        {
          "internalType": "uint256",
          "name": "",
          "type": "uint256"
        }
      ],
      "stateMutability": "nonpayable",
      "type": "function"
    },
    {
      "stateMutability": "payable",
      "type": "receive"
    }
  ],
  "bytecode": {
    "object": "0x60a06040526000600355348015620000635760405162461bcd60e51b815260206004820152602260248201527f45746865722073656e7420746f206e6f6e2d70617961626c652066756e637469604482019081526137b760f11b6064830152608482fd5b5060405162003016380380620030168339810160408190526200008691620005fe565b6001600160a01b038116608052620000a7620000a162000132565b6200014e565b620000de600060405180604001604052806008815260200167526f6f745461736b60c01b815250336000806200019e60201b60201c565b6004819055506200011360405180606001604052806026815260200162002ff060269139620003c860201b620006ea1760201c565b6200012b6004546200041660201b620018301760201c565b506200077f565b6000620001496200046260201b620018751760201c565b905090565b600080546001600160a01b038381166001600160a01b0319831681178455604051919092169283917f8be0079c531659141344cd1fd0a4f28419497f9722a3daafe3b4186f6b6457e09190a35050565b600080855111620001ae57600080fd5b6000620001ba6200049a565b905060008782604051602001620001db929190918252602082015260400190565b604051602081830303815290604052805190602001209050604051806101000160405280828152602001898152602001858152602001876001600160a01b031681526020018660028111156200023557620002356200067b565b815260208082018a905260408051600080825292810182529201919050815260016020918201819052600084815260028084526040918290208551815593850151928401929092558301518282015560608301516003830180546001600160a01b039092166001600160a01b031983168117825560808601519391926001600160a81b0319161790600160a01b908490811115620002d757620002d76200067b565b021790555060a08201518051620002f99160048401916020909101906200051b565b5060c0820151805162000317916005840191602090910190620005aa565b5060e091909101516006909101805460ff19169115159190911790556000888152600260209081526040822060050180546001818101835591845291832090910183905560038054919290916200037090849062000691565b9250508190555087866001600160a01b03167f92f79e4ee75e2f5728dfd026fd65e2fd7e6677ce4945b6e08f0a4d1d81da61a48388604051620003b5929190620006b8565b60405180910390a3979650505050505050565b6200041381604051602401620003df9190620006eb565b60408051601f198184030181529190526020810180516001600160e01b0390811663104c13eb60e21b17909152620004f616565b50565b62000413816040516024016200042e91815260200190565b60408051601f198184030181529190526020810180516001600160e01b039081166327b7cf8560e01b17909152620004f616565b6080516000906001600160a01b0316330362000485575060131936013560601c90565b620001496200051760201b620018be1760201c565b60006003546001620004ad919062000691565b620004b762000132565b604051602001620004db9291909182526001600160a01b0316602082015260400190565b60405160208183030381529060405280519060200120905090565b80516a636f6e736f6c652e6c6f67602083016000808483855afa5050505050565b3390565b828054620005299062000743565b90600052602060002090601f0160209004810192826200054d576000855562000598565b82601f106200056857805160ff191683800117855562000598565b8280016001018555821562000598579182015b82811115620005985782518255916020019190600101906200057b565b50620005a6929150620005e7565b5090565b828054828255906000526020600020908101928215620005985791602002820182811115620005985782518255916020019190600101906200057b565b5b80821115620005a65760008155600101620005e8565b6000602082840312156200065c5760405162461bcd60e51b815260206004820152602260248201527f414249206465636f64696e673a207475706c65206461746120746f6f2073686f6044820152611c9d60f21b6064820152608481fd5b81516001600160a01b03811681146200067457600080fd5b9392505050565b634e487b7160e01b600052602160045260246000fd5b60008219821115620006b357634e487b7160e01b600052601160045260246000fd5b500190565b8281526040810160038310620006de57634e487b7160e01b600052602160045260246000fd5b8260208301529392505050565b600060208083528351808285015260005b818110156200071a57858101830151858201604001528201620006fc565b818111156200072d576000604083870101525b50601f01601f1916929092016040019392505050565b600181811c908216806200075857607f821691505b6020821081036200077957634e487b7160e01b600052602260045260246000fd5b50919050565b60805161284e620007a2600039600081816103310152611879015261284e6000f3fe6080604052600436106100ec5760003560e01c80638973df071161008a578063e985ccd711610059578063e985ccd714610588578063ee5e9d9e146105e3578063f1a3c5b31461063e578063f2fde38b1461068f57610120565b80638973df071461041e5780638da5cb5b1461046f578063c059a6e1146104d2578063d03388db1461052d57610120565b80635357d429116100c65780635357d429146102b8578063572b6c05146102d9578063715018a614610371578063779900b4146103c157610120565b806315a290351461017957806327b8d6d7146101ef57806350c946fe1461024a57610120565b366101205761011e6040518060400160405280600c81526020016b0a48a868a92ac8a88408aa8960a31b8152506106ea565b005b60405162461bcd60e51b815260206004820152602960248201527f556e6b6e6f776e207369676e617475726520616e64206e6f2066616c6c62616360448201908152681ac81919599a5b995960ba1b6064830152608482fd5b3480156101c05760405162461bcd60e51b815260206004820152602260248201526000805160206127f9833981519152604482019081526137b760f11b6064830152608482fd5b506101d46101cf366004611fe3565b610730565b6040516101e696959493929190612092565b60405180910390f35b3480156102365760405162461bcd60e51b815260206004820152602260248201526000805160206127f9833981519152604482019081526137b760f11b6064830152608482fd5b5061011e61024536600461228f565b610891565b3480156102915760405162461bcd60e51b815260206004820152602260248201526000805160206127f9833981519152604482019081526137b760f11b6064830152608482fd5b506102a56102a0366004611fe3565b610d36565b6040516101e697969594939291906123a1565b6102cb6102c63660046124c0565b610e92565b6040519081526020016101e6565b3480156103205760405162461bcd60e51b815260206004820152602260248201526000805160206127f9833981519152604482019081526137b760f11b6064830152608482fd5b5061036161032f36600461251d565b7f00000000000000000000000000000000000000000000000000000000000000006001600160a01b0390811691161490565b60405190151581526020016101e6565b3480156103b85760405162461bcd60e51b815260206004820152602260248201526000805160206127f9833981519152604482019081526137b760f11b6064830152608482fd5b5061011e6111a9565b3480156104085760405162461bcd60e51b815260206004820152602260248201526000805160206127f9833981519152604482019081526137b760f11b6064830152608482fd5b5061041161122e565b6040516101e6919061253b565b3480156104655760405162461bcd60e51b815260206004820152602260248201526000805160206127f9833981519152604482019081526137b760f11b6064830152608482fd5b506102cb60045481565b3480156104b65760405162461bcd60e51b815260206004820152602260248201526000805160206127f9833981519152604482019081526137b760f11b6064830152608482fd5b506000546040516001600160a01b0390911681526020016101e6565b3480156105195760405162461bcd60e51b815260206004820152602260248201526000805160206127f9833981519152604482019081526137b760f11b6064830152608482fd5b50610361610528366004611fe3565b611294565b3480156105745760405162461bcd60e51b815260206004820152602260248201526000805160206127f9833981519152604482019081526137b760f11b6064830152608482fd5b506102cb6105833660046125c6565b6113f4565b3480156105cf5760405162461bcd60e51b815260206004820152602260248201526000805160206127f9833981519152604482019081526137b760f11b6064830152608482fd5b506102cb6105de36600461268e565b611672565b34801561062a5760405162461bcd60e51b815260206004820152602260248201526000805160206127f9833981519152604482019081526137b760f11b6064830152608482fd5b506102cb61063936600461268e565b6116e6565b3480156106855760405162461bcd60e51b815260206004820152602260248201526000805160206127f9833981519152604482019081526137b760f11b6064830152608482fd5b506102cb60035481565b3480156106d65760405162461bcd60e51b815260206004820152602260248201526000805160206127f9833981519152604482019081526137b760f11b6064830152608482fd5b5061011e6106e536600461251d565b611749565b61072d816040516024016106fe91906126d1565b60408051601f198184030181529190526020810180516001600160e01b031663104c13eb60e21b1790526118c2565b50565b600081815260026020526060818181808661074f565b60405180910390fd5b600088815260026020908152604080832060019283905292206003830154600684015482549383015460048601805494956001600160a01b0394851695919460ff90941693600589019391169185906107a7906126e4565b80601f01602080910402602001604051908101604052809291908181526020018280546107d3906126e4565b80156108205780601f106107f557610100808354040283529160200191610820565b820191906000526020600020905b81548152906001019060200180831161080357829003601f168201915b505050505094508280548060200260200160405190810160405280929190818152602001828054801561087257602002820191906000526020600020905b81548152602001906001019080831161085e575b5050505050925098509850985098509850985050505091939550919395565b60008390526002602052826108a46118e3565b6000828152600260205260409020600301546001600160a01b039081169116146109105760405162461bcd60e51b815260206004820152601d60248201527f4f6e6c79206e6f6465206f776e65722063616e2065646974206e6f64650000006044820152606401610746565b60008351116109595760405162461bcd60e51b8152602060048201526015602482015274139bc81859191c995cdcd95cc81c1c9bdd9a591959605a1b6044820152606401610746565b81518351146109bf5760405162461bcd60e51b815260206004820152602c60248201527f4d7573742062652073616d65206e756d626572206f662061646472657373657360448201526b20616e6420616d6f756e747360a01b6064820152608401610746565b600084815260016020818152604092839020835180850190945280546001600160a01b03168452909101549082018190526109f957600080fd5b8051600090815b8651811015610cf7576000868281518110610a1d57610a1d612718565b602002602001015111610a2f57600080fd5b610a5b868281518110610a4457610a44612718565b6020026020010151846118ed90919063ffffffff16565b92508360200151831115610a6e57600080fd5b83516001600160a01b0316610b6157858181518110610a8f57610a8f612718565b6020026020010151471015610af05760405162461bcd60e51b815260206004820152602160248201527f436f6e7472616374206d757374206861766520656e6f7567682062616c616e636044820152606560f81b6064820152608401610746565b868181518110610b0257610b02612718565b60200260200101516001600160a01b03166108fc878381518110610b2857610b28612718565b60200260200101519081150290604051600060405180830381858888f19350505050158015610b5b573d6000803e3d6000fd5b50610ce5565b858181518110610b7357610b73612718565b60209081029190910101516040516370a0823160e01b81523060048201526001600160a01b038416906370a082319060240160206040518083038186803b158015610c0d5760405162461bcd60e51b815260206004820152602560248201527f54617267657420636f6e747261637420646f6573206e6f7420636f6e7461696e604482019081526420636f646560d81b6064830152608482fd5b505afa158015610c21573d6000803e3d6000fd5b505050506040513d601f19601f82011682018060405250810190610c45919061272e565b1015610c935760405162461bcd60e51b815260206004820181905260248201527f436f6e7472616374206d757374206861766520656e6f75676820746f6b656e736044820152606401610746565b610ce530888381518110610ca957610ca9612718565b6020026020010151888481518110610cc357610cc3612718565b6020026020010151856001600160a01b03166118f9909392919063ffffffff16565b80610cef81612760565b915050610a00565b5060008781526001602081905260409091200154610d16908390612779565b600097885260016020819052604090982090970196909655505050505050565b600081815260026020528080606080828087600089815260026020819052604090912060018101546003820154600683015493830154600484018054949593946001600160a01b0384169460ff600160a01b9095048516949293600589019391909116918490610da5906126e4565b80601f0160208091040260200160405190810160405280929190818152602001828054610dd1906126e4565b8015610e1e5780601f10610df357610100808354040283529160200191610e1e565b820191906000526020600020905b815481529060010190602001808311610e0157829003601f168201915b5050505050935082805480602002602001604051908101604052809291908181526020018280548015610e7057602002820191906000526020600020905b815481526020019060010190808311610e5c575b5050505050925098509850985098509850985098505050919395979092949650565b6000806001600160a01b038416610f195760003411610f125760405162461bcd60e51b815260206004820152603660248201527f5472616e73616374696f6e206d75737420686176652076616c756520746f20636044820152757265617465207461736b207769746820626f756e747960501b6064820152608401610746565b5034611107565b6000846001600160a01b03163b11610f845760405162461bcd60e51b815260206004820152602860248201527f5f746f6b656e41646472657373206d757374206265206120636f6e7472616374604482015267206164647265737360c01b6064820152608401610746565b60008311610ffa5760405162461bcd60e51b815260206004820152603860248201527f455243323020746f6b656e206d7573742068617665205f616d6f756e7420746f60448201527f20637265617465207461736b207769746820626f756e747900000000000000006064820152608401610746565b83816001600160a01b0382166370a082316110136118e3565b6040516001600160e01b031960e084901b1681526001600160a01b03909116600482015260240160206040518083038186803b1580156110a25760405162461bcd60e51b815260206004820152602560248201527f54617267657420636f6e747261637420646f6573206e6f7420636f6e7461696e604482019081526420636f646560d81b6064830152608482fd5b505afa1580156110b6573d6000803e3d6000fd5b505050506040513d601f19601f820116820180604052508101906110da919061272e565b10156110e557600080fd5b8391506111056110f36118e3565b6001600160a01b0383169030856118f9565b505b6000611120600454876111186118e3565b600080611959565b6040805180820182526001600160a01b03888116825260208083018781526000868152600180845290869020945185546001600160a01b03191694169390931784555192909101919091558151808301909252601082526f5461736b43726561746f72536861726560801b9082015290915061119d908290611672565b509150505b9392505050565b6111b16118e3565b6001600160a01b03166111cc6000546001600160a01b031690565b6001600160a01b0316146112225760405162461bcd60e51b815260206004820181905260248201527f4f776e61626c653a2063616c6c6572206973206e6f7420746865206f776e65726044820152606401610746565b61122c6000611b71565b565b60045460009081526002602090815260409182902060050180548351818402810184019094528084526060939283018282801561128a57602002820191906000526020600020905b815481526020019060010190808311611276575b5050505050905090565b60008181526002602090815260408083206005018054825181850281018501909352808352859385939291908301828280156112ef57602002820191906000526020600020905b8154815260200190600101908083116112db575b5050505050905060005b81518110156113e75761130a6118e3565b6001600160a01b03166002600084848151811061132957611329612718565b6020908102919091018101518252810191909152604001600020600301546001600160a01b031603611360576001935050506113ee565b60006002600084848151811061137857611378612718565b602002602001015181526020019081526020016000206005018054905011156113d55760006113bf8383815181106113b2576113b2612718565b6020026020010151611294565b905080156113d357600194505050506113ee565b505b806113df81612760565b9150506112f9565b5060009250505b50919050565b6000815183511461145e5760405162461bcd60e51b815260206004820152602e60248201527f4e756d626572206f66206e6f646520706174687320616e642069734f70656e7360448201526d081b5d5cdd08189948195c5d585b60921b6064820152608401610746565b6000805b845181101561166a576000806002600088858151811061148457611484612718565b6020026020010151815260200190815260200160002060030160149054906101000a900460ff1660028111156114bc576114bc612369565b0361150557600260008784815181106114d7576114d7612718565b6020908102919091018101518252810191909152604001600020600301546001600160a01b03169050611561565b600260006002600089868151811061151f5761151f612718565b6020026020010151815260200190815260200160002060020154815260200190815260200160002060030160009054906101000a90046001600160a01b031690505b600061156b6118e3565b6001600160a01b0316826001600160a01b03161480156115de575085838151811061159857611598612718565b60200260200101511515600260008986815181106115b8576115b8612718565b60209081029190910181015182528101919091526040016000206006015460ff16151514155b90508015611655578583815181106115f8576115f8612718565b60200260200101516002600089868151811061161657611616612718565b6020026020010151815260200190815260200160002060060160006101000a81548160ff021916908315150217905550838061165190612760565b9450505b5050808061166290612760565b915050611462565b509392505050565b6000828152600260208190526040822060030154849183918291600160a01b90910460ff16908111156116a7576116a7612369565b036116b35750836116c8565b50600084815260026020819052604090912001545b6116dd85856116d56118e3565b600285611959565b95945050505050565b6000828152600260208190526040822060030154849190600160a01b900460ff168181111561171757611717612369565b1461172157600080fd5b600084815260026020819052604090912001546116dd85856117416118e3565b600185611959565b6117516118e3565b6001600160a01b031661176c6000546001600160a01b031690565b6001600160a01b0316146117c25760405162461bcd60e51b815260206004820181905260248201527f4f776e61626c653a2063616c6c6572206973206e6f7420746865206f776e65726044820152606401610746565b6001600160a01b0381166118275760405162461bcd60e51b815260206004820152602660248201527f4f776e61626c653a206e6577206f776e657220697320746865207a65726f206160448201526564647265737360d01b6064820152608401610746565b61072d81611b71565b61072d8160405160240161184691815260200190565b60408051601f198184030181529190526020810180516001600160e01b03166327b7cf8560e01b1790526118c2565b60007f00000000000000000000000000000000000000000000000000000000000000006001600160a01b031633036118b4575060131936013560601c90565b503390565b905090565b3390565b80516a636f6e736f6c652e6c6f67602083016000808483855afa5050505050565b60006118b9611875565b60006111a28284612790565b604080516001600160a01b0385811660248301528416604482015260648082018490528251808303909101815260849091019091526020810180516001600160e01b03166323b872dd60e01b179052611953908590611bc1565b50505050565b60008085511161196857600080fd5b6000611972611c98565b905060008782604051602001611992929190918252602082015260400190565b604051602081830303815290604052805190602001209050604051806101000160405280828152602001898152602001858152602001876001600160a01b031681526020018660028111156119e9576119e9612369565b815260208082018a905260408051600080825292810182529201919050815260016020918201819052600084815260028084526040918290208551815593850151928401929092558301518282015560608301516003830180546001600160a01b039092166001600160a01b031983168117825560808601519391926001600160a81b0319161790600160a01b908490811115611a8857611a88612369565b021790555060a08201518051611aa8916004840191602090910190611e70565b5060c08201518051611ac4916005840191602090910190611ef4565b5060e091909101516006909101805460ff1916911515919091179055600088815260026020908152604082206005018054600181810183559184529183209091018390556003805491929091611b1b908490612790565b9250508190555087866001600160a01b03167f92f79e4ee75e2f5728dfd026fd65e2fd7e6677ce4945b6e08f0a4d1d81da61a48388604051611b5e9291906127a8565b60405180910390a3979650505050505050565b600080546001600160a01b038381166001600160a01b0319831681178455604051919092169283917f8be0079c531659141344cd1fd0a4f28419497f9722a3daafe3b4186f6b6457e09190a35050565b6000611c16826040518060400160405280602081526020017f5361666545524332303a206c6f772d6c6576656c2063616c6c206661696c6564815250856001600160a01b0316611cef9092919063ffffffff16565b805190915015611c935780806020019051810190611c3491906127bc565b611c935760405162461bcd60e51b815260206004820152602a60248201527f5361666545524332303a204552433230206f7065726174696f6e20646964206e6044820152691bdd081cdd58d8d9595960b21b6064820152608401610746565b505050565b60006003546001611ca99190612790565b611cb16118e3565b604051602001611cd49291909182526001600160a01b0316602082015260400190565b60405160208183030381529060405280519060200120905090565b6060611cfe8484600085611d06565b949350505050565b606082471015611d675760405162461bcd60e51b815260206004820152602660248201527f416464726573733a20696e73756666696369656e742062616c616e636520666f6044820152651c8818d85b1b60d21b6064820152608401610746565b6001600160a01b0385163b611dbe5760405162461bcd60e51b815260206004820152601d60248201527f416464726573733a2063616c6c20746f206e6f6e2d636f6e74726163740000006044820152606401610746565b600080866001600160a01b03168587604051611dda91906127dc565b60006040518083038185875af1925050503d8060008114611e17576040519150601f19603f3d011682016040523d82523d6000602084013e611e1c565b606091505b5091509150611e2c828286611e37565b979650505050505050565b60608315611e465750816111a2565b825115611e565782518084602001fd5b8160405162461bcd60e51b815260040161074691906126d1565b828054611e7c906126e4565b90600052602060002090601f016020900481019282611e9e5760008555611ee4565b82601f10611eb757805160ff1916838001178555611ee4565b82800160010185558215611ee4579182015b82811115611ee4578251825591602001919060010190611ec9565b50611ef0929150611f2e565b5090565b828054828255906000526020600020908101928215611ee45791602002820182811115611ee4578251825591602001919060010190611ec9565b5b80821115611ef05760008155600101611f2f565b60405162461bcd60e51b815260206004820152602260248201527f414249206465636f64696e673a207475706c65206461746120746f6f2073686f6044820152611c9d60f21b6064820152608481fd5b60405162461bcd60e51b815260206004820152602260248201527f414249206465636f64696e673a20696e76616c6964207475706c65206f666673604482015261195d60f21b6064820152608481fd5b600060208284031215611ff857611ff8611f43565b5035919050565b60005b8381101561201a578181015183820152602001612002565b838111156119535750506000910152565b60008151808452612043816020860160208601611fff565b601f01601f19169290920160200192915050565b600081518084526020808501945080840160005b838110156120875781518752958201959082019060010161206b565b509495945050505050565b600060018060a01b03808916835260c060208401526120b460c084018961202b565b871515604085015283810360608501526120ce8188612057565b959091166080840152505060a00152949350505050565b60405162461bcd60e51b815260206004820152602b60248201527f414249206465636f64696e673a20696e76616c69642063616c6c64617461206160448201526a1c9c985e481bd9999cd95d60aa1b6064820152608481fd5b634e487b7160e01b600052604160045260246000fd5b604051601f8201601f1916810167ffffffffffffffff8111828210171561217d5761217d61213e565b604052919050565b600067ffffffffffffffff82111561219f5761219f61213e565b5060051b60200190565b60405162461bcd60e51b815260206004820152602b60248201527f414249206465636f64696e673a20696e76616c69642063616c6c64617461206160448201526a727261792073747269646560a81b6064820152608481fd5b80356001600160a01b038116811461221957600080fd5b919050565b600082601f830112612232576122326120e5565b8135602061224761224283612185565b612154565b82815260059290921b84018101918181019086841115612269576122696121a9565b8286015b84811015612284578035835291830191830161226d565b509695505050505050565b6000806000606084860312156122a7576122a7611f43565b8335925060208085013567ffffffffffffffff808211156122ca576122ca611f93565b818701915087601f8301126122e1576122e16120e5565b81356122ef61224282612185565b81815260059190911b8301840190848101908a831115612311576123116121a9565b938501935b828510156123365761232785612202565b82529385019390850190612316565b96505050604087013592508083111561235157612351611f93565b505061235f8682870161221e565b9150509250925092565b634e487b7160e01b600052602160045260246000fd5b6003811061239d57634e487b7160e01b600052602160045260246000fd5b9052565b8781526001600160a01b03871660208201526123c0604082018761237f565b60e0606082015260006123d660e083018761202b565b82810360808401526123e88187612057565b94151560a0840152505060c0015295945050505050565b600082601f830112612413576124136120e5565b8135602067ffffffffffffffff82111561242f5761242f61213e565b612441601f8301601f19168201612154565b82815285828487010111156124a55760405162461bcd60e51b815260048101839052602760248201527f414249206465636f64696e673a20696e76616c69642062797465206172726179604482015266040d8cadccee8d60cb1b6064820152608481fd5b82828601838301376000928101909101919091529392505050565b6000806000606084860312156124d8576124d8611f43565b833567ffffffffffffffff8111156124f2576124f2611f93565b6124fe868287016123ff565b93505061250d60208501612202565b9150604084013590509250925092565b60006020828403121561253257612532611f43565b6111a282612202565b6020815260006111a26020830184612057565b801515811461072d57600080fd5b600082601f830112612570576125706120e5565b8135602061258061224283612185565b82815260059290921b840181019181810190868411156125a2576125a26121a9565b8286015b848110156122845780356125b98161254e565b83529183019183016125a6565b600080604083850312156125dc576125dc611f43565b823567ffffffffffffffff808211156125f7576125f7611f93565b818501915085601f83011261260e5761260e6120e5565b8135602061261e61224283612185565b82815260059290921b84018101918181019089841115612640576126406121a9565b948201945b8386101561265e57853582529482019490820190612645565b9650508601359250508082111561267757612677611f93565b506126848582860161255c565b9150509250929050565b600080604083850312156126a4576126a4611f43565b82359150602083013567ffffffffffffffff8111156126c5576126c5611f93565b612684858286016123ff565b6020815260006111a2602083018461202b565b600181811c908216806126f857607f821691505b6020821081036113ee57634e487b7160e01b600052602260045260246000fd5b634e487b7160e01b600052603260045260246000fd5b60006020828403121561274357612743611f43565b5051919050565b634e487b7160e01b600052601160045260246000fd5b6000600182016127725761277261274a565b5060010190565b60008282101561278b5761278b61274a565b500390565b600082198211156127a3576127a361274a565b500190565b828152604081016111a2602083018461237f565b6000602082840312156127d1576127d1611f43565b81516111a28161254e565b600082516127ee818460208701611fff565b919091019291505056fe45746865722073656e7420746f206e6f6e2d70617961626c652066756e637469a2646970667358221220be3a8f4b206a152c6e26b39d277a5a6269db21dd7717e4289eb03470b6af98e264736f6c634300080d003343726561746564205461736b506f7274616c20726f6f74207461736b20776974682070617468",
    "linkReferences": {}
  },
  "methodIdentifiers": {
    "addShare(bytes32,bytes)": "e985ccd7",
    "addSolution(bytes32,bytes)": "ee5e9d9e",
    "addTask(bytes,address,uint256)": "5357d429",
    "getAllTasks()": "779900b4",
    "getNode(bytes32)": "50c946fe",
    "getTask(bytes32)": "15a29035",
    "hasSenderContributedToAnySubnode(bytes32)": "c059a6e1",
    "isTrustedForwarder(address)": "572b6c05",
    "nodesCount()": "f1a3c5b3",
    "owner()": "8da5cb5b",
    "payoutTask(bytes32,address[],uint256[])": "27b8d6d7",
    "renounceOwnership()": "715018a6",
    "rootTaskPath()": "8973df07",
    "transferOwnership(address)": "f2fde38b",
    "updateNodesIsOpen(bytes32[],bool[])": "d03388db"
  },
  "id": 14
}