{
  "abi": [
    {
      "inputs": [],
      "stateMutability": "nonpayable",
      "type": "constructor"
    },
    {
      "anonymous": false,
      "inputs": [
        {
          "indexed": true,
          "internalType": "address",
          "name": "owner",
          "type": "address"
        },
        {
          "indexed": true,
          "internalType": "bytes32",
          "name": "parent",
          "type": "bytes32"
        },
        {
          "indexed": false,
          "internalType": "bytes32",
          "name": "path",
          "type": "bytes32"
        },
        {
          "indexed": false,
          "internalType": "enum NodeType",
          "name": "nodeType",
          "type": "uint8"
        }
      ],
      "name": "NewNodeCreated",
      "type": "event"
    },
    {
      "inputs": [
        {
          "internalType": "bytes32",
          "name": "_parent",
          "type": "bytes32"
        },
        {
          "internalType": "bytes",
          "name": "_data",
          "type": "bytes"
        }
      ],
      "name": "addShare",
      "outputs": [
        {
          "internalType": "bytes32",
          "name": "",
          "type": "bytes32"
        }
      ],
      "stateMutability": "nonpayable",
      "type": "function"
    },
    {
      "inputs": [
        {
          "internalType": "bytes32",
          "name": "_parent",
          "type": "bytes32"
        },
        {
          "internalType": "bytes",
          "name": "_data",
          "type": "bytes"
        }
      ],
      "name": "addSolution",
      "outputs": [
        {
          "internalType": "bytes32",
          "name": "",
          "type": "bytes32"
        }
      ],
      "stateMutability": "nonpayable",
      "type": "function"
    },
    {
      "inputs": [
        {
          "internalType": "bytes",
          "name": "_data",
          "type": "bytes"
        },
        {
          "internalType": "address",
          "name": "_tokenAddress",
          "type": "address"
        },
        {
          "internalType": "uint256",
          "name": "_amount",
          "type": "uint256"
        }
      ],
      "name": "addTask",
      "outputs": [
        {
          "internalType": "bytes32",
          "name": "",
          "type": "bytes32"
        }
      ],
      "stateMutability": "payable",
      "type": "function"
    },
    {
      "inputs": [],
      "name": "getAllTasks",
      "outputs": [
        {
          "internalType": "bytes32[]",
          "name": "",
          "type": "bytes32[]"
        }
      ],
      "stateMutability": "view",
      "type": "function"
    },
    {
      "inputs": [
        {
          "internalType": "bytes32",
          "name": "_path",
          "type": "bytes32"
        }
      ],
      "name": "getNode",
      "outputs": [
        {
          "internalType": "bytes32",
          "name": "",
          "type": "bytes32"
        },
        {
          "internalType": "address",
          "name": "",
          "type": "address"
        },
        {
          "internalType": "enum NodeType",
          "name": "",
          "type": "uint8"
        },
        {
          "internalType": "bytes",
          "name": "",
          "type": "bytes"
        },
        {
          "internalType": "bytes32[]",
          "name": "",
          "type": "bytes32[]"
        },
        {
          "internalType": "bool",
          "name": "",
          "type": "bool"
        }
      ],
      "stateMutability": "view",
      "type": "function"
    },
    {
      "inputs": [
        {
          "internalType": "bytes32",
          "name": "_path",
          "type": "bytes32"
        }
      ],
      "name": "getTask",
      "outputs": [
        {
          "internalType": "address",
          "name": "",
          "type": "address"
        },
        {
          "internalType": "bytes",
          "name": "",
          "type": "bytes"
        },
        {
          "internalType": "bool",
          "name": "",
          "type": "bool"
        },
        {
          "internalType": "address",
          "name": "",
          "type": "address"
        },
        {
          "internalType": "uint256",
          "name": "",
          "type": "uint256"
        }
      ],
      "stateMutability": "view",
      "type": "function"
    },
    {
      "inputs": [],
      "name": "nodesCount",
      "outputs": [
        {
          "internalType": "uint256",
          "name": "",
          "type": "uint256"
        }
      ],
      "stateMutability": "view",
      "type": "function"
    },
    {
      "inputs": [
        {
          "internalType": "bytes32",
          "name": "taskPath",
          "type": "bytes32"
        },
        {
          "internalType": "bytes32[]",
          "name": "paths",
          "type": "bytes32[]"
        }
      ],
      "name": "payoutTask",
      "outputs": [],
      "stateMutability": "nonpayable",
      "type": "function"
    },
    {
      "inputs": [],
      "name": "rootTaskPath",
      "outputs": [
        {
          "internalType": "bytes32",
          "name": "",
          "type": "bytes32"
        }
      ],
      "stateMutability": "view",
      "type": "function"
    },
    {
      "inputs": [
        {
          "internalType": "bytes32[]",
          "name": "_paths",
          "type": "bytes32[]"
        },
        {
          "internalType": "bool[]",
          "name": "_isOpens",
          "type": "bool[]"
        }
      ],
      "name": "updateNodesIsOpen",
      "outputs": [
        {
          "internalType": "uint256",
          "name": "",
          "type": "uint256"
        }
      ],
      "stateMutability": "nonpayable",
      "type": "function"
    },
    {
      "stateMutability": "payable",
      "type": "receive"
    }
  ],
  "bytecode": {
    "object": "0x60806040526000600255348015620000635760405162461bcd60e51b815260206004820152602260248201527f45746865722073656e7420746f206e6f6e2d70617961626c652066756e637469604482019081526137b760f11b6064830152608482fd5b506200009b600060405180604001604052806008815260200167526f6f745461736b60c01b815250336000806200010560201b60201c565b600381905550620000d06040518060600160405280602681526020016200247b602691396200032760201b620004901760201c565b620000e86003546200037560201b6200125d1760201c565b620000ff6000620003c160201b620012a21760201c565b62000659565b6000808551116200011557600080fd5b6000620001216200040f565b90506000878260405160200162000142929190918252602082015260400190565b604051602081830303815290604052805190602001209050604051806101000160405280898152602001828152602001858152602001876001600160a01b031681526020018660028111156200019c576200019c62000555565b815260208082018a90526040805160008082528184018352828501919091526001606094850181905286825280845290829020855181559285015190830155830151600280830191909155918301516003820180546001600160a01b039092166001600160a01b03198316811782556080860151939491926001600160a81b0319161790600160a01b9084908111156200023a576200023a62000555565b021790555060a082015180516200025c91600484019160209091019062000472565b5060c082015180516200027a91600584019160209091019062000501565b5060e091909101516006909101805460ff19169115159190911790556000888152600160208181526040832060050180548084018255908452908320018390556002805491929091620002cf9084906200056b565b9250508190555087866001600160a01b03167f92f79e4ee75e2f5728dfd026fd65e2fd7e6677ce4945b6e08f0a4d1d81da61a483886040516200031492919062000592565b60405180910390a3979650505050505050565b62000372816040516024016200033e9190620005c5565b60408051601f198184030181529190526020810180516001600160e01b0390811663104c13eb60e21b179091526200045116565b50565b62000372816040516024016200038d91815260200190565b60408051601f198184030181529190526020810180516001600160e01b039081166327b7cf8560e01b179091526200045116565b6040516001600160a01b0382166024820152620003729060440160408051601f198184030181529190526020810180516001600160e01b0390811663161765e160e11b179091526200045116565b600060025460016200042291906200056b565b604080516020810192909252339082015260600160405160208183030381529060405280519060200120905090565b80516a636f6e736f6c652e6c6f67602083016000808483855afa5050505050565b82805462000480906200061d565b90600052602060002090601f016020900481019282620004a45760008555620004ef565b82601f10620004bf57805160ff1916838001178555620004ef565b82800160010185558215620004ef579182015b82811115620004ef578251825591602001919060010190620004d2565b50620004fd9291506200053e565b5090565b828054828255906000526020600020908101928215620004ef5791602002820182811115620004ef578251825591602001919060010190620004d2565b5b80821115620004fd57600081556001016200053f565b634e487b7160e01b600052602160045260246000fd5b600082198211156200058d57634e487b7160e01b600052601160045260246000fd5b500190565b8281526040810160038310620005b857634e487b7160e01b600052602160045260246000fd5b8260208301529392505050565b600060208083528351808285015260005b81811015620005f457858101830151858201604001528201620005d6565b8181111562000607576000604083870101525b50601f01601f1916929092016040019392505050565b600181811c908216806200063257607f821691505b6020821081036200065357634e487b7160e01b600052602260045260246000fd5b50919050565b611e1280620006696000396000f3fe6080604052600436106100955760003560e01c8063b25d5fe611610059578063b25d5fe6146102d3578063d03388db1461032e578063e985ccd714610389578063ee5e9d9e146103e4578063f1a3c5b31461043f576100c9565b806315a290351461012257806350c946fe146101975780635357d42914610204578063779900b4146102255780638973df0714610282576100c9565b366100c9576100c76040518060400160405280600c81526020016b0a48a868a92ac8a88408aa8960a31b815250610490565b005b60405162461bcd60e51b815260206004820152602960248201527f556e6b6e6f776e207369676e617475726520616e64206e6f2066616c6c62616360448201908152681ac81919599a5b995960ba1b6064830152608482fd5b3480156101695760405162461bcd60e51b81526020600482015260226024820152600080516020611d9d833981519152604482019081526137b760f11b6064830152608482fd5b5061017d6101783660046116ca565b6104d6565b60405161018e959493929190611733565b60405180910390f35b3480156101de5760405162461bcd60e51b81526020600482015260226024820152600080516020611d9d833981519152604482019081526137b760f11b6064830152608482fd5b506101f26101ed3660046116ca565b6105dc565b60405161018e969594939291906117e4565b6102176102123660046119a2565b61071d565b60405190815260200161018e565b34801561026c5760405162461bcd60e51b81526020600482015260226024820152600080516020611d9d833981519152604482019081526137b760f11b6064830152608482fd5b50610275610aad565b60405161018e9190611a0e565b3480156102c95760405162461bcd60e51b81526020600482015260226024820152600080516020611d9d833981519152604482019081526137b760f11b6064830152608482fd5b5061021760035481565b34801561031a5760405162461bcd60e51b81526020600482015260226024820152600080516020611d9d833981519152604482019081526137b760f11b6064830152608482fd5b506100c7610329366004611b0f565b610b13565b3480156103755760405162461bcd60e51b81526020600482015260226024820152600080516020611d9d833981519152604482019081526137b760f11b6064830152608482fd5b50610217610384366004611b6a565b610fdf565b3480156103d05760405162461bcd60e51b81526020600482015260226024820152600080516020611d9d833981519152604482019081526137b760f11b6064830152608482fd5b506102176103df366004611c3d565b61118f565b34801561042b5760405162461bcd60e51b81526020600482015260226024820152600080516020611d9d833981519152604482019081526137b760f11b6064830152608482fd5b5061021761043a366004611c3d565b6111f9565b3480156104865760405162461bcd60e51b81526020600482015260226024820152600080516020611d9d833981519152604482019081526137b760f11b6064830152608482fd5b5061021760025481565b6104d3816040516024016104a49190611c80565b60408051601f198184030181529190526020810180516001600160e01b031663104c13eb60e21b1790526112e6565b50565b600081815260016020526060818080856104f4565b60405180910390fd5b6000878152600160208181526040808420918490529092206003830154600684015482549383015460048601805494956001600160a01b0394851695919460ff90941693169190849061054690611c93565b80601f016020809104026020016040519081016040528092919081815260200182805461057290611c93565b80156105bf5780601f10610594576101008083540402835291602001916105bf565b820191906000526020600020905b8154815290600101906020018083116105a257829003601f168201915b505050505093509750975097509750975050505091939590929450565b600081815260016020526040812080546003820154600683015460048401805486958695606095869588958c956001600160a01b03841693600160a01b900460ff908116936005880192911690839061063490611c93565b80601f016020809104026020016040519081016040528092919081815260200182805461066090611c93565b80156106ad5780601f10610682576101008083540402835291602001916106ad565b820191906000526020600020905b81548152906001019060200180831161069057829003601f168201915b50505050509250818054806020026020016040519081016040528092919081815260200182805480156106ff57602002820191906000526020600020905b8154815260200190600101908083116106eb575b50505050509150975097509750975097509750505091939550919395565b6000806001600160a01b0384166107a4576000341161079d5760405162461bcd60e51b815260206004820152603660248201527f5472616e73616374696f6e206d75737420686176652076616c756520746f20636044820152757265617465207461736b207769746820626f756e747960501b60648201526084016104eb565b5034610a13565b6000846001600160a01b03163b1161080f5760405162461bcd60e51b815260206004820152602860248201527f5f746f6b656e41646472657373206d757374206265206120636f6e7472616374604482015267206164647265737360c01b60648201526084016104eb565b600083116108855760405162461bcd60e51b815260206004820152603860248201527f455243323020746f6b656e206d7573742068617665205f616d6f756e7420746f60448201527f20637265617465207461736b207769746820626f756e7479000000000000000060648201526084016104eb565b6040516370a0823160e01b8152336004820152849082906001600160a01b038316906370a082319060240160206040518083038186803b1580156109065760405162461bcd60e51b81526020600482015260256024820152600080516020611dbd833981519152604482019081526420636f646560d81b6064830152608482fd5b505afa15801561091a573d6000803e3d6000fd5b505050506040513d601f19601f8201168201806040525081019061093e9190611ccd565b101561094957600080fd5b6040516323b872dd60e01b8152336004820152306024820152604481018590528492506001600160a01b038216906323b872dd90606401602060405180830381600087803b1580156109d85760405162461bcd60e51b81526020600482015260256024820152600080516020611dbd833981519152604482019081526420636f646560d81b6064830152608482fd5b505af11580156109ec573d6000803e3d6000fd5b505050506040513d601f19601f82011682018060405250810190610a109190611ce9565b50505b6000610a256003548733600080611307565b6040805180820182526001600160a01b03888116825260208083018781526000868152808352859020935184546001600160a01b031916931692909217835590516001909201919091558151808301909252601082526f5461736b43726561746f72536861726560801b90820152909150610aa190829061118f565b509150505b9392505050565b600354600090815260016020908152604091829020600501805483518184028101840190945280845260609392830182828015610b0957602002820191906000526020600020905b815481526020019060010190808311610af5575b5050505050905090565b60008281526001602052604090206003015482906001600160a01b03163314610b7e5760405162461bcd60e51b815260206004820152601d60248201527f4f6e6c79206e6f6465206f776e65722063616e2065646974206e6f646500000060448201526064016104eb565b6000825111610ba95760405162461bcd60e51b815260206004820152600060248201526044016104eb565b60008381526020818152604091829020825180840190935280546001600160a01b0316835260010154908201819052610be157600080fd5b600083518260200151610bf49190611d1f565b82519091506001600160a01b0316610d7e578160200151471015610c645760405162461bcd60e51b815260206004820152602160248201527f436f6e7472616374206d757374206861766520656e6f7567682062616c616e636044820152606560f81b60648201526084016104eb565b60005b8451811015610d7857600060016000878481518110610c8857610c88611d41565b6020026020010151815260200190815260200160002060030160009054906101000a90046001600160a01b03166001600160a01b03168360405160006040518083038185875af1925050503d8060008114610cff576040519150601f19603f3d011682016040523d82523d6000602084013e610d04565b606091505b5050905080610d655760405162461bcd60e51b815260206004820152602760248201527f4661696c656420746f207769746864726177206d6f6e65792066726f6d20636f604482015266373a3930b1ba1760c91b60648201526084016104eb565b5080610d7081611d57565b915050610c67565b50610fc7565b815160208301516040516370a0823160e01b81523060048201526001600160a01b038316906370a082319060240160206040518083038186803b158015610e025760405162461bcd60e51b81526020600482015260256024820152600080516020611dbd833981519152604482019081526420636f646560d81b6064830152608482fd5b505afa158015610e16573d6000803e3d6000fd5b505050506040513d601f19601f82011682018060405250810190610e3a9190611ccd565b1015610e9b5760405162461bcd60e51b815260206004820152602a60248201527f436f6e7472616374206d757374206861766520656e6f7567682062616c616e63604482015269329037b3103a37b5b2b760b11b60648201526084016104eb565b60005b8551811015610fc457816001600160a01b03166323b872dd30600160008a8681518110610ecd57610ecd611d41565b602090810291909101810151825281019190915260409081016000206003015490516001600160e01b031960e085901b1681526001600160a01b0392831660048201529116602482015260448101869052606401602060405180830381600087803b158015610f795760405162461bcd60e51b81526020600482015260256024820152600080516020611dbd833981519152604482019081526420636f646560d81b6064830152608482fd5b505af1158015610f8d573d6000803e3d6000fd5b505050506040513d601f19601f82011682018060405250810190610fb19190611ce9565b5080610fbc81611d57565b915050610e9e565b50505b50505060009182525060208190526040812060010155565b600081518351146110475760405162461bcd60e51b815260206004820152602c60248201527f4e6f646520706174687320616e642069734f70656e73206d757374206861766560448201526b040e6c2daca40d8cadccee8d60a31b60648201526084016104eb565b6000805b8451811015611187576000336001600160a01b03166001600088858151811061107657611076611d41565b6020908102919091018101518252810191909152604001600020600301546001600160a01b03161480156110fd57508482815181106110b7576110b7611d41565b60200260200101511515600160008885815181106110d7576110d7611d41565b60209081029190910181015182528101919091526040016000206006015460ff16151514155b905080156111745784828151811061111757611117611d41565b60200260200101516001600088858151811061113557611135611d41565b6020026020010151815260200190815260200160002060060160006101000a81548160ff021916908315150217905550828061117090611d57565b9350505b508061117f81611d57565b91505061104b565b509392505050565b600082815260016020526040812060030154839082908190600160a01b900460ff1660028111156111c2576111c2611771565b036111ce5750836111e2565b506000848152600160205260409020600201545b6111f0858533600285611307565b95945050505050565b6000828152600160205260408120600301548390600290600160a01b900460ff168181111561122a5761122a611771565b1461123457600080fd5b6000600160008681526020019081526020016000206002015490506111f0858533600185611307565b6104d38160405160240161127391815260200190565b60408051601f198184030181529190526020810180516001600160e01b03166327b7cf8560e01b1790526112e6565b6040516001600160a01b03821660248201526104d39060440160408051601f198184030181529190526020810180516001600160e01b031663161765e160e11b1790525b80516a636f6e736f6c652e6c6f67602083016000808483855afa5050505050565b60008085511161131657600080fd5b6000611320611517565b905060008782604051602001611340929190918252602082015260400190565b604051602081830303815290604052805190602001209050604051806101000160405280898152602001828152602001858152602001876001600160a01b0316815260200186600281111561139757611397611771565b815260208082018a90526040805160008082528184018352828501919091526001606094850181905286825280845290829020855181559285015190830155830151600280830191909155918301516003820180546001600160a01b039092166001600160a01b03198316811782556080860151939491926001600160a81b0319161790600160a01b90849081111561143257611432611771565b021790555060a08201518051611452916004840191602090910190611557565b5060c0820151805161146e9160058401916020909101906115db565b5060e091909101516006909101805460ff191691151591909117905560008881526001602081815260408320600501805480840182559084529083200183905560028054919290916114c1908490611d70565b9250508190555087866001600160a01b03167f92f79e4ee75e2f5728dfd026fd65e2fd7e6677ce4945b6e08f0a4d1d81da61a48388604051611504929190611d88565b60405180910390a3979650505050505050565b600060025460016115289190611d70565b604080516020810192909252339082015260600160405160208183030381529060405280519060200120905090565b82805461156390611c93565b90600052602060002090601f01602090048101928261158557600085556115cb565b82601f1061159e57805160ff19168380011785556115cb565b828001600101855582156115cb579182015b828111156115cb5782518255916020019190600101906115b0565b506115d7929150611615565b5090565b8280548282559060005260206000209081019282156115cb57916020028201828111156115cb5782518255916020019190600101906115b0565b5b808211156115d75760008155600101611616565b60405162461bcd60e51b815260206004820152602260248201527f414249206465636f64696e673a207475706c65206461746120746f6f2073686f6044820152611c9d60f21b6064820152608481fd5b60405162461bcd60e51b815260206004820152602260248201527f414249206465636f64696e673a20696e76616c6964207475706c65206f666673604482015261195d60f21b6064820152608481fd5b6000602082840312156116df576116df61162a565b5035919050565b6000815180845260005b8181101561170c576020818501810151868301820152016116f0565b8181111561171e576000602083870101525b50601f01601f19169290920160200192915050565b600060018060a01b03808816835260a0602084015261175560a08401886116e6565b9515156040840152939093166060820152608001525092915050565b634e487b7160e01b600052602160045260246000fd5b600381106117a557634e487b7160e01b600052602160045260246000fd5b9052565b600081518084526020808501945080840160005b838110156117d9578151875295820195908201906001016117bd565b509495945050505050565b8681526001600160a01b03861660208201526118036040820186611787565b60c06060820152600061181960c08301866116e6565b828103608084015261182b81866117a9565b91505082151560a0830152979650505050505050565b60405162461bcd60e51b815260206004820152602b60248201527f414249206465636f64696e673a20696e76616c69642063616c6c64617461206160448201526a1c9c985e481bd9999cd95d60aa1b6064820152608481fd5b634e487b7160e01b600052604160045260246000fd5b604051601f8201601f1916810167ffffffffffffffff811182821017156118d9576118d961189a565b604052919050565b600082601f8301126118f5576118f5611841565b8135602067ffffffffffffffff8211156119115761191161189a565b611923601f8301601f191682016118b0565b82815285828487010111156119875760405162461bcd60e51b815260048101839052602760248201527f414249206465636f64696e673a20696e76616c69642062797465206172726179604482015266040d8cadccee8d60cb1b6064820152608481fd5b82828601838301376000928101909101919091529392505050565b6000806000606084860312156119ba576119ba61162a565b833567ffffffffffffffff8111156119d4576119d461167a565b6119e0868287016118e1565b93505060208401356001600160a01b03811681146119fd57600080fd5b929592945050506040919091013590565b602081526000610aa660208301846117a9565b600067ffffffffffffffff821115611a3b57611a3b61189a565b5060051b60200190565b60405162461bcd60e51b815260206004820152602b60248201527f414249206465636f64696e673a20696e76616c69642063616c6c64617461206160448201526a727261792073747269646560a81b6064820152608481fd5b600082601f830112611ab257611ab2611841565b81356020611ac7611ac283611a21565b6118b0565b82815260059290921b84018101918181019086841115611ae957611ae9611a45565b8286015b84811015611b045780358352918301918301611aed565b509695505050505050565b60008060408385031215611b2557611b2561162a565b82359150602083013567ffffffffffffffff811115611b4657611b4661167a565b611b5285828601611a9e565b9150509250929050565b80151581146104d357600080fd5b60008060408385031215611b8057611b8061162a565b823567ffffffffffffffff80821115611b9b57611b9b61167a565b611ba786838701611a9e565b9350602091508185013581811115611bc157611bc161167a565b85019050601f81018613611bd757611bd7611841565b8035611be5611ac282611a21565b81815260059190911b82018301908381019088831115611c0757611c07611a45565b928401925b82841015611c2e578335611c1f81611b5c565b82529284019290840190611c0c565b80955050505050509250929050565b60008060408385031215611c5357611c5361162a565b82359150602083013567ffffffffffffffff811115611c7457611c7461167a565b611b52858286016118e1565b602081526000610aa660208301846116e6565b600181811c90821680611ca757607f821691505b602082108103611cc757634e487b7160e01b600052602260045260246000fd5b50919050565b600060208284031215611ce257611ce261162a565b5051919050565b600060208284031215611cfe57611cfe61162a565b8151610aa681611b5c565b634e487b7160e01b600052601160045260246000fd5b600082611d3c57634e487b7160e01b600052601260045260246000fd5b500490565b634e487b7160e01b600052603260045260246000fd5b600060018201611d6957611d69611d09565b5060010190565b60008219821115611d8357611d83611d09565b500190565b82815260408101610aa6602083018461178756fe45746865722073656e7420746f206e6f6e2d70617961626c652066756e63746954617267657420636f6e747261637420646f6573206e6f7420636f6e7461696ea26469706673582212200572be8776d61291d4f35b51ea20ff7e4fd09bae433bf8dd9a463d60e2b0d23764736f6c634300080d003343726561746564205461736b506f7274616c20726f6f74207461736b20776974682070617468",
    "linkReferences": {}
  },
  "methodIdentifiers": {
    "addShare(bytes32,bytes)": "e985ccd7",
    "addSolution(bytes32,bytes)": "ee5e9d9e",
    "addTask(bytes,address,uint256)": "5357d429",
    "getAllTasks()": "779900b4",
    "getNode(bytes32)": "50c946fe",
    "getTask(bytes32)": "15a29035",
    "nodesCount()": "f1a3c5b3",
    "payoutTask(bytes32,bytes32[])": "b25d5fe6",
    "rootTaskPath()": "8973df07",
    "updateNodesIsOpen(bytes32[],bool[])": "d03388db"
  },
  "id": 8
}