{
  "abi": [
    {
      "inputs": [
        {
          "internalType": "address",
          "name": "trustedForwarder",
          "type": "address"
        }
      ],
      "stateMutability": "nonpayable",
      "type": "constructor"
    },
    {
      "anonymous": false,
      "inputs": [
        {
          "indexed": true,
          "internalType": "address",
          "name": "owner",
          "type": "address"
        },
        {
          "indexed": true,
          "internalType": "bytes32",
          "name": "parent",
          "type": "bytes32"
        },
        {
          "indexed": false,
          "internalType": "bytes32",
          "name": "path",
          "type": "bytes32"
        },
        {
          "indexed": false,
          "internalType": "enum NodeType",
          "name": "nodeType",
          "type": "uint8"
        }
      ],
      "name": "NewNodeCreated",
      "type": "event"
    },
    {
      "anonymous": false,
      "inputs": [
        {
          "indexed": true,
          "internalType": "address",
          "name": "previousOwner",
          "type": "address"
        },
        {
          "indexed": true,
          "internalType": "address",
          "name": "newOwner",
          "type": "address"
        }
      ],
      "name": "OwnershipTransferred",
      "type": "event"
    },
    {
      "inputs": [
        {
          "internalType": "bytes32",
          "name": "_parent",
          "type": "bytes32"
        },
        {
          "internalType": "bytes",
          "name": "_data",
          "type": "bytes"
        }
      ],
      "name": "addShare",
      "outputs": [
        {
          "internalType": "bytes32",
          "name": "",
          "type": "bytes32"
        }
      ],
      "stateMutability": "nonpayable",
      "type": "function"
    },
    {
      "inputs": [
        {
          "internalType": "bytes32",
          "name": "_parent",
          "type": "bytes32"
        },
        {
          "internalType": "bytes",
          "name": "_data",
          "type": "bytes"
        }
      ],
      "name": "addSolution",
      "outputs": [
        {
          "internalType": "bytes32",
          "name": "",
          "type": "bytes32"
        }
      ],
      "stateMutability": "nonpayable",
      "type": "function"
    },
    {
      "inputs": [
        {
          "internalType": "bytes",
          "name": "_data",
          "type": "bytes"
        },
        {
          "internalType": "address",
          "name": "_tokenAddress",
          "type": "address"
        },
        {
          "internalType": "uint256",
          "name": "_amount",
          "type": "uint256"
        }
      ],
      "name": "addTask",
      "outputs": [
        {
          "internalType": "bytes32",
          "name": "",
          "type": "bytes32"
        }
      ],
      "stateMutability": "payable",
      "type": "function"
    },
    {
      "inputs": [],
      "name": "getAllTasks",
      "outputs": [
        {
          "internalType": "bytes32[]",
          "name": "",
          "type": "bytes32[]"
        }
      ],
      "stateMutability": "view",
      "type": "function"
    },
    {
      "inputs": [
        {
          "internalType": "bytes32",
          "name": "_path",
          "type": "bytes32"
        }
      ],
      "name": "getBountiesForTask",
      "outputs": [
        {
          "components": [
            {
              "internalType": "address",
              "name": "tokenAddress",
              "type": "address"
            },
            {
              "internalType": "uint256",
              "name": "amount",
              "type": "uint256"
            }
          ],
          "internalType": "struct Bounty[]",
          "name": "",
          "type": "tuple[]"
        }
      ],
      "stateMutability": "view",
      "type": "function"
    },
    {
      "inputs": [
        {
          "internalType": "bytes32",
          "name": "_path",
          "type": "bytes32"
        }
      ],
      "name": "getNode",
      "outputs": [
        {
          "internalType": "bytes32",
          "name": "",
          "type": "bytes32"
        },
        {
          "internalType": "address",
          "name": "",
          "type": "address"
        },
        {
          "internalType": "enum NodeType",
          "name": "",
          "type": "uint8"
        },
        {
          "internalType": "bytes",
          "name": "",
          "type": "bytes"
        },
        {
          "internalType": "bytes32[]",
          "name": "",
          "type": "bytes32[]"
        },
        {
          "internalType": "bool",
          "name": "",
          "type": "bool"
        },
        {
          "internalType": "bytes32",
          "name": "",
          "type": "bytes32"
        }
      ],
      "stateMutability": "view",
      "type": "function"
    },
    {
      "inputs": [
        {
          "internalType": "bytes32",
          "name": "_path",
          "type": "bytes32"
        }
      ],
      "name": "getTask",
      "outputs": [
        {
          "internalType": "address",
          "name": "",
          "type": "address"
        },
        {
          "internalType": "bytes",
          "name": "",
          "type": "bytes"
        },
        {
          "internalType": "bool",
          "name": "",
          "type": "bool"
        },
        {
          "internalType": "bytes32[]",
          "name": "",
          "type": "bytes32[]"
        }
      ],
      "stateMutability": "view",
      "type": "function"
    },
    {
      "inputs": [
        {
          "internalType": "bytes32",
          "name": "_path",
          "type": "bytes32"
        }
      ],
      "name": "hasSenderContributedToAnySubnode",
      "outputs": [
        {
          "internalType": "bool",
          "name": "",
          "type": "bool"
        }
      ],
      "stateMutability": "view",
      "type": "function"
    },
    {
      "inputs": [
        {
          "internalType": "bytes32",
          "name": "_taskPath",
          "type": "bytes32"
        },
        {
          "internalType": "address",
          "name": "_tokenAddress",
          "type": "address"
        },
        {
          "internalType": "uint256",
          "name": "_amount",
          "type": "uint256"
        }
      ],
      "name": "increaseBounty",
      "outputs": [
        {
          "internalType": "uint256",
          "name": "",
          "type": "uint256"
        }
      ],
      "stateMutability": "payable",
      "type": "function"
    },
    {
      "inputs": [
        {
          "internalType": "address",
          "name": "forwarder",
          "type": "address"
        }
      ],
      "name": "isTrustedForwarder",
      "outputs": [
        {
          "internalType": "bool",
          "name": "",
          "type": "bool"
        }
      ],
      "stateMutability": "view",
      "type": "function"
    },
    {
      "inputs": [],
      "name": "nodesCount",
      "outputs": [
        {
          "internalType": "uint256",
          "name": "",
          "type": "uint256"
        }
      ],
      "stateMutability": "view",
      "type": "function"
    },
    {
      "inputs": [],
      "name": "owner",
      "outputs": [
        {
          "internalType": "address",
          "name": "",
          "type": "address"
        }
      ],
      "stateMutability": "view",
      "type": "function"
    },
    {
      "inputs": [
        {
          "internalType": "bytes32",
          "name": "taskPath",
          "type": "bytes32"
        },
        {
          "internalType": "address[]",
          "name": "addresses",
          "type": "address[]"
        },
        {
          "internalType": "address[]",
          "name": "tokenAddresses",
          "type": "address[]"
        },
        {
          "internalType": "uint256[]",
          "name": "amounts",
          "type": "uint256[]"
        }
      ],
      "name": "payoutTask",
      "outputs": [],
      "stateMutability": "nonpayable",
      "type": "function"
    },
    {
      "inputs": [],
      "name": "renounceOwnership",
      "outputs": [],
      "stateMutability": "nonpayable",
      "type": "function"
    },
    {
      "inputs": [],
      "name": "rootTaskPath",
      "outputs": [
        {
          "internalType": "bytes32",
          "name": "",
          "type": "bytes32"
        }
      ],
      "stateMutability": "view",
      "type": "function"
    },
    {
      "inputs": [
        {
          "internalType": "address",
          "name": "newOwner",
          "type": "address"
        }
      ],
      "name": "transferOwnership",
      "outputs": [],
      "stateMutability": "nonpayable",
      "type": "function"
    },
    {
      "inputs": [
        {
          "internalType": "bytes32[]",
          "name": "_paths",
          "type": "bytes32[]"
        },
        {
          "internalType": "bool[]",
          "name": "_isOpens",
          "type": "bool[]"
        }
      ],
      "name": "updateNodesIsOpen",
      "outputs": [
        {
          "internalType": "uint256",
          "name": "",
          "type": "uint256"
        }
      ],
      "stateMutability": "nonpayable",
      "type": "function"
    },
    {
      "stateMutability": "payable",
      "type": "receive"
    }
  ],
  "bytecode": {
    "object": "0x60a06040526000600355348015620000635760405162461bcd60e51b815260206004820152602260248201527f45746865722073656e7420746f206e6f6e2d70617961626c652066756e637469604482019081526137b760f11b6064830152608482fd5b50604051620033cb380380620033cb8339810160408190526200008691620005f2565b6001600160a01b038116608052620000a7620000a162000132565b6200014e565b620000de600060405180604001604052806008815260200167526f6f745461736b60c01b815250336000806200019e60201b60201c565b60048190555062000113604051806060016040528060268152602001620033a560269139620003bc60201b620007791760201c565b6200012b6004546200040a60201b6200193a1760201c565b5062000773565b6000620001496200045660201b6200197f1760201c565b905090565b600080546001600160a01b038381166001600160a01b0319831681178455604051919092169283917f8be0079c531659141344cd1fd0a4f28419497f9722a3daafe3b4186f6b6457e09190a35050565b600080855111620001ae57600080fd5b6000620001ba6200048e565b905060008782604051602001620001db929190918252602082015260400190565b60408051601f198184030181528282528051602091820120610100840183528084528184018c90528383018890526001600160a01b038a166060850152608084018b905282516000815291820190925260a0830152915060c081018660028111156200024b576200024b6200066f565b8152600160209182018190526000848152818352604090819020845181558484015192810192909255830151600282015560608301516003820180546001600160a01b0319166001600160a01b03909216919091179055608083015180519192620002bf926004850192909101906200050f565b5060a08201518051620002dd9160058401916020909101906200059e565b5060c082015160068201805460ff191660018360028111156200030457620003046200066f565b021790555060e09190910151600690910180549115156101000261ff001990921691909117905560008881526001602081815260408320600501805480840182559084529083200183905560038054919290916200036490849062000685565b9250508190555087866001600160a01b03167f92f79e4ee75e2f5728dfd026fd65e2fd7e6677ce4945b6e08f0a4d1d81da61a48388604051620003a9929190620006ac565b60405180910390a3979650505050505050565b6200040781604051602401620003d39190620006df565b60408051601f198184030181529190526020810180516001600160e01b0390811663104c13eb60e21b17909152620004ea16565b50565b62000407816040516024016200042291815260200190565b60408051601f198184030181529190526020810180516001600160e01b039081166327b7cf8560e01b17909152620004ea16565b6080516000906001600160a01b0316330362000479575060131936013560601c90565b620001496200050b60201b620019c81760201c565b60006003546001620004a1919062000685565b620004ab62000132565b604051602001620004cf9291909182526001600160a01b0316602082015260400190565b60405160208183030381529060405280519060200120905090565b80516a636f6e736f6c652e6c6f67602083016000808483855afa5050505050565b3390565b8280546200051d9062000737565b90600052602060002090601f0160209004810192826200054157600085556200058c565b82601f106200055c57805160ff19168380011785556200058c565b828001600101855582156200058c579182015b828111156200058c5782518255916020019190600101906200056f565b506200059a929150620005db565b5090565b8280548282559060005260206000209081019282156200058c57916020028201828111156200058c5782518255916020019190600101906200056f565b5b808211156200059a5760008155600101620005dc565b600060208284031215620006505760405162461bcd60e51b815260206004820152602260248201527f414249206465636f64696e673a207475706c65206461746120746f6f2073686f6044820152611c9d60f21b6064820152608481fd5b81516001600160a01b03811681146200066857600080fd5b9392505050565b634e487b7160e01b600052602160045260246000fd5b60008219821115620006a757634e487b7160e01b600052601160045260246000fd5b500190565b8281526040810160038310620006d257634e487b7160e01b600052602160045260246000fd5b8260208301529392505050565b600060208083528351808285015260005b818110156200070e57858101830151858201604001528201620006f0565b8181111562000721576000604083870101525b50601f01601f1916929092016040019392505050565b600181811c908216806200074c57607f821691505b6020821081036200076d57634e487b7160e01b600052602260045260246000fd5b50919050565b608051612c0f62000796600039600081816103ad01526119830152612c0f6000f3fe6080604052600436106101025760003560e01c80638973df0711610095578063e985ccd711610064578063e985ccd714610604578063ee5e9d9e1461065f578063f1a3c5b3146106ba578063f2fde38b1461070b578063fe949a111461076657610136565b80638973df071461049a5780638da5cb5b146104eb578063c059a6e11461054e578063d03388db146105a957610136565b80635357d429116100d15780635357d42914610334578063572b6c0514610355578063715018a6146103ed578063779900b41461043d57610136565b806315a290351461018f5780633047c26d146102035780634498c6cf1461025e57806350c946fe146102c657610136565b36610136576101346040518060400160405280600c81526020016b0a48a868a92ac8a88408aa8960a31b815250610779565b005b60405162461bcd60e51b815260206004820152602960248201527f556e6b6e6f776e207369676e617475726520616e64206e6f2066616c6c62616360448201908152681ac81919599a5b995960ba1b6064830152608482fd5b3480156101d65760405162461bcd60e51b81526020600482015260226024820152600080516020612bba833981519152604482019081526137b760f11b6064830152608482fd5b506101ea6101e53660046122be565b6107bf565b6040516101fa949392919061236d565b60405180910390f35b34801561024a5760405162461bcd60e51b81526020600482015260226024820152600080516020612bba833981519152604482019081526137b760f11b6064830152608482fd5b5061013461025936600461255c565b610904565b3480156102a55760405162461bcd60e51b81526020600482015260226024820152600080516020612bba833981519152604482019081526137b760f11b6064830152608482fd5b506102b96102b43660046122be565b610e4e565b6040516101fa9190612654565b34801561030d5760405162461bcd60e51b81526020600482015260226024820152600080516020612bba833981519152604482019081526137b760f11b6064830152608482fd5b5061032161031c3660046122be565b610ecd565b6040516101fa97969594939291906126e4565b610347610342366004612803565b61101f565b6040519081526020016101fa565b34801561039c5760405162461bcd60e51b81526020600482015260226024820152600080516020612bba833981519152604482019081526137b760f11b6064830152608482fd5b506103dd6103ab366004612860565b7f00000000000000000000000000000000000000000000000000000000000000006001600160a01b0390811691161490565b60405190151581526020016101fa565b3480156104345760405162461bcd60e51b81526020600482015260226024820152600080516020612bba833981519152604482019081526137b760f11b6064830152608482fd5b50610134611122565b3480156104845760405162461bcd60e51b81526020600482015260226024820152600080516020612bba833981519152604482019081526137b760f11b6064830152608482fd5b5061048d6111a7565b6040516101fa919061287e565b3480156104e15760405162461bcd60e51b81526020600482015260226024820152600080516020612bba833981519152604482019081526137b760f11b6064830152608482fd5b5061034760045481565b3480156105325760405162461bcd60e51b81526020600482015260226024820152600080516020612bba833981519152604482019081526137b760f11b6064830152608482fd5b506000546040516001600160a01b0390911681526020016101fa565b3480156105955760405162461bcd60e51b81526020600482015260226024820152600080516020612bba833981519152604482019081526137b760f11b6064830152608482fd5b506103dd6105a43660046122be565b61120d565b3480156105f05760405162461bcd60e51b81526020600482015260226024820152600080516020612bba833981519152604482019081526137b760f11b6064830152608482fd5b506103476105ff366004612909565b61136b565b34801561064b5760405162461bcd60e51b81526020600482015260226024820152600080516020612bba833981519152604482019081526137b760f11b6064830152608482fd5b5061034761065a3660046129d1565b6115e9565b3480156106a65760405162461bcd60e51b81526020600482015260226024820152600080516020612bba833981519152604482019081526137b760f11b6064830152608482fd5b506103476106b53660046129d1565b611653565b3480156107015760405162461bcd60e51b81526020600482015260226024820152600080516020612bba833981519152604482019081526137b760f11b6064830152608482fd5b5061034760035481565b3480156107525760405162461bcd60e51b81526020600482015260226024820152600080516020612bba833981519152604482019081526137b760f11b6064830152608482fd5b50610134610761366004612860565b6116ae565b610347610774366004612a14565b611795565b6107bc8160405160240161078d9190612a3c565b60408051601f198184030181529190526020810180516001600160e01b031663104c13eb60e21b1790526119cc565b50565b6000818152600160205260608181846107dc565b60405180910390fd5b6000868152600160205260409020600381015460068201546004830180546001600160a01b03909316929091610100900460ff16906005850190839061082190612a4f565b80601f016020809104026020016040519081016040528092919081815260200182805461084d90612a4f565b801561089a5780601f1061086f5761010080835404028352916020019161089a565b820191906000526020600020905b81548152906001019060200180831161087d57829003601f168201915b50505050509250808054806020026020016040519081016040528092919081815260200182805480156108ec57602002820191906000526020600020905b8154815260200190600101908083116108d8575b50505050509050955095509550955050509193509193565b60008490526001602052836109176119ed565b6000828152600160205260409020600301546001600160a01b039081169116146109835760405162461bcd60e51b815260206004820152601d60248201527f4f6e6c79206e6f6465206f776e65722063616e2065646974206e6f646500000060448201526064016107d3565b60008451116109cc5760405162461bcd60e51b8152602060048201526015602482015274139bc81859191c995cdcd95cc81c1c9bdd9a591959605a1b60448201526064016107d3565b8151845114610a325760405162461bcd60e51b815260206004820152602c60248201527f4d7573742062652073616d65206e756d626572206f662061646472657373657360448201526b20616e6420616d6f756e747360a01b60648201526084016107d3565b6000805b8551811015610e45576000848281518110610a5357610a53612a83565b602002602001015111610a6557600080fd5b848181518110610a7757610a77612a83565b6020026020010151915060005b600088815260026020526040902054811015610e3257600088815260026020526040902080546001600160a01b038516919083908110610ac657610ac6612a83565b60009182526020909120600290910201546001600160a01b031603610e2057848281518110610af757610af7612a83565b6020026020010151600260008a81526020019081526020016000208281548110610b2357610b23612a83565b9060005260206000209060020201600101541015610b4057600080fd5b848281518110610b5257610b52612a83565b6020026020010151600260008a81526020019081526020016000208281548110610b7e57610b7e612a83565b90600052602060002090600202016001016000828254610b9e9190612aaf565b90915550506001600160a01b038316610c9557848281518110610bc357610bc3612a83565b6020026020010151471015610c245760405162461bcd60e51b815260206004820152602160248201527f436f6e7472616374206d757374206861766520656e6f7567682062616c616e636044820152606560f81b60648201526084016107d3565b868281518110610c3657610c36612a83565b60200260200101516001600160a01b03166108fc868481518110610c5c57610c5c612a83565b60200260200101519081150290604051600060405180830381858888f19350505050158015610c8f573d6000803e3d6000fd5b50610e20565b6000839050858381518110610cac57610cac612a83565b60209081029190910101516040516370a0823160e01b81523060048201526001600160a01b038316906370a082319060240160206040518083038186803b158015610d465760405162461bcd60e51b815260206004820152602560248201527f54617267657420636f6e747261637420646f6573206e6f7420636f6e7461696e604482019081526420636f646560d81b6064830152608482fd5b505afa158015610d5a573d6000803e3d6000fd5b505050506040513d601f19601f82011682018060405250810190610d7e9190612ac6565b1015610dcc5760405162461bcd60e51b815260206004820181905260248201527f436f6e7472616374206d757374206861766520656e6f75676820746f6b656e7360448201526064016107d3565b610e1e30898581518110610de257610de2612a83565b6020026020010151888681518110610dfc57610dfc612a83565b6020026020010151846001600160a01b03166119f7909392919063ffffffff16565b505b80610e2a81612ae2565b915050610a84565b5080610e3d81612ae2565b915050610a36565b50505050505050565b60008181526002602090815260408083208054825181850281018501909352808352606094869484015b82821015610ec0576000848152602090819020604080518082019091526002850290910180546001600160a01b03168252600190810154828401529083529092019101610e78565b5050505091505b50919050565b6000818152600160208190526040822090810154600382015460068301546002840154600485018054879687966060968796899687968e966001600160a01b039094169360ff80851694929360058901936101009004909116918490610f3290612a4f565b80601f0160208091040260200160405190810160405280929190818152602001828054610f5e90612a4f565b8015610fab5780601f10610f8057610100808354040283529160200191610fab565b820191906000526020600020905b815481529060010190602001808311610f8e57829003601f168201915b5050505050935082805480602002602001604051908101604052809291908181526020018280548015610ffd57602002820191906000526020600020905b815481526020019060010190808311610fe9575b5050505050925098509850985098509850985098505050919395979092949650565b6000806001600160a01b03841661105757600034116110505760405162461bcd60e51b81526004016107d390612afb565b5034611064565b6110618484611a57565b50815b600061107d600454876110756119ed565b600080611c45565b6000818152600260208181526040808420815180830183526001600160a01b038c811682528185018a81528354600180820186559489529786902092519790960290910180546001600160a01b03191696909116959095178555925193909201929092558051808201909152601081526f5461736b43726561746f72536861726560801b918101919091529091506111169082906115e9565b509150505b9392505050565b61112a6119ed565b6001600160a01b03166111456000546001600160a01b031690565b6001600160a01b03161461119b5760405162461bcd60e51b815260206004820181905260248201527f4f776e61626c653a2063616c6c6572206973206e6f7420746865206f776e657260448201526064016107d3565b6111a56000611e51565b565b60045460009081526001602090815260409182902060050180548351818402810184019094528084526060939283018282801561120357602002820191906000526020600020905b8154815260200190600101908083116111ef575b5050505050905090565b600081815260016020908152604080832060050180548251818502810185019093528083528593859392919083018282801561126857602002820191906000526020600020905b815481526020019060010190808311611254575b5050505050905060005b8151811015611360576112836119ed565b6001600160a01b0316600160008484815181106112a2576112a2612a83565b6020908102919091018101518252810191909152604001600020600301546001600160a01b0316036112d957600193505050610ec7565b6000600160008484815181106112f1576112f1612a83565b6020026020010151815260200190815260200160002060050180549050111561134e57600061133883838151811061132b5761132b612a83565b602002602001015161120d565b9050801561134c5760019450505050610ec7565b505b8061135881612ae2565b915050611272565b506000949350505050565b600081518351146113d55760405162461bcd60e51b815260206004820152602e60248201527f4e756d626572206f66206e6f646520706174687320616e642069734f70656e7360448201526d081b5d5cdd08189948195c5d585b60921b60648201526084016107d3565b6000805b84518110156115e157600080600160008885815181106113fb576113fb612a83565b60209081029190910181015182528101919091526040016000206006015460ff16600281111561142d5761142d6126ac565b03611476576001600087848151811061144857611448612a83565b6020908102919091018101518252810191909152604001600020600301546001600160a01b031690506114d2565b600160006001600089868151811061149057611490612a83565b6020026020010151815260200190815260200160002060020154815260200190815260200160002060030160009054906101000a90046001600160a01b031690505b60006114dc6119ed565b6001600160a01b0316826001600160a01b0316148015611555575085838151811061150957611509612a83565b602002602001015115156001600089868151811061152957611529612a83565b6020026020010151815260200190815260200160002060060160019054906101000a900460ff16151514155b905080156115cc5785838151811061156f5761156f612a83565b60200260200101516001600089868151811061158d5761158d612a83565b6020026020010151815260200190815260200160002060060160016101000a81548160ff02191690831515021790555083806115c890612ae2565b9450505b505080806115d990612ae2565b9150506113d9565b509392505050565b60008281526001602052604081206006015483908290819060ff166002811115611615576116156126ac565b03611621575083611635565b506000848152600160205260409020600201545b61164a85856116426119ed565b600285611c45565b95945050505050565b600082815260016020526040812060060154839060029060ff168181111561167d5761167d6126ac565b1461168757600080fd5b60008481526001602052604090206002015461164a85856116a66119ed565b600185611c45565b6116b66119ed565b6001600160a01b03166116d16000546001600160a01b031690565b6001600160a01b0316146117275760405162461bcd60e51b815260206004820181905260248201527f4f776e61626c653a2063616c6c6572206973206e6f7420746865206f776e657260448201526064016107d3565b6001600160a01b03811661178c5760405162461bcd60e51b815260206004820152602660248201527f4f776e61626c653a206e6577206f776e657220697320746865207a65726f206160448201526564647265737360d01b60648201526084016107d3565b6107bc81611e51565b600083815260016020528360006001600160a01b0385166117d757600034116117d05760405162461bcd60e51b81526004016107d390612afb565b50346117e4565b6117e18585611a57565b50825b60005b6000878152600260205260409020548110156118dd57600087815260026020526040902080546001600160a01b03881691908390811061182957611829612a83565b60009182526020909120600290910201546001600160a01b0316036118cb57600087815260026020526040902080548391908390811061186b5761186b612a83565b9060005260206000209060020201600101600082825461188b9190612b51565b909155505060008781526002602052604090208054829081106118b0576118b0612a83565b906000526020600020906002020160010154935050506115e1565b806118d581612ae2565b9150506117e7565b5060405162461bcd60e51b815260206004820152602b60248201527f4e6f206578697374696e6720626f756e7479207769746820746f6b656e20616460448201526a191c995cdcc8199bdd5b9960aa1b60648201526084016107d3565b6107bc8160405160240161195091815260200190565b60408051601f198184030181529190526020810180516001600160e01b03166327b7cf8560e01b1790526119cc565b60007f00000000000000000000000000000000000000000000000000000000000000006001600160a01b031633036119be575060131936013560601c90565b503390565b905090565b3390565b80516a636f6e736f6c652e6c6f67602083016000808483855afa5050505050565b60006119c361197f565b604080516001600160a01b0385811660248301528416604482015260648082018490528251808303909101815260849091019091526020810180516001600160e01b03166323b872dd60e01b179052611a51908590611ea1565b50505050565b6000826001600160a01b03163b11611ac25760405162461bcd60e51b815260206004820152602860248201527f5f746f6b656e41646472657373206d757374206265206120636f6e7472616374604482015267206164647265737360c01b60648201526084016107d3565b60008111611b385760405162461bcd60e51b815260206004820152603860248201527f455243323020746f6b656e206d7573742068617665205f616d6f756e7420746f60448201527f20637265617465207461736b207769746820626f756e7479000000000000000060648201526084016107d3565b81816001600160a01b0382166370a08231611b516119ed565b6040516001600160e01b031960e084901b1681526001600160a01b03909116600482015260240160206040518083038186803b158015611be05760405162461bcd60e51b815260206004820152602560248201527f54617267657420636f6e747261637420646f6573206e6f7420636f6e7461696e604482019081526420636f646560d81b6064830152608482fd5b505afa158015611bf4573d6000803e3d6000fd5b505050506040513d601f19601f82011682018060405250810190611c189190612ac6565b1015611c2357600080fd5b611c40611c2e6119ed565b6001600160a01b0383169030856119f7565b505050565b600080855111611c5457600080fd5b6000611c5e611f73565b905060008782604051602001611c7e929190918252602082015260400190565b60408051601f198184030181528282528051602091820120610100840183528084528184018c90528383018890526001600160a01b038a166060850152608084018b905282516000815291820190925260a0830152915060c08101866002811115611ceb57611ceb6126ac565b8152600160209182018190526000848152818352604090819020845181558484015192810192909255830151600282015560608301516003820180546001600160a01b0319166001600160a01b03909216919091179055608083015180519192611d5d9260048501929091019061214b565b5060a08201518051611d799160058401916020909101906121cf565b5060c082015160068201805460ff19166001836002811115611d9d57611d9d6126ac565b021790555060e09190910151600690910180549115156101000261ff00199092169190911790556000888152600160208181526040832060050180548084018255908452908320018390556003805491929091611dfb908490612b51565b9250508190555087866001600160a01b03167f92f79e4ee75e2f5728dfd026fd65e2fd7e6677ce4945b6e08f0a4d1d81da61a48388604051611e3e929190612b69565b60405180910390a3979650505050505050565b600080546001600160a01b038381166001600160a01b0319831681178455604051919092169283917f8be0079c531659141344cd1fd0a4f28419497f9722a3daafe3b4186f6b6457e09190a35050565b6000611ef6826040518060400160405280602081526020017f5361666545524332303a206c6f772d6c6576656c2063616c6c206661696c6564815250856001600160a01b0316611fca9092919063ffffffff16565b805190915015611c405780806020019051810190611f149190612b7d565b611c405760405162461bcd60e51b815260206004820152602a60248201527f5361666545524332303a204552433230206f7065726174696f6e20646964206e6044820152691bdd081cdd58d8d9595960b21b60648201526084016107d3565b60006003546001611f849190612b51565b611f8c6119ed565b604051602001611faf9291909182526001600160a01b0316602082015260400190565b60405160208183030381529060405280519060200120905090565b6060611fd98484600085611fe1565b949350505050565b6060824710156120425760405162461bcd60e51b815260206004820152602660248201527f416464726573733a20696e73756666696369656e742062616c616e636520666f6044820152651c8818d85b1b60d21b60648201526084016107d3565b6001600160a01b0385163b6120995760405162461bcd60e51b815260206004820152601d60248201527f416464726573733a2063616c6c20746f206e6f6e2d636f6e747261637400000060448201526064016107d3565b600080866001600160a01b031685876040516120b59190612b9d565b60006040518083038185875af1925050503d80600081146120f2576040519150601f19603f3d011682016040523d82523d6000602084013e6120f7565b606091505b5091509150612107828286612112565b979650505050505050565b6060831561212157508161111b565b8251156121315782518084602001fd5b8160405162461bcd60e51b81526004016107d39190612a3c565b82805461215790612a4f565b90600052602060002090601f01602090048101928261217957600085556121bf565b82601f1061219257805160ff19168380011785556121bf565b828001600101855582156121bf579182015b828111156121bf5782518255916020019190600101906121a4565b506121cb929150612209565b5090565b8280548282559060005260206000209081019282156121bf57916020028201828111156121bf5782518255916020019190600101906121a4565b5b808211156121cb576000815560010161220a565b60405162461bcd60e51b815260206004820152602260248201527f414249206465636f64696e673a207475706c65206461746120746f6f2073686f6044820152611c9d60f21b6064820152608481fd5b60405162461bcd60e51b815260206004820152602260248201527f414249206465636f64696e673a20696e76616c6964207475706c65206f666673604482015261195d60f21b6064820152608481fd5b6000602082840312156122d3576122d361221e565b5035919050565b60005b838110156122f55781810151838201526020016122dd565b83811115611a515750506000910152565b6000815180845261231e8160208601602086016122da565b601f01601f19169290920160200192915050565b600081518084526020808501945080840160005b8381101561236257815187529582019590820190600101612346565b509495945050505050565b6001600160a01b038516815260806020820181905260009061239190830186612306565b841515604084015282810360608401526121078185612332565b60405162461bcd60e51b815260206004820152602b60248201527f414249206465636f64696e673a20696e76616c69642063616c6c64617461206160448201526a1c9c985e481bd9999cd95d60aa1b6064820152608481fd5b634e487b7160e01b600052604160045260246000fd5b604051601f8201601f1916810167ffffffffffffffff8111828210171561244357612443612404565b604052919050565b600067ffffffffffffffff82111561246557612465612404565b5060051b60200190565b60405162461bcd60e51b815260206004820152602b60248201527f414249206465636f64696e673a20696e76616c69642063616c6c64617461206160448201526a727261792073747269646560a81b6064820152608481fd5b80356001600160a01b03811681146124df57600080fd5b919050565b600082601f8301126124f8576124f86123ab565b8135602061250d6125088361244b565b61241a565b82815260059290921b8401810191818101908684111561252f5761252f61246f565b8286015b8481101561255157612544816124c8565b8352918301918301612533565b509695505050505050565b600080600080608085870312156125755761257561221e565b8435935060208086013567ffffffffffffffff808211156125985761259861226e565b6125a489838a016124e4565b955060408801359150808211156125bd576125bd61226e565b6125c989838a016124e4565b945060608801359150808211156125e2576125e261226e565b508601601f810188136125f7576125f76123ab565b80356126056125088261244b565b81815260059190911b8201830190838101908a8311156126275761262761246f565b928401925b828410156126455783358252928401929084019061262c565b979a9699509497505050505050565b602080825282518282018190526000919060409081850190868401855b8281101561269f57815180516001600160a01b03168552860151868501529284019290850190600101612671565b5091979650505050505050565b634e487b7160e01b600052602160045260246000fd5b600381106126e057634e487b7160e01b600052602160045260246000fd5b9052565b8781526001600160a01b038716602082015261270360408201876126c2565b60e06060820152600061271960e0830187612306565b828103608084015261272b8187612332565b94151560a0840152505060c0015295945050505050565b600082601f830112612756576127566123ab565b8135602067ffffffffffffffff82111561277257612772612404565b612784601f8301601f1916820161241a565b82815285828487010111156127e85760405162461bcd60e51b815260048101839052602760248201527f414249206465636f64696e673a20696e76616c69642062797465206172726179604482015266040d8cadccee8d60cb1b6064820152608481fd5b82828601838301376000928101909101919091529392505050565b60008060006060848603121561281b5761281b61221e565b833567ffffffffffffffff8111156128355761283561226e565b61284186828701612742565b935050612850602085016124c8565b9150604084013590509250925092565b6000602082840312156128755761287561221e565b61111b826124c8565b60208152600061111b6020830184612332565b80151581146107bc57600080fd5b600082601f8301126128b3576128b36123ab565b813560206128c36125088361244b565b82815260059290921b840181019181810190868411156128e5576128e561246f565b8286015b848110156125515780356128fc81612891565b83529183019183016128e9565b6000806040838503121561291f5761291f61221e565b823567ffffffffffffffff8082111561293a5761293a61226e565b818501915085601f830112612951576129516123ab565b813560206129616125088361244b565b82815260059290921b840181019181810190898411156129835761298361246f565b948201945b838610156129a157853582529482019490820190612988565b965050860135925050808211156129ba576129ba61226e565b506129c78582860161289f565b9150509250929050565b600080604083850312156129e7576129e761221e565b82359150602083013567ffffffffffffffff811115612a0857612a0861226e565b6129c785828601612742565b600080600060608486031215612a2c57612a2c61221e565b83359250612850602085016124c8565b60208152600061111b6020830184612306565b600181811c90821680612a6357607f821691505b602082108103610ec757634e487b7160e01b600052602260045260246000fd5b634e487b7160e01b600052603260045260246000fd5b634e487b7160e01b600052601160045260246000fd5b600082821015612ac157612ac1612a99565b500390565b600060208284031215612adb57612adb61221e565b5051919050565b600060018201612af457612af4612a99565b5060010190565b60208082526036908201527f5472616e73616374696f6e206d75737420686176652076616c756520746f20636040820152757265617465207461736b207769746820626f756e747960501b606082015260800190565b60008219821115612b6457612b64612a99565b500190565b8281526040810161111b60208301846126c2565b600060208284031215612b9257612b9261221e565b815161111b81612891565b60008251612baf8184602087016122da565b919091019291505056fe45746865722073656e7420746f206e6f6e2d70617961626c652066756e637469a2646970667358221220803abd21ddb6e05a97a8dce96c6eb100f01d927e683d04f65e2b6f065e7515a564736f6c634300080d003343726561746564205461736b506f7274616c20726f6f74207461736b20776974682070617468",
    "linkReferences": {}
  },
  "methodIdentifiers": {
    "addShare(bytes32,bytes)": "e985ccd7",
    "addSolution(bytes32,bytes)": "ee5e9d9e",
    "addTask(bytes,address,uint256)": "5357d429",
    "getAllTasks()": "779900b4",
    "getBountiesForTask(bytes32)": "4498c6cf",
    "getNode(bytes32)": "50c946fe",
    "getTask(bytes32)": "15a29035",
    "hasSenderContributedToAnySubnode(bytes32)": "c059a6e1",
    "increaseBounty(bytes32,address,uint256)": "fe949a11",
    "isTrustedForwarder(address)": "572b6c05",
    "nodesCount()": "f1a3c5b3",
    "owner()": "8da5cb5b",
    "payoutTask(bytes32,address[],address[],uint256[])": "3047c26d",
    "renounceOwnership()": "715018a6",
    "rootTaskPath()": "8973df07",
    "transferOwnership(address)": "f2fde38b",
    "updateNodesIsOpen(bytes32[],bool[])": "d03388db"
  },
  "id": 14
}