{
  "abi": [
    {
      "inputs": [
        {
          "internalType": "address",
          "name": "trustedForwarder",
          "type": "address"
        }
      ],
      "stateMutability": "nonpayable",
      "type": "constructor"
    },
    {
      "anonymous": false,
      "inputs": [
        {
          "indexed": true,
          "internalType": "bytes32",
          "name": "path",
          "type": "bytes32"
        },
        {
          "indexed": true,
          "internalType": "address",
          "name": "tokenAddress",
          "type": "address"
        },
        {
          "indexed": false,
          "internalType": "uint256",
          "name": "amount",
          "type": "uint256"
        }
      ],
      "name": "BountyUpdated",
      "type": "event"
    },
    {
      "anonymous": false,
      "inputs": [
        {
          "indexed": true,
          "internalType": "bytes32",
          "name": "path",
          "type": "bytes32"
        },
        {
          "indexed": true,
          "internalType": "address",
          "name": "owner",
          "type": "address"
        },
        {
          "indexed": true,
          "internalType": "enum NodeType",
          "name": "nodeType",
          "type": "uint8"
        },
        {
          "indexed": false,
          "internalType": "bytes32",
          "name": "parent",
          "type": "bytes32"
        }
      ],
      "name": "NodeUpdated",
      "type": "event"
    },
    {
      "anonymous": false,
      "inputs": [
        {
          "indexed": true,
          "internalType": "address",
          "name": "previousOwner",
          "type": "address"
        },
        {
          "indexed": true,
          "internalType": "address",
          "name": "newOwner",
          "type": "address"
        }
      ],
      "name": "OwnershipTransferred",
      "type": "event"
    },
    {
      "inputs": [
        {
          "internalType": "bytes32",
          "name": "_parent",
          "type": "bytes32"
        },
        {
          "internalType": "bytes",
          "name": "_data",
          "type": "bytes"
        }
      ],
      "name": "addShare",
      "outputs": [
        {
          "internalType": "bytes32",
          "name": "",
          "type": "bytes32"
        }
      ],
      "stateMutability": "nonpayable",
      "type": "function"
    },
    {
      "inputs": [
        {
          "internalType": "bytes32",
          "name": "_parent",
          "type": "bytes32"
        },
        {
          "internalType": "bytes",
          "name": "_data",
          "type": "bytes"
        }
      ],
      "name": "addSolution",
      "outputs": [
        {
          "internalType": "bytes32",
          "name": "",
          "type": "bytes32"
        }
      ],
      "stateMutability": "nonpayable",
      "type": "function"
    },
    {
      "inputs": [
        {
          "internalType": "bytes",
          "name": "_data",
          "type": "bytes"
        },
        {
          "internalType": "address",
          "name": "_tokenAddress",
          "type": "address"
        },
        {
          "internalType": "uint256",
          "name": "_amount",
          "type": "uint256"
        }
      ],
      "name": "addTask",
      "outputs": [
        {
          "internalType": "bytes32",
          "name": "",
          "type": "bytes32"
        }
      ],
      "stateMutability": "payable",
      "type": "function"
    },
    {
      "inputs": [],
      "name": "getAllTasks",
      "outputs": [
        {
          "internalType": "bytes32[]",
          "name": "",
          "type": "bytes32[]"
        }
      ],
      "stateMutability": "view",
      "type": "function"
    },
    {
      "inputs": [
        {
          "internalType": "bytes32",
          "name": "_path",
          "type": "bytes32"
        }
      ],
      "name": "getBountiesForTask",
      "outputs": [
        {
          "components": [
            {
              "internalType": "address",
              "name": "tokenAddress",
              "type": "address"
            },
            {
              "internalType": "uint256",
              "name": "amount",
              "type": "uint256"
            }
          ],
          "internalType": "struct Bounty[]",
          "name": "",
          "type": "tuple[]"
        }
      ],
      "stateMutability": "view",
      "type": "function"
    },
    {
      "inputs": [
        {
          "internalType": "bytes32",
          "name": "_path",
          "type": "bytes32"
        }
      ],
      "name": "getNode",
      "outputs": [
        {
          "internalType": "bytes32",
          "name": "",
          "type": "bytes32"
        },
        {
          "internalType": "address",
          "name": "",
          "type": "address"
        },
        {
          "internalType": "enum NodeType",
          "name": "",
          "type": "uint8"
        },
        {
          "internalType": "bytes",
          "name": "",
          "type": "bytes"
        },
        {
          "internalType": "bytes32[]",
          "name": "",
          "type": "bytes32[]"
        },
        {
          "internalType": "bool",
          "name": "",
          "type": "bool"
        },
        {
          "internalType": "bytes32",
          "name": "",
          "type": "bytes32"
        }
      ],
      "stateMutability": "view",
      "type": "function"
    },
    {
      "inputs": [
        {
          "internalType": "bytes32",
          "name": "_path",
          "type": "bytes32"
        }
      ],
      "name": "getTask",
      "outputs": [
        {
          "internalType": "address",
          "name": "",
          "type": "address"
        },
        {
          "internalType": "bytes",
          "name": "",
          "type": "bytes"
        },
        {
          "internalType": "bool",
          "name": "",
          "type": "bool"
        },
        {
          "internalType": "bytes32[]",
          "name": "",
          "type": "bytes32[]"
        }
      ],
      "stateMutability": "view",
      "type": "function"
    },
    {
      "inputs": [
        {
          "internalType": "bytes32",
          "name": "_taskPath",
          "type": "bytes32"
        },
        {
          "internalType": "address",
          "name": "_tokenAddress",
          "type": "address"
        },
        {
          "internalType": "uint256",
          "name": "_amount",
          "type": "uint256"
        }
      ],
      "name": "increaseBounty",
      "outputs": [],
      "stateMutability": "payable",
      "type": "function"
    },
    {
      "inputs": [
        {
          "internalType": "address",
          "name": "forwarder",
          "type": "address"
        }
      ],
      "name": "isTrustedForwarder",
      "outputs": [
        {
          "internalType": "bool",
          "name": "",
          "type": "bool"
        }
      ],
      "stateMutability": "view",
      "type": "function"
    },
    {
      "inputs": [],
      "name": "nodesCount",
      "outputs": [
        {
          "internalType": "uint256",
          "name": "",
          "type": "uint256"
        }
      ],
      "stateMutability": "view",
      "type": "function"
    },
    {
      "inputs": [],
      "name": "owner",
      "outputs": [
        {
          "internalType": "address",
          "name": "",
          "type": "address"
        }
      ],
      "stateMutability": "view",
      "type": "function"
    },
    {
      "inputs": [
        {
          "internalType": "bytes32",
          "name": "taskPath",
          "type": "bytes32"
        },
        {
          "internalType": "address[]",
          "name": "addresses",
          "type": "address[]"
        },
        {
          "internalType": "address[]",
          "name": "tokenAddresses",
          "type": "address[]"
        },
        {
          "internalType": "uint256[]",
          "name": "amounts",
          "type": "uint256[]"
        }
      ],
      "name": "payoutTask",
      "outputs": [],
      "stateMutability": "nonpayable",
      "type": "function"
    },
    {
      "inputs": [],
      "name": "renounceOwnership",
      "outputs": [],
      "stateMutability": "nonpayable",
      "type": "function"
    },
    {
      "inputs": [],
      "name": "rootTaskPath",
      "outputs": [
        {
          "internalType": "bytes32",
          "name": "",
          "type": "bytes32"
        }
      ],
      "stateMutability": "view",
      "type": "function"
    },
    {
      "inputs": [
        {
          "internalType": "address",
          "name": "trustedForwarder",
          "type": "address"
        }
      ],
      "name": "setTrustedForwarder",
      "outputs": [],
      "stateMutability": "nonpayable",
      "type": "function"
    },
    {
      "inputs": [
        {
          "internalType": "address",
          "name": "newOwner",
          "type": "address"
        }
      ],
      "name": "transferOwnership",
      "outputs": [],
      "stateMutability": "nonpayable",
      "type": "function"
    },
    {
      "inputs": [
        {
          "internalType": "bytes32[]",
          "name": "_paths",
          "type": "bytes32[]"
        },
        {
          "internalType": "bool[]",
          "name": "_isOpens",
          "type": "bool[]"
        }
      ],
      "name": "updateNodesIsOpen",
      "outputs": [
        {
          "internalType": "uint256",
          "name": "",
          "type": "uint256"
        }
      ],
      "stateMutability": "nonpayable",
      "type": "function"
    },
    {
      "inputs": [
        {
          "internalType": "bytes32",
          "name": "_path",
          "type": "bytes32"
        },
        {
          "internalType": "bytes",
          "name": "_data",
          "type": "bytes"
        }
      ],
      "name": "updateTaskData",
      "outputs": [],
      "stateMutability": "nonpayable",
      "type": "function"
    },
    {
      "inputs": [
        {
          "internalType": "bytes32",
          "name": "_path",
          "type": "bytes32"
        },
        {
          "internalType": "address",
          "name": "_newOwner",
          "type": "address"
        }
      ],
      "name": "updateTaskOwner",
      "outputs": [],
      "stateMutability": "nonpayable",
      "type": "function"
    },
    {
      "inputs": [
        {
          "internalType": "uint256",
          "name": "_amount",
          "type": "uint256"
        }
      ],
      "name": "withdrawToOwner",
      "outputs": [],
      "stateMutability": "nonpayable",
      "type": "function"
    },
    {
      "inputs": [
        {
          "internalType": "address",
          "name": "_tokenAddress",
          "type": "address"
        },
        {
          "internalType": "uint256",
          "name": "_amount",
          "type": "uint256"
        }
      ],
      "name": "withdrawTokenToOwner",
      "outputs": [],
      "stateMutability": "nonpayable",
      "type": "function"
    },
    {
      "stateMutability": "payable",
      "type": "receive"
    }
  ],
  "bytecode": {
    "object": "0x60a06040526000600355348015620000635760405162461bcd60e51b815260206004820152602260248201527f45746865722073656e7420746f206e6f6e2d70617961626c652066756e637469604482019081526137b760f11b6064830152608482fd5b506040516200396a3803806200396a8339810160408190526200008691620004f8565b6001600160a01b038116608052620000a7620000a1620000e8565b62000104565b620000de600060405180604001604052806008815260200167526f6f745461736b60c01b815250336000806200015460201b60201c565b60045550620005ee565b6000620000ff6200037d60201b62001e5a1760201c565b905090565b600080546001600160a01b038381166001600160a01b0319831681178455604051919092169283917f8be0079c531659141344cd1fd0a4f28419497f9722a3daafe3b4186f6b6457e09190a35050565b6000808551116200016457600080fd5b600062000170620003b5565b90506000878260405160200162000191929190918252602082015260400190565b60408051601f198184030181528282528051602091820120610100840183526001600160a01b038a1684528184018b9052825160008152918201835291830152915060608101866002811115620001ec57620001ec62000575565b8152600160208083018290526040808401869052606084018d90526080909301889052600085815282825292909220835181546001600160a01b0319166001600160a01b039091161781558383015180519193620002509385019291019062000415565b50604082015180516200026e916002840191602090910190620004a4565b50606082015160038201805460ff1916600183600281111562000295576200029562000575565b02179055506080820151600380830180549215156101000261ff00199093169290921790915560a0830151600483015560c0830151600583015560e090920151600690910155600089815260016020818152604083206002018054808401825590845290832001849055825490929190620003129084906200058b565b9091555085905060028111156200032d576200032d62000575565b866001600160a01b0316827fcd4204a6cfd0ad4e00073973d9db47cc8ee30485ec5f0fe3c9b23538f2c7d2488b6040516200036a91815260200190565b60405180910390a4979650505050505050565b6080516000906001600160a01b03163303620003a0575060131936013560601c90565b620000ff6200041160201b62001ea31760201c565b60006003546001620003c891906200058b565b620003d2620000e8565b604051602001620003f69291909182526001600160a01b0316602082015260400190565b60405160208183030381529060405280519060200120905090565b3390565b8280546200042390620005b2565b90600052602060002090601f01602090048101928262000447576000855562000492565b82601f106200046257805160ff191683800117855562000492565b8280016001018555821562000492579182015b828111156200049257825182559160200191906001019062000475565b50620004a0929150620004e1565b5090565b8280548282559060005260206000209081019282156200049257916020028201828111156200049257825182559160200191906001019062000475565b5b80821115620004a05760008155600101620004e2565b600060208284031215620005565760405162461bcd60e51b815260206004820152602260248201527f414249206465636f64696e673a207475706c65206461746120746f6f2073686f6044820152611c9d60f21b6064820152608481fd5b81516001600160a01b03811681146200056e57600080fd5b9392505050565b634e487b7160e01b600052602160045260246000fd5b60008219821115620005ad57634e487b7160e01b600052601160045260246000fd5b500190565b600181811c90821680620005c757607f821691505b602082108103620005e857634e487b7160e01b600052602260045260246000fd5b50919050565b608051613359620006116000396000818161048f0152611e5e01526133596000f3fe60806040526004361061012e5760003560e01c8063779900b4116100ab578063e985ccd71161006f578063e985ccd714610741578063ee5e9d9e1461079c578063f1a3c5b3146107f7578063f2fde38b14610848578063fe408658146108a3578063fe949a11146108fe57610162565b8063779900b41461057a5780638973df07146105d75780638da5cb5b14610628578063d03388db1461068b578063da742228146106e657610162565b80635357d429116100f25780635357d429146103bb57806356a6338f146103dc578063572b6c05146104375780636a5bbc1d146104cf578063715018a61461052a57610162565b806315a29035146101bb5780633047c26d1461022f5780634498c6cf1461028a5780634723218d146102f257806350c946fe1461034d57610162565b36610162576101606040518060400160405280600c81526020016b0a48a868a92ac8a88408aa8960a31b815250610911565b005b60405162461bcd60e51b815260206004820152602960248201527f556e6b6e6f776e207369676e617475726520616e64206e6f2066616c6c62616360448201908152681ac81919599a5b995960ba1b6064830152608482fd5b3480156102025760405162461bcd60e51b815260206004820152602260248201526000805160206132e4833981519152604482019081526137b760f11b6064830152608482fd5b506102166102113660046128cb565b610957565b604051610226949392919061297a565b60405180910390f35b3480156102765760405162461bcd60e51b815260206004820152602260248201526000805160206132e4833981519152604482019081526137b760f11b6064830152608482fd5b50610160610285366004612b69565b610ae3565b3480156102d15760405162461bcd60e51b815260206004820152602260248201526000805160206132e4833981519152604482019081526137b760f11b6064830152608482fd5b506102e56102e03660046128cb565b611029565b6040516102269190612c61565b3480156103395760405162461bcd60e51b815260206004820152602260248201526000805160206132e4833981519152604482019081526137b760f11b6064830152608482fd5b50610160610348366004612cb9565b6110f2565b3480156103945760405162461bcd60e51b815260206004820152602260248201526000805160206132e4833981519152604482019081526137b760f11b6064830152608482fd5b506103a86103a33660046128cb565b61121e565b6040516102269796959493929190612cfe565b6103ce6103c9366004612e34565b611373565b604051908152602001610226565b3480156104235760405162461bcd60e51b815260206004820152602260248201526000805160206132e4833981519152604482019081526137b760f11b6064830152608482fd5b50610160610432366004612e91565b611476565b34801561047e5760405162461bcd60e51b815260206004820152602260248201526000805160206132e4833981519152604482019081526137b760f11b6064830152608482fd5b506104bf61048d366004612ebe565b7f00000000000000000000000000000000000000000000000000000000000000006001600160a01b0390811691161490565b6040519015158152602001610226565b3480156105165760405162461bcd60e51b815260206004820152602260248201526000805160206132e4833981519152604482019081526137b760f11b6064830152608482fd5b506101606105253660046128cb565b611605565b3480156105715760405162461bcd60e51b815260206004820152602260248201526000805160206132e4833981519152604482019081526137b760f11b6064830152608482fd5b506101606116ab565b3480156105c15760405162461bcd60e51b815260206004820152602260248201526000805160206132e4833981519152604482019081526137b760f11b6064830152608482fd5b506105ca611700565b6040516102269190612edc565b34801561061e5760405162461bcd60e51b815260206004820152602260248201526000805160206132e4833981519152604482019081526137b760f11b6064830152608482fd5b506103ce60045481565b34801561066f5760405162461bcd60e51b815260206004820152602260248201526000805160206132e4833981519152604482019081526137b760f11b6064830152608482fd5b506000546040516001600160a01b039091168152602001610226565b3480156106d25760405162461bcd60e51b815260206004820152602260248201526000805160206132e4833981519152604482019081526137b760f11b6064830152608482fd5b506103ce6106e1366004612f67565b611766565b34801561072d5760405162461bcd60e51b815260206004820152602260248201526000805160206132e4833981519152604482019081526137b760f11b6064830152608482fd5b5061016061073c366004612ebe565b6119e1565b3480156107885760405162461bcd60e51b815260206004820152602260248201526000805160206132e4833981519152604482019081526137b760f11b6064830152608482fd5b506103ce61079736600461302f565b611a4c565b3480156107e35760405162461bcd60e51b815260206004820152602260248201526000805160206132e4833981519152604482019081526137b760f11b6064830152608482fd5b506103ce6107f236600461302f565b611ab6565b34801561083e5760405162461bcd60e51b815260206004820152602260248201526000805160206132e4833981519152604482019081526137b760f11b6064830152608482fd5b506103ce60035481565b34801561088f5760405162461bcd60e51b815260206004820152602260248201526000805160206132e4833981519152604482019081526137b760f11b6064830152608482fd5b5061016061089e366004612ebe565b611b11565b3480156108ea5760405162461bcd60e51b815260206004820152602260248201526000805160206132e4833981519152604482019081526137b760f11b6064830152608482fd5b506101606108f936600461302f565b611bc8565b61016061090c366004613072565b611ca5565b61095481604051602401610925919061309a565b60408051601f198184030181529190526020810180516001600160e01b031663104c13eb60e21b179052611ea7565b50565b600081815260016020526060818184610974565b60405180910390fd5b856000808281526001602052604090206003015460ff16600281111561099c5761099c612ce8565b146109b95760405162461bcd60e51b815260040161096b906130ad565b600087815260016020819052604090912080546003820154928201805492936001600160a01b03909216929091610100900460ff1690600285019083906109ff906130da565b80601f0160208091040260200160405190810160405280929190818152602001828054610a2b906130da565b8015610a785780601f10610a4d57610100808354040283529160200191610a78565b820191906000526020600020905b815481529060010190602001808311610a5b57829003601f168201915b5050505050925080805480602002602001604051908101604052809291908181526020018280548015610aca57602002820191906000526020600020905b815481526020019060010190808311610ab6575b5050505050905096509650965096505050509193509193565b6000849052600160205283610af6611ec8565b6000828152600160205260409020546001600160a01b03908116911614610b2f5760405162461bcd60e51b815260040161096b90613114565b846000808281526001602052604090206003015460ff166002811115610b5757610b57612ce8565b14610b745760405162461bcd60e51b815260040161096b906130ad565b6000855111610bbd5760405162461bcd60e51b8152602060048201526015602482015274139bc81859191c995cdcd95cc81c1c9bdd9a591959605a1b604482015260640161096b565b8251855114610c235760405162461bcd60e51b815260206004820152602c60248201527f4d7573742062652073616d65206e756d626572206f662061646472657373657360448201526b20616e6420616d6f756e747360a01b606482015260840161096b565b6000805b865181101561101f576000858281518110610c4457610c4461314b565b602002602001015111610c5657600080fd5b858181518110610c6857610c6861314b565b6020026020010151915060005b60008981526002602052604090205481101561100c57600089815260026020526040902080546001600160a01b038516919083908110610cb757610cb761314b565b60009182526020909120600290910201546001600160a01b031603610ffa57858281518110610ce857610ce861314b565b6020026020010151600260008b81526020019081526020016000208281548110610d1457610d1461314b565b9060005260206000209060020201600101541015610d3157600080fd5b858281518110610d4357610d4361314b565b6020026020010151600260008b81526020019081526020016000208281548110610d6f57610d6f61314b565b90600052602060002090600202016001016000828254610d8f9190613177565b90915550506001600160a01b038316610e4c57858281518110610db457610db461314b565b6020026020010151471015610ddb5760405162461bcd60e51b815260040161096b9061318e565b878281518110610ded57610ded61314b565b60200260200101516001600160a01b03166108fc878481518110610e1357610e1361314b565b60200260200101519081150290604051600060405180830381858888f19350505050158015610e46573d6000803e3d6000fd5b50610ffa565b6000839050868381518110610e6357610e6361314b565b60209081029190910101516040516370a0823160e01b81523060048201526001600160a01b038316906370a082319060240160206040518083038186803b158015610eeb5760405162461bcd60e51b81526020600482015260256024820152600080516020613304833981519152604482019081526420636f646560d81b6064830152608482fd5b505afa158015610eff573d6000803e3d6000fd5b505050506040513d601f19601f82011682018060405250810190610f2391906131cf565b1015610f715760405162461bcd60e51b815260206004820181905260248201527f436f6e7472616374206d757374206861766520656e6f75676820746f6b656e73604482015260640161096b565b610fa830888581518110610f8757610f8761314b565b6020026020010151836001600160a01b0316611ed29092919063ffffffff16565b610ff8898481518110610fbd57610fbd61314b565b6020026020010151888581518110610fd757610fd761314b565b6020026020010151836001600160a01b031661200a9092919063ffffffff16565b505b80611004816131eb565b915050610c75565b5080611017816131eb565b915050610c27565b5050505050505050565b600081815260016020526040812060030154606091839182919060ff16600281111561105757611057612ce8565b146110745760405162461bcd60e51b815260040161096b906130ad565b600084815260026020908152604080832080548251818502810185019093528083529193909284015b828210156110e5576000848152602090819020604080518082019091526002850290910180546001600160a01b0316825260019081015482840152908352909201910161109d565b5050505092505050919050565b6000829052600160205281611105611ec8565b6000828152600160205260409020546001600160a01b0390811691161461113e5760405162461bcd60e51b815260040161096b90613114565b826000808281526001602052604090206003015460ff16600281111561116657611166612ce8565b146111835760405162461bcd60e51b815260040161096b906130ad565b600084815260016020526040902080546001600160a01b0319166001600160a01b0385161781556003015460ff1660028111156111c2576111c2612ce8565b600085815260016020908152604091829020805460059091015492519283526001600160a01b03169187917fcd4204a6cfd0ad4e00073973d9db47cc8ee30485ec5f0fe3c9b23538f2c7d248910160405180910390a450505050565b6000818152600160208190526040822060058101548154600383015460068401549484018054879687966060968796899687968e96949593946001600160a01b039093169360ff808416949293600289019361010090910490911691908490611286906130da565b80601f01602080910402602001604051908101604052809291908181526020018280546112b2906130da565b80156112ff5780601f106112d4576101008083540402835291602001916112ff565b820191906000526020600020905b8154815290600101906020018083116112e257829003601f168201915b505050505093508280548060200260200160405190810160405280929190818152602001828054801561135157602002820191906000526020600020905b81548152602001906001019080831161133d575b5050505050925098509850985098509850985098505050919395979092949650565b6000806001600160a01b0384166113ab57600034116113a45760405162461bcd60e51b815260040161096b90613204565b50346113b8565b6113b5848461203a565b50815b60006113d1600454876113c9611ec8565b600080612211565b6000818152600260208181526040808420815180830183526001600160a01b038c811682528185018a81528354600180820186559489529786902092519790960290910180546001600160a01b03191696909116959095178555925193909201929092558051808201909152601081526f5461736b43726561746f72536861726560801b9181019190915290915061146a908290611a4c565b509150505b9392505050565b61147e611ec8565b6001600160a01b03166114996000546001600160a01b031690565b6001600160a01b0316146114bf5760405162461bcd60e51b815260040161096b9061325a565b6040516370a0823160e01b8152306004820152829082906001600160a01b038316906370a082319060240160206040518083038186803b1580156115405760405162461bcd60e51b81526020600482015260256024820152600080516020613304833981519152604482019081526420636f646560d81b6064830152608482fd5b505afa158015611554573d6000803e3d6000fd5b505050506040513d601f19601f8201168201806040525081019061157891906131cf565b10156115c65760405162461bcd60e51b815260206004820181905260248201527f436f6e7472616374206d757374206861766520656e6f75676820746f6b656e73604482015260640161096b565b6115da6001600160a01b0382163084611ed2565b6116006115ef6000546001600160a01b031690565b6001600160a01b038316908461200a565b505050565b61160d611ec8565b6001600160a01b03166116286000546001600160a01b031690565b6001600160a01b03161461164e5760405162461bcd60e51b815260040161096b9061325a565b8047101561166e5760405162461bcd60e51b815260040161096b9061318e565b600080546040516001600160a01b039091169183156108fc02918491818181858888f193505050501580156116a7573d6000803e3d6000fd5b5050565b6116b3611ec8565b6001600160a01b03166116ce6000546001600160a01b031690565b6001600160a01b0316146116f45760405162461bcd60e51b815260040161096b9061325a565b6116fe6000612426565b565b60045460009081526001602090815260409182902060020180548351818402810184019094528084526060939283018282801561175c57602002820191906000526020600020905b815481526020019060010190808311611748575b5050505050905090565b600081518351146117d05760405162461bcd60e51b815260206004820152602e60248201527f4e756d626572206f66206e6f646520706174687320616e642069734f70656e7360448201526d081b5d5cdd08189948195c5d585b60921b606482015260840161096b565b6000805b84518110156119d957600080600160008885815181106117f6576117f661314b565b60209081029190910181015182528101919091526040016000206003015460ff16600281111561182857611828612ce8565b0361186e57600160008784815181106118435761184361314b565b6020908102919091018101518252810191909152604001600020546001600160a01b031690506118ca565b60016000600160008986815181106118885761188861314b565b6020026020010151815260200190815260200160002060060154815260200190815260200160002060000160009054906101000a90046001600160a01b031690505b60006118d4611ec8565b6001600160a01b0316826001600160a01b031614801561194d57508583815181106119015761190161314b565b60200260200101511515600160008986815181106119215761192161314b565b6020026020010151815260200190815260200160002060030160019054906101000a900460ff16151514155b905080156119c4578583815181106119675761196761314b565b6020026020010151600160008986815181106119855761198561314b565b6020026020010151815260200190815260200160002060030160016101000a81548160ff02191690831515021790555083806119c0906131eb565b9450505b505080806119d1906131eb565b9150506117d4565b509392505050565b6119e9611ec8565b6001600160a01b0316611a046000546001600160a01b031690565b6001600160a01b031614611a2a5760405162461bcd60e51b815260040161096b9061325a565b600580546001600160a01b0319166001600160a01b0392909216919091179055565b60008281526001602052604081206003015483908290819060ff166002811115611a7857611a78612ce8565b03611a84575083611a98565b506000848152600160205260409020600601545b611aad8585611aa5611ec8565b600285612211565b95945050505050565b600082815260016020526040812060030154839060029060ff1681811115611ae057611ae0612ce8565b14611aea57600080fd5b600084815260016020526040902060060154611aad8585611b09611ec8565b600185612211565b611b19611ec8565b6001600160a01b0316611b346000546001600160a01b031690565b6001600160a01b031614611b5a5760405162461bcd60e51b815260040161096b9061325a565b6001600160a01b038116611bbf5760405162461bcd60e51b815260206004820152602660248201527f4f776e61626c653a206e6577206f776e657220697320746865207a65726f206160448201526564647265737360d01b606482015260840161096b565b61095481612426565b6000829052600160205281611bdb611ec8565b6000828152600160205260409020546001600160a01b03908116911614611c145760405162461bcd60e51b815260040161096b90613114565b826000808281526001602052604090206003015460ff166002811115611c3c57611c3c612ce8565b14611c595760405162461bcd60e51b815260040161096b906130ad565b60008481526001602081815260409092208551611c7e93919092019190860190612758565b5060008481526001602052604090206003015460ff1660028111156111c2576111c2612ce8565b6000838152600160205260408120600301548491829160ff166002811115611ccf57611ccf612ce8565b14611cec5760405162461bcd60e51b815260040161096b906130ad565b60006001600160a01b038516611d235760003411611d1c5760405162461bcd60e51b815260040161096b90613204565b5034611d30565b611d2d858561203a565b50825b60005b600087815260026020526040902054811015611df657600087815260026020526040902080546001600160a01b038816919083908110611d7557611d7561314b565b60009182526020909120600290910201546001600160a01b031603611de4576000878152600260205260409020805483919083908110611db757611db761314b565b90600052602060002090600202016001016000828254611dd7919061328f565b90915550611e5392505050565b80611dee816131eb565b915050611d33565b50600086815260026020818152604080842081518083019092526001600160a01b038a81168352828401968752815460018082018455928752939095209151929093020180546001600160a01b0319169190931617825591519101555b5050505050565b60007f00000000000000000000000000000000000000000000000000000000000000006001600160a01b03163303611e99575060131936013560601c90565b503390565b905090565b3390565b80516a636f6e736f6c652e6c6f67602083016000808483855afa5050505050565b6000611e9e611e5a565b604051636eb1769f60e11b81523060048201526001600160a01b038381166024830152600091839186169063dd62ed3e9060440160206040518083038186803b158015611f5c5760405162461bcd60e51b81526020600482015260256024820152600080516020613304833981519152604482019081526420636f646560d81b6064830152608482fd5b505afa158015611f70573d6000803e3d6000fd5b505050506040513d601f19601f82011682018060405250810190611f9491906131cf565b611f9e919061328f565b6040516001600160a01b03851660248201526044810182905290915061200490859063095ea7b360e01b906064015b60408051601f198184030181529190526020810180516001600160e01b03166001600160e01b031990931692909217909152612476565b50505050565b6040516001600160a01b03831660248201526044810182905261160090849063a9059cbb60e01b90606401611fcd565b6000826001600160a01b03163b116120a55760405162461bcd60e51b815260206004820152602860248201527f5f746f6b656e41646472657373206d757374206265206120636f6e7472616374604482015267206164647265737360c01b606482015260840161096b565b6000811161211b5760405162461bcd60e51b815260206004820152603860248201527f455243323020746f6b656e206d7573742068617665205f616d6f756e7420746f60448201527f20637265617465207461736b207769746820626f756e74790000000000000000606482015260840161096b565b81816001600160a01b0382166370a08231612134611ec8565b6040516001600160e01b031960e084901b1681526001600160a01b03909116600482015260240160206040518083038186803b1580156121b15760405162461bcd60e51b81526020600482015260256024820152600080516020613304833981519152604482019081526420636f646560d81b6064830152608482fd5b505afa1580156121c5573d6000803e3d6000fd5b505050506040513d601f19601f820116820180604052508101906121e991906131cf565b10156121f457600080fd5b6116006121ff611ec8565b6001600160a01b038316903085612548565b60008085511161222057600080fd5b600061222a612580565b90506000878260405160200161224a929190918252602082015260400190565b60408051601f198184030181528282528051602091820120610100840183526001600160a01b038a1684528184018b90528251600081529182018352918301529150606081018660028111156122a2576122a2612ce8565b8152600160208083018290526040808401869052606084018d90526080909301889052600085815282825292909220835181546001600160a01b0319166001600160a01b03909116178155838301518051919361230493850192910190612758565b50604082015180516123209160028401916020909101906127dc565b50606082015160038201805460ff1916600183600281111561234457612344612ce8565b02179055506080820151600380830180549215156101000261ff00199093169290921790915560a0830151600483015560c0830151600583015560e0909201516006909101556000898152600160208181526040832060020180548084018255908452908320018490558254909291906123bf90849061328f565b9091555085905060028111156123d7576123d7612ce8565b866001600160a01b0316827fcd4204a6cfd0ad4e00073973d9db47cc8ee30485ec5f0fe3c9b23538f2c7d2488b60405161241391815260200190565b60405180910390a4979650505050505050565b600080546001600160a01b038381166001600160a01b0319831681178455604051919092169283917f8be0079c531659141344cd1fd0a4f28419497f9722a3daafe3b4186f6b6457e09190a35050565b60006124cb826040518060400160405280602081526020017f5361666545524332303a206c6f772d6c6576656c2063616c6c206661696c6564815250856001600160a01b03166125d79092919063ffffffff16565b80519091501561160057808060200190518101906124e991906132a7565b6116005760405162461bcd60e51b815260206004820152602a60248201527f5361666545524332303a204552433230206f7065726174696f6e20646964206e6044820152691bdd081cdd58d8d9595960b21b606482015260840161096b565b6040516001600160a01b03808516602483015283166044820152606481018290526120049085906323b872dd60e01b90608401611fcd565b60006003546001612591919061328f565b612599611ec8565b6040516020016125bc9291909182526001600160a01b0316602082015260400190565b60405160208183030381529060405280519060200120905090565b60606125e684846000856125ee565b949350505050565b60608247101561264f5760405162461bcd60e51b815260206004820152602660248201527f416464726573733a20696e73756666696369656e742062616c616e636520666f6044820152651c8818d85b1b60d21b606482015260840161096b565b6001600160a01b0385163b6126a65760405162461bcd60e51b815260206004820152601d60248201527f416464726573733a2063616c6c20746f206e6f6e2d636f6e7472616374000000604482015260640161096b565b600080866001600160a01b031685876040516126c291906132c7565b60006040518083038185875af1925050503d80600081146126ff576040519150601f19603f3d011682016040523d82523d6000602084013e612704565b606091505b509150915061271482828661271f565b979650505050505050565b6060831561272e57508161146f565b82511561273e5782518084602001fd5b8160405162461bcd60e51b815260040161096b919061309a565b828054612764906130da565b90600052602060002090601f01602090048101928261278657600085556127cc565b82601f1061279f57805160ff19168380011785556127cc565b828001600101855582156127cc579182015b828111156127cc5782518255916020019190600101906127b1565b506127d8929150612816565b5090565b8280548282559060005260206000209081019282156127cc57916020028201828111156127cc5782518255916020019190600101906127b1565b5b808211156127d85760008155600101612817565b60405162461bcd60e51b815260206004820152602260248201527f414249206465636f64696e673a207475706c65206461746120746f6f2073686f6044820152611c9d60f21b6064820152608481fd5b60405162461bcd60e51b815260206004820152602260248201527f414249206465636f64696e673a20696e76616c6964207475706c65206f666673604482015261195d60f21b6064820152608481fd5b6000602082840312156128e0576128e061282b565b5035919050565b60005b838110156129025781810151838201526020016128ea565b838111156120045750506000910152565b6000815180845261292b8160208601602086016128e7565b601f01601f19169290920160200192915050565b600081518084526020808501945080840160005b8381101561296f57815187529582019590820190600101612953565b509495945050505050565b6001600160a01b038516815260806020820181905260009061299e90830186612913565b84151560408401528281036060840152612714818561293f565b60405162461bcd60e51b815260206004820152602b60248201527f414249206465636f64696e673a20696e76616c69642063616c6c64617461206160448201526a1c9c985e481bd9999cd95d60aa1b6064820152608481fd5b634e487b7160e01b600052604160045260246000fd5b604051601f8201601f1916810167ffffffffffffffff81118282101715612a5057612a50612a11565b604052919050565b600067ffffffffffffffff821115612a7257612a72612a11565b5060051b60200190565b60405162461bcd60e51b815260206004820152602b60248201527f414249206465636f64696e673a20696e76616c69642063616c6c64617461206160448201526a727261792073747269646560a81b6064820152608481fd5b80356001600160a01b0381168114612aec57600080fd5b919050565b600082601f830112612b0557612b056129b8565b81356020612b1a612b1583612a58565b612a27565b82815260059290921b84018101918181019086841115612b3c57612b3c612a7c565b8286015b84811015612b5e57612b5181612ad5565b8352918301918301612b40565b509695505050505050565b60008060008060808587031215612b8257612b8261282b565b8435935060208086013567ffffffffffffffff80821115612ba557612ba561287b565b612bb189838a01612af1565b95506040880135915080821115612bca57612bca61287b565b612bd689838a01612af1565b94506060880135915080821115612bef57612bef61287b565b508601601f81018813612c0457612c046129b8565b8035612c12612b1582612a58565b81815260059190911b8201830190838101908a831115612c3457612c34612a7c565b928401925b82841015612c5257833582529284019290840190612c39565b979a9699509497505050505050565b602080825282518282018190526000919060409081850190868401855b82811015612cac57815180516001600160a01b03168552860151868501529284019290850190600101612c7e565b5091979650505050505050565b60008060408385031215612ccf57612ccf61282b565b82359150612cdf60208401612ad5565b90509250929050565b634e487b7160e01b600052602160045260246000fd5b8781526001600160a01b0387166020820152600060038710612d3057634e487b7160e01b600052602160045260246000fd5b86604083015260e06060830152612d4a60e0830187612913565b8281036080840152612d5c818761293f565b94151560a0840152505060c0015295945050505050565b600082601f830112612d8757612d876129b8565b8135602067ffffffffffffffff821115612da357612da3612a11565b612db5601f8301601f19168201612a27565b8281528582848701011115612e195760405162461bcd60e51b815260048101839052602760248201527f414249206465636f64696e673a20696e76616c69642062797465206172726179604482015266040d8cadccee8d60cb1b6064820152608481fd5b82828601838301376000928101909101919091529392505050565b600080600060608486031215612e4c57612e4c61282b565b833567ffffffffffffffff811115612e6657612e6661287b565b612e7286828701612d73565b935050612e8160208501612ad5565b9150604084013590509250925092565b60008060408385031215612ea757612ea761282b565b612eb083612ad5565b946020939093013593505050565b600060208284031215612ed357612ed361282b565b61146f82612ad5565b60208152600061146f602083018461293f565b801515811461095457600080fd5b600082601f830112612f1157612f116129b8565b81356020612f21612b1583612a58565b82815260059290921b84018101918181019086841115612f4357612f43612a7c565b8286015b84811015612b5e578035612f5a81612eef565b8352918301918301612f47565b60008060408385031215612f7d57612f7d61282b565b823567ffffffffffffffff80821115612f9857612f9861287b565b818501915085601f830112612faf57612faf6129b8565b81356020612fbf612b1583612a58565b82815260059290921b84018101918181019089841115612fe157612fe1612a7c565b948201945b83861015612fff57853582529482019490820190612fe6565b965050860135925050808211156130185761301861287b565b5061302585828601612efd565b9150509250929050565b600080604083850312156130455761304561282b565b82359150602083013567ffffffffffffffff8111156130665761306661287b565b61302585828601612d73565b60008060006060848603121561308a5761308a61282b565b83359250612e8160208501612ad5565b60208152600061146f6020830184612913565b6020808252601390820152724e6f6465206d7573742062652061207461736b60681b604082015260600190565b600181811c908216806130ee57607f821691505b60208210810361310e57634e487b7160e01b600052602260045260246000fd5b50919050565b6020808252601d908201527f4f6e6c79206e6f6465206f776e65722063616e2065646974206e6f6465000000604082015260600190565b634e487b7160e01b600052603260045260246000fd5b634e487b7160e01b600052601160045260246000fd5b60008282101561318957613189613161565b500390565b60208082526021908201527f436f6e7472616374206d757374206861766520656e6f7567682062616c616e636040820152606560f81b606082015260800190565b6000602082840312156131e4576131e461282b565b5051919050565b6000600182016131fd576131fd613161565b5060010190565b60208082526036908201527f5472616e73616374696f6e206d75737420686176652076616c756520746f20636040820152757265617465207461736b207769746820626f756e747960501b606082015260800190565b6020808252818101527f4f776e61626c653a2063616c6c6572206973206e6f7420746865206f776e6572604082015260600190565b600082198211156132a2576132a2613161565b500190565b6000602082840312156132bc576132bc61282b565b815161146f81612eef565b600082516132d98184602087016128e7565b919091019291505056fe45746865722073656e7420746f206e6f6e2d70617961626c652066756e63746954617267657420636f6e747261637420646f6573206e6f7420636f6e7461696ea26469706673582212203237e6725edde42c451d3fbf997db6bc934d81f03244ff38a4694e44a437719464736f6c634300080d0033",
    "linkReferences": {}
  },
  "methodIdentifiers": {
    "addShare(bytes32,bytes)": "e985ccd7",
    "addSolution(bytes32,bytes)": "ee5e9d9e",
    "addTask(bytes,address,uint256)": "5357d429",
    "getAllTasks()": "779900b4",
    "getBountiesForTask(bytes32)": "4498c6cf",
    "getNode(bytes32)": "50c946fe",
    "getTask(bytes32)": "15a29035",
    "increaseBounty(bytes32,address,uint256)": "fe949a11",
    "isTrustedForwarder(address)": "572b6c05",
    "nodesCount()": "f1a3c5b3",
    "owner()": "8da5cb5b",
    "payoutTask(bytes32,address[],address[],uint256[])": "3047c26d",
    "renounceOwnership()": "715018a6",
    "rootTaskPath()": "8973df07",
    "setTrustedForwarder(address)": "da742228",
    "transferOwnership(address)": "f2fde38b",
    "updateNodesIsOpen(bytes32[],bool[])": "d03388db",
    "updateTaskData(bytes32,bytes)": "fe408658",
    "updateTaskOwner(bytes32,address)": "4723218d",
    "withdrawToOwner(uint256)": "6a5bbc1d",
    "withdrawTokenToOwner(address,uint256)": "56a6338f"
  },
  "id": 14
}