{
  "abi": [
    {
      "inputs": [
        {
          "internalType": "address",
          "name": "trustedForwarder",
          "type": "address"
        }
      ],
      "stateMutability": "nonpayable",
      "type": "constructor"
    },
    {
      "anonymous": false,
      "inputs": [
        {
          "indexed": true,
          "internalType": "address",
          "name": "owner",
          "type": "address"
        },
        {
          "indexed": true,
          "internalType": "bytes32",
          "name": "parent",
          "type": "bytes32"
        },
        {
          "indexed": false,
          "internalType": "bytes32",
          "name": "path",
          "type": "bytes32"
        },
        {
          "indexed": false,
          "internalType": "enum NodeType",
          "name": "nodeType",
          "type": "uint8"
        }
      ],
      "name": "NewNodeCreated",
      "type": "event"
    },
    {
      "anonymous": false,
      "inputs": [
        {
          "indexed": true,
          "internalType": "address",
          "name": "previousOwner",
          "type": "address"
        },
        {
          "indexed": true,
          "internalType": "address",
          "name": "newOwner",
          "type": "address"
        }
      ],
      "name": "OwnershipTransferred",
      "type": "event"
    },
    {
      "inputs": [
        {
          "internalType": "bytes32",
          "name": "_parent",
          "type": "bytes32"
        },
        {
          "internalType": "bytes",
          "name": "_data",
          "type": "bytes"
        }
      ],
      "name": "addShare",
      "outputs": [
        {
          "internalType": "bytes32",
          "name": "",
          "type": "bytes32"
        }
      ],
      "stateMutability": "nonpayable",
      "type": "function"
    },
    {
      "inputs": [
        {
          "internalType": "bytes32",
          "name": "_parent",
          "type": "bytes32"
        },
        {
          "internalType": "bytes",
          "name": "_data",
          "type": "bytes"
        }
      ],
      "name": "addSolution",
      "outputs": [
        {
          "internalType": "bytes32",
          "name": "",
          "type": "bytes32"
        }
      ],
      "stateMutability": "nonpayable",
      "type": "function"
    },
    {
      "inputs": [
        {
          "internalType": "bytes",
          "name": "_data",
          "type": "bytes"
        },
        {
          "internalType": "address",
          "name": "_tokenAddress",
          "type": "address"
        },
        {
          "internalType": "uint256",
          "name": "_amount",
          "type": "uint256"
        }
      ],
      "name": "addTask",
      "outputs": [
        {
          "internalType": "bytes32",
          "name": "",
          "type": "bytes32"
        }
      ],
      "stateMutability": "payable",
      "type": "function"
    },
    {
      "inputs": [],
      "name": "getAllTasks",
      "outputs": [
        {
          "internalType": "bytes32[]",
          "name": "",
          "type": "bytes32[]"
        }
      ],
      "stateMutability": "view",
      "type": "function"
    },
    {
      "inputs": [
        {
          "internalType": "bytes32",
          "name": "_path",
          "type": "bytes32"
        }
      ],
      "name": "getNode",
      "outputs": [
        {
          "internalType": "bytes32",
          "name": "",
          "type": "bytes32"
        },
        {
          "internalType": "address",
          "name": "",
          "type": "address"
        },
        {
          "internalType": "enum NodeType",
          "name": "",
          "type": "uint8"
        },
        {
          "internalType": "bytes",
          "name": "",
          "type": "bytes"
        },
        {
          "internalType": "bytes32[]",
          "name": "",
          "type": "bytes32[]"
        },
        {
          "internalType": "bool",
          "name": "",
          "type": "bool"
        },
        {
          "internalType": "bytes32",
          "name": "",
          "type": "bytes32"
        }
      ],
      "stateMutability": "view",
      "type": "function"
    },
    {
      "inputs": [
        {
          "internalType": "bytes32",
          "name": "_path",
          "type": "bytes32"
        }
      ],
      "name": "getTask",
      "outputs": [
        {
          "internalType": "address",
          "name": "",
          "type": "address"
        },
        {
          "internalType": "bytes",
          "name": "",
          "type": "bytes"
        },
        {
          "internalType": "bool",
          "name": "",
          "type": "bool"
        },
        {
          "internalType": "bytes32[]",
          "name": "",
          "type": "bytes32[]"
        },
        {
          "internalType": "address",
          "name": "",
          "type": "address"
        },
        {
          "internalType": "uint256",
          "name": "",
          "type": "uint256"
        }
      ],
      "stateMutability": "view",
      "type": "function"
    },
    {
      "inputs": [
        {
          "internalType": "bytes32",
          "name": "_path",
          "type": "bytes32"
        }
      ],
      "name": "hasSenderContributedToAnySubnode",
      "outputs": [
        {
          "internalType": "bool",
          "name": "",
          "type": "bool"
        }
      ],
      "stateMutability": "view",
      "type": "function"
    },
    {
      "inputs": [
        {
          "internalType": "address",
          "name": "forwarder",
          "type": "address"
        }
      ],
      "name": "isTrustedForwarder",
      "outputs": [
        {
          "internalType": "bool",
          "name": "",
          "type": "bool"
        }
      ],
      "stateMutability": "view",
      "type": "function"
    },
    {
      "inputs": [],
      "name": "nodesCount",
      "outputs": [
        {
          "internalType": "uint256",
          "name": "",
          "type": "uint256"
        }
      ],
      "stateMutability": "view",
      "type": "function"
    },
    {
      "inputs": [],
      "name": "owner",
      "outputs": [
        {
          "internalType": "address",
          "name": "",
          "type": "address"
        }
      ],
      "stateMutability": "view",
      "type": "function"
    },
    {
      "inputs": [
        {
          "internalType": "bytes32",
          "name": "taskPath",
          "type": "bytes32"
        },
        {
          "internalType": "bytes32[]",
          "name": "paths",
          "type": "bytes32[]"
        },
        {
          "internalType": "uint256[]",
          "name": "amounts",
          "type": "uint256[]"
        }
      ],
      "name": "payoutTask",
      "outputs": [],
      "stateMutability": "nonpayable",
      "type": "function"
    },
    {
      "inputs": [],
      "name": "renounceOwnership",
      "outputs": [],
      "stateMutability": "nonpayable",
      "type": "function"
    },
    {
      "inputs": [],
      "name": "rootTaskPath",
      "outputs": [
        {
          "internalType": "bytes32",
          "name": "",
          "type": "bytes32"
        }
      ],
      "stateMutability": "view",
      "type": "function"
    },
    {
      "inputs": [
        {
          "internalType": "address",
          "name": "newOwner",
          "type": "address"
        }
      ],
      "name": "transferOwnership",
      "outputs": [],
      "stateMutability": "nonpayable",
      "type": "function"
    },
    {
      "inputs": [
        {
          "internalType": "bytes32[]",
          "name": "_paths",
          "type": "bytes32[]"
        },
        {
          "internalType": "bool[]",
          "name": "_isOpens",
          "type": "bool[]"
        }
      ],
      "name": "updateNodesIsOpen",
      "outputs": [
        {
          "internalType": "uint256",
          "name": "",
          "type": "uint256"
        }
      ],
      "stateMutability": "nonpayable",
      "type": "function"
    },
    {
      "stateMutability": "payable",
      "type": "receive"
    }
  ],
  "bytecode": {
    "object": "0x60a06040526000600355348015620000635760405162461bcd60e51b815260206004820152602260248201527f45746865722073656e7420746f206e6f6e2d70617961626c652066756e637469604482019081526137b760f11b6064830152608482fd5b5060405162003055380380620030558339810160408190526200008691620005fe565b6001600160a01b038116608052620000a7620000a162000132565b6200014e565b620000de600060405180604001604052806008815260200167526f6f745461736b60c01b815250336000806200019e60201b60201c565b600481905550620001136040518060600160405280602681526020016200302f60269139620003c860201b620006ea1760201c565b6200012b6004546200041660201b620018cc1760201c565b506200077f565b6000620001496200046260201b620019111760201c565b905090565b600080546001600160a01b038381166001600160a01b0319831681178455604051919092169283917f8be0079c531659141344cd1fd0a4f28419497f9722a3daafe3b4186f6b6457e09190a35050565b600080855111620001ae57600080fd5b6000620001ba6200049a565b905060008782604051602001620001db929190918252602082015260400190565b604051602081830303815290604052805190602001209050604051806101000160405280828152602001898152602001858152602001876001600160a01b031681526020018660028111156200023557620002356200067b565b815260208082018a905260408051600080825292810182529201919050815260016020918201819052600084815260028084526040918290208551815593850151928401929092558301518282015560608301516003830180546001600160a01b039092166001600160a01b031983168117825560808601519391926001600160a81b0319161790600160a01b908490811115620002d757620002d76200067b565b021790555060a08201518051620002f99160048401916020909101906200051b565b5060c0820151805162000317916005840191602090910190620005aa565b5060e091909101516006909101805460ff19169115159190911790556000888152600260209081526040822060050180546001818101835591845291832090910183905560038054919290916200037090849062000691565b9250508190555087866001600160a01b03167f92f79e4ee75e2f5728dfd026fd65e2fd7e6677ce4945b6e08f0a4d1d81da61a48388604051620003b5929190620006b8565b60405180910390a3979650505050505050565b6200041381604051602401620003df9190620006eb565b60408051601f198184030181529190526020810180516001600160e01b0390811663104c13eb60e21b17909152620004f616565b50565b62000413816040516024016200042e91815260200190565b60408051601f198184030181529190526020810180516001600160e01b039081166327b7cf8560e01b17909152620004f616565b6080516000906001600160a01b0316330362000485575060131936013560601c90565b620001496200051760201b6200195a1760201c565b60006003546001620004ad919062000691565b620004b762000132565b604051602001620004db9291909182526001600160a01b0316602082015260400190565b60405160208183030381529060405280519060200120905090565b80516a636f6e736f6c652e6c6f67602083016000808483855afa5050505050565b3390565b828054620005299062000743565b90600052602060002090601f0160209004810192826200054d576000855562000598565b82601f106200056857805160ff191683800117855562000598565b8280016001018555821562000598579182015b82811115620005985782518255916020019190600101906200057b565b50620005a6929150620005e7565b5090565b828054828255906000526020600020908101928215620005985791602002820182811115620005985782518255916020019190600101906200057b565b5b80821115620005a65760008155600101620005e8565b6000602082840312156200065c5760405162461bcd60e51b815260206004820152602260248201527f414249206465636f64696e673a207475706c65206461746120746f6f2073686f6044820152611c9d60f21b6064820152608481fd5b81516001600160a01b03811681146200067457600080fd5b9392505050565b634e487b7160e01b600052602160045260246000fd5b60008219821115620006b357634e487b7160e01b600052601160045260246000fd5b500190565b8281526040810160038310620006de57634e487b7160e01b600052602160045260246000fd5b8260208301529392505050565b600060208083528351808285015260005b818110156200071a57858101830151858201604001528201620006fc565b818111156200072d576000604083870101525b50601f01601f1916929092016040019392505050565b600181811c908216806200075857607f821691505b6020821081036200077957634e487b7160e01b600052602260045260246000fd5b50919050565b60805161288d620007a2600039600081816103310152611915015261288d6000f3fe6080604052600436106100ec5760003560e01c80638973df071161008a578063e985ccd711610059578063e985ccd714610588578063ee5e9d9e146105e3578063f1a3c5b31461063e578063f2fde38b1461068f57610120565b80638973df071461041e5780638da5cb5b1461046f578063c059a6e1146104d2578063d03388db1461052d57610120565b80635651a01f116100c65780635651a01f1461027e578063572b6c05146102d9578063715018a614610371578063779900b4146103c157610120565b806315a290351461017957806350c946fe146101ef5780635357d4291461025d57610120565b366101205761011e6040518060400160405280600c81526020016b0a48a868a92ac8a88408aa8960a31b8152506106ea565b005b60405162461bcd60e51b815260206004820152602960248201527f556e6b6e6f776e207369676e617475726520616e64206e6f2066616c6c62616360448201908152681ac81919599a5b995960ba1b6064830152608482fd5b3480156101c05760405162461bcd60e51b81526020600482015260226024820152600080516020612838833981519152604482019081526137b760f11b6064830152608482fd5b506101d46101cf36600461207f565b610730565b6040516101e69695949392919061212e565b60405180910390f35b3480156102365760405162461bcd60e51b81526020600482015260226024820152600080516020612838833981519152604482019081526137b760f11b6064830152608482fd5b5061024a61024536600461207f565b610891565b6040516101e697969594939291906121b9565b61027061026b366004612394565b6109ed565b6040519081526020016101e6565b3480156102c55760405162461bcd60e51b81526020600482015260226024820152600080516020612838833981519152604482019081526137b760f11b6064830152608482fd5b5061011e6102d43660046124df565b610d04565b3480156103205760405162461bcd60e51b81526020600482015260226024820152600080516020612838833981519152604482019081526137b760f11b6064830152608482fd5b5061036161032f3660046125b1565b7f00000000000000000000000000000000000000000000000000000000000000006001600160a01b0390811691161490565b60405190151581526020016101e6565b3480156103b85760405162461bcd60e51b81526020600482015260226024820152600080516020612838833981519152604482019081526137b760f11b6064830152608482fd5b5061011e6111e4565b3480156104085760405162461bcd60e51b81526020600482015260226024820152600080516020612838833981519152604482019081526137b760f11b6064830152608482fd5b50610411611269565b6040516101e691906125cf565b3480156104655760405162461bcd60e51b81526020600482015260226024820152600080516020612838833981519152604482019081526137b760f11b6064830152608482fd5b5061027060045481565b3480156104b65760405162461bcd60e51b81526020600482015260226024820152600080516020612838833981519152604482019081526137b760f11b6064830152608482fd5b506000546040516001600160a01b0390911681526020016101e6565b3480156105195760405162461bcd60e51b81526020600482015260226024820152600080516020612838833981519152604482019081526137b760f11b6064830152608482fd5b5061036161052836600461207f565b6112cf565b3480156105745760405162461bcd60e51b81526020600482015260226024820152600080516020612838833981519152604482019081526137b760f11b6064830152608482fd5b506102706105833660046125f0565b61142f565b3480156105cf5760405162461bcd60e51b81526020600482015260226024820152600080516020612838833981519152604482019081526137b760f11b6064830152608482fd5b506102706105de3660046126c3565b6116ad565b34801561062a5760405162461bcd60e51b81526020600482015260226024820152600080516020612838833981519152604482019081526137b760f11b6064830152608482fd5b506102706106393660046126c3565b611782565b3480156106855760405162461bcd60e51b81526020600482015260226024820152600080516020612838833981519152604482019081526137b760f11b6064830152608482fd5b5061027060035481565b3480156106d65760405162461bcd60e51b81526020600482015260226024820152600080516020612838833981519152604482019081526137b760f11b6064830152608482fd5b5061011e6106e53660046125b1565b6117e5565b61072d816040516024016106fe9190612710565b60408051601f198184030181529190526020810180516001600160e01b031663104c13eb60e21b17905261195e565b50565b600081815260026020526060818181808661074f565b60405180910390fd5b600088815260026020908152604080832060019283905292206003830154600684015482549383015460048601805494956001600160a01b0394851695919460ff90941693600589019391169185906107a790612723565b80601f01602080910402602001604051908101604052809291908181526020018280546107d390612723565b80156108205780601f106107f557610100808354040283529160200191610820565b820191906000526020600020905b81548152906001019060200180831161080357829003601f168201915b505050505094508280548060200260200160405190810160405280929190818152602001828054801561087257602002820191906000526020600020905b81548152602001906001019080831161085e575b5050505050925098509850985098509850985050505091939550919395565b600081815260026020528080606080828087600089815260026020819052604090912060018101546003820154600683015493830154600484018054949593946001600160a01b0384169460ff600160a01b909504851694929360058901939190911691849061090090612723565b80601f016020809104026020016040519081016040528092919081815260200182805461092c90612723565b80156109795780601f1061094e57610100808354040283529160200191610979565b820191906000526020600020905b81548152906001019060200180831161095c57829003601f168201915b50505050509350828054806020026020016040519081016040528092919081815260200182805480156109cb57602002820191906000526020600020905b8154815260200190600101908083116109b7575b5050505050925098509850985098509850985098505050919395979092949650565b6000806001600160a01b038416610a745760003411610a6d5760405162461bcd60e51b815260206004820152603660248201527f5472616e73616374696f6e206d75737420686176652076616c756520746f20636044820152757265617465207461736b207769746820626f756e747960501b6064820152608401610746565b5034610c62565b6000846001600160a01b03163b11610adf5760405162461bcd60e51b815260206004820152602860248201527f5f746f6b656e41646472657373206d757374206265206120636f6e7472616374604482015267206164647265737360c01b6064820152608401610746565b60008311610b555760405162461bcd60e51b815260206004820152603860248201527f455243323020746f6b656e206d7573742068617665205f616d6f756e7420746f60448201527f20637265617465207461736b207769746820626f756e747900000000000000006064820152608401610746565b83816001600160a01b0382166370a08231610b6e61197f565b6040516001600160e01b031960e084901b1681526001600160a01b03909116600482015260240160206040518083038186803b158015610bfd5760405162461bcd60e51b815260206004820152602560248201527f54617267657420636f6e747261637420646f6573206e6f7420636f6e7461696e604482019081526420636f646560d81b6064830152608482fd5b505afa158015610c11573d6000803e3d6000fd5b505050506040513d601f19601f82011682018060405250810190610c359190612757565b1015610c4057600080fd5b839150610c60610c4e61197f565b6001600160a01b038316903085611989565b505b6000610c7b60045487610c7361197f565b6000806119e9565b6040805180820182526001600160a01b03888116825260208083018781526000868152600180845290869020945185546001600160a01b03191694169390931784555192909101919091558151808301909252601082526f5461736b43726561746f72536861726560801b90820152909150610cf89082906116ad565b509150505b9392505050565b6000839052600260205282610d1761197f565b6000828152600260205260409020600301546001600160a01b03908116911614610d835760405162461bcd60e51b815260206004820152601d60248201527f4f6e6c79206e6f6465206f776e65722063616e2065646974206e6f64650000006044820152606401610746565b6000835111610dcd5760405162461bcd60e51b8152602060048201526016602482015275139bc81b9bd919481c185d1a1cc81c1c9bdd9a59195960521b6044820152606401610746565b8151835114610ddb57600080fd5b600084815260016020818152604092839020835180850190945280546001600160a01b0316845290910154908201819052610e1557600080fd5b8051600090815b86518110156111a5576000868281518110610e3957610e39612773565b602002602001015111610e4b57600080fd5b60026000888381518110610e6157610e61612773565b60209081029190910181015182528101919091526040016000206006015460ff16610e8b57600080fd5b610eb7868281518110610ea057610ea0612773565b602002602001015184611c0190919063ffffffff16565b92508360200151831115610eca57600080fd5b83516001600160a01b0316610fe657858181518110610eeb57610eeb612773565b6020026020010151471015610f4c5760405162461bcd60e51b815260206004820152602160248201527f436f6e7472616374206d757374206861766520656e6f7567682062616c616e636044820152606560f81b6064820152608401610746565b60026000888381518110610f6257610f62612773565b6020026020010151815260200190815260200160002060030160009054906101000a90046001600160a01b03166001600160a01b03166108fc878381518110610fad57610fad612773565b60200260200101519081150290604051600060405180830381858888f19350505050158015610fe0573d6000803e3d6000fd5b50611193565b858181518110610ff857610ff8612773565b60209081029190910101516040516370a0823160e01b81523060048201526001600160a01b038416906370a082319060240160206040518083038186803b1580156110925760405162461bcd60e51b815260206004820152602560248201527f54617267657420636f6e747261637420646f6573206e6f7420636f6e7461696e604482019081526420636f646560d81b6064830152608482fd5b505afa1580156110a6573d6000803e3d6000fd5b505050506040513d601f19601f820116820180604052508101906110ca9190612757565b10156111185760405162461bcd60e51b815260206004820181905260248201527f436f6e7472616374206d757374206861766520656e6f75676820746f6b656e736044820152606401610746565b61119330600260008a858151811061113257611132612773565b6020026020010151815260200190815260200160002060030160009054906101000a90046001600160a01b031688848151811061117157611171612773565b6020026020010151856001600160a01b0316611989909392919063ffffffff16565b8061119d8161279f565b915050610e1c565b50600087815260016020819052604090912001546111c49083906127b8565b600097885260016020819052604090982090970196909655505050505050565b6111ec61197f565b6001600160a01b03166112076000546001600160a01b031690565b6001600160a01b03161461125d5760405162461bcd60e51b815260206004820181905260248201527f4f776e61626c653a2063616c6c6572206973206e6f7420746865206f776e65726044820152606401610746565b6112676000611c0d565b565b6004546000908152600260209081526040918290206005018054835181840281018401909452808452606093928301828280156112c557602002820191906000526020600020905b8154815260200190600101908083116112b1575b5050505050905090565b600081815260026020908152604080832060050180548251818502810185019093528083528593859392919083018282801561132a57602002820191906000526020600020905b815481526020019060010190808311611316575b5050505050905060005b81518110156114225761134561197f565b6001600160a01b03166002600084848151811061136457611364612773565b6020908102919091018101518252810191909152604001600020600301546001600160a01b03160361139b57600193505050611429565b6000600260008484815181106113b3576113b3612773565b602002602001015181526020019081526020016000206005018054905011156114105760006113fa8383815181106113ed576113ed612773565b60200260200101516112cf565b9050801561140e5760019450505050611429565b505b8061141a8161279f565b915050611334565b5060009250505b50919050565b600081518351146114995760405162461bcd60e51b815260206004820152602e60248201527f4e756d626572206f66206e6f646520706174687320616e642069734f70656e7360448201526d081b5d5cdd08189948195c5d585b60921b6064820152608401610746565b6000805b84518110156116a557600080600260008885815181106114bf576114bf612773565b6020026020010151815260200190815260200160002060030160149054906101000a900460ff1660028111156114f7576114f7612181565b03611540576002600087848151811061151257611512612773565b6020908102919091018101518252810191909152604001600020600301546001600160a01b0316905061159c565b600260006002600089868151811061155a5761155a612773565b6020026020010151815260200190815260200160002060020154815260200190815260200160002060030160009054906101000a90046001600160a01b031690505b60006115a661197f565b6001600160a01b0316826001600160a01b031614801561161957508583815181106115d3576115d3612773565b60200260200101511515600260008986815181106115f3576115f3612773565b60209081029190910181015182528101919091526040016000206006015460ff16151514155b905080156116905785838151811061163357611633612773565b60200260200101516002600089868151811061165157611651612773565b6020026020010151815260200190815260200160002060060160006101000a81548160ff021916908315150217905550838061168c9061279f565b9450505b5050808061169d9061279f565b91505061149d565b509392505050565b6000828152600260208190526040822060030154849183918291600160a01b90910460ff16908111156116e2576116e2612181565b036116ee575083611703565b50600084815260026020819052604090912001545b61170c816112cf565b156117645760405162461bcd60e51b815260206004820152602260248201527f4f6e6520736861726520706572207461736b20666f7220656163682077616c6c604482015261195d60f21b6064820152608401610746565b611779858561177161197f565b6002856119e9565b95945050505050565b6000828152600260208190526040822060030154849190600160a01b900460ff16818111156117b3576117b3612181565b146117bd57600080fd5b6000848152600260208190526040909120015461177985856117dd61197f565b6001856119e9565b6117ed61197f565b6001600160a01b03166118086000546001600160a01b031690565b6001600160a01b03161461185e5760405162461bcd60e51b815260206004820181905260248201527f4f776e61626c653a2063616c6c6572206973206e6f7420746865206f776e65726044820152606401610746565b6001600160a01b0381166118c35760405162461bcd60e51b815260206004820152602660248201527f4f776e61626c653a206e6577206f776e657220697320746865207a65726f206160448201526564647265737360d01b6064820152608401610746565b61072d81611c0d565b61072d816040516024016118e291815260200190565b60408051601f198184030181529190526020810180516001600160e01b03166327b7cf8560e01b17905261195e565b60007f00000000000000000000000000000000000000000000000000000000000000006001600160a01b03163303611950575060131936013560601c90565b503390565b905090565b3390565b80516a636f6e736f6c652e6c6f67602083016000808483855afa5050505050565b6000611955611911565b604080516001600160a01b0385811660248301528416604482015260648082018490528251808303909101815260849091019091526020810180516001600160e01b03166323b872dd60e01b1790526119e3908590611c5d565b50505050565b6000808551116119f857600080fd5b6000611a02611d34565b905060008782604051602001611a22929190918252602082015260400190565b604051602081830303815290604052805190602001209050604051806101000160405280828152602001898152602001858152602001876001600160a01b03168152602001866002811115611a7957611a79612181565b815260208082018a905260408051600080825292810182529201919050815260016020918201819052600084815260028084526040918290208551815593850151928401929092558301518282015560608301516003830180546001600160a01b039092166001600160a01b031983168117825560808601519391926001600160a81b0319161790600160a01b908490811115611b1857611b18612181565b021790555060a08201518051611b38916004840191602090910190611f0c565b5060c08201518051611b54916005840191602090910190611f90565b5060e091909101516006909101805460ff1916911515919091179055600088815260026020908152604082206005018054600181810183559184529183209091018390556003805491929091611bab9084906127cf565b9250508190555087866001600160a01b03167f92f79e4ee75e2f5728dfd026fd65e2fd7e6677ce4945b6e08f0a4d1d81da61a48388604051611bee9291906127e7565b60405180910390a3979650505050505050565b6000610cfd82846127cf565b600080546001600160a01b038381166001600160a01b0319831681178455604051919092169283917f8be0079c531659141344cd1fd0a4f28419497f9722a3daafe3b4186f6b6457e09190a35050565b6000611cb2826040518060400160405280602081526020017f5361666545524332303a206c6f772d6c6576656c2063616c6c206661696c6564815250856001600160a01b0316611d8b9092919063ffffffff16565b805190915015611d2f5780806020019051810190611cd091906127fb565b611d2f5760405162461bcd60e51b815260206004820152602a60248201527f5361666545524332303a204552433230206f7065726174696f6e20646964206e6044820152691bdd081cdd58d8d9595960b21b6064820152608401610746565b505050565b60006003546001611d4591906127cf565b611d4d61197f565b604051602001611d709291909182526001600160a01b0316602082015260400190565b60405160208183030381529060405280519060200120905090565b6060611d9a8484600085611da2565b949350505050565b606082471015611e035760405162461bcd60e51b815260206004820152602660248201527f416464726573733a20696e73756666696369656e742062616c616e636520666f6044820152651c8818d85b1b60d21b6064820152608401610746565b6001600160a01b0385163b611e5a5760405162461bcd60e51b815260206004820152601d60248201527f416464726573733a2063616c6c20746f206e6f6e2d636f6e74726163740000006044820152606401610746565b600080866001600160a01b03168587604051611e76919061281b565b60006040518083038185875af1925050503d8060008114611eb3576040519150601f19603f3d011682016040523d82523d6000602084013e611eb8565b606091505b5091509150611ec8828286611ed3565b979650505050505050565b60608315611ee2575081610cfd565b825115611ef25782518084602001fd5b8160405162461bcd60e51b81526004016107469190612710565b828054611f1890612723565b90600052602060002090601f016020900481019282611f3a5760008555611f80565b82601f10611f5357805160ff1916838001178555611f80565b82800160010185558215611f80579182015b82811115611f80578251825591602001919060010190611f65565b50611f8c929150611fca565b5090565b828054828255906000526020600020908101928215611f805791602002820182811115611f80578251825591602001919060010190611f65565b5b80821115611f8c5760008155600101611fcb565b60405162461bcd60e51b815260206004820152602260248201527f414249206465636f64696e673a207475706c65206461746120746f6f2073686f6044820152611c9d60f21b6064820152608481fd5b60405162461bcd60e51b815260206004820152602260248201527f414249206465636f64696e673a20696e76616c6964207475706c65206f666673604482015261195d60f21b6064820152608481fd5b60006020828403121561209457612094611fdf565b5035919050565b60005b838110156120b657818101518382015260200161209e565b838111156119e35750506000910152565b600081518084526120df81602086016020860161209b565b601f01601f19169290920160200192915050565b600081518084526020808501945080840160005b8381101561212357815187529582019590820190600101612107565b509495945050505050565b600060018060a01b03808916835260c0602084015261215060c08401896120c7565b8715156040850152838103606085015261216a81886120f3565b959091166080840152505060a00152949350505050565b634e487b7160e01b600052602160045260246000fd5b600381106121b557634e487b7160e01b600052602160045260246000fd5b9052565b8781526001600160a01b03871660208201526121d86040820187612197565b60e0606082015260006121ee60e08301876120c7565b828103608084015261220081876120f3565b94151560a0840152505060c0015295945050505050565b60405162461bcd60e51b815260206004820152602b60248201527f414249206465636f64696e673a20696e76616c69642063616c6c64617461206160448201526a1c9c985e481bd9999cd95d60aa1b6064820152608481fd5b634e487b7160e01b600052604160045260246000fd5b604051601f8201601f1916810167ffffffffffffffff811182821017156122af576122af612270565b604052919050565b600082601f8301126122cb576122cb612217565b8135602067ffffffffffffffff8211156122e7576122e7612270565b6122f9601f8301601f19168201612286565b828152858284870101111561235d5760405162461bcd60e51b815260048101839052602760248201527f414249206465636f64696e673a20696e76616c69642062797465206172726179604482015266040d8cadccee8d60cb1b6064820152608481fd5b82828601838301376000928101909101919091529392505050565b80356001600160a01b038116811461238f57600080fd5b919050565b6000806000606084860312156123ac576123ac611fdf565b833567ffffffffffffffff8111156123c6576123c661202f565b6123d2868287016122b7565b9350506123e160208501612378565b9150604084013590509250925092565b600067ffffffffffffffff82111561240b5761240b612270565b5060051b60200190565b60405162461bcd60e51b815260206004820152602b60248201527f414249206465636f64696e673a20696e76616c69642063616c6c64617461206160448201526a727261792073747269646560a81b6064820152608481fd5b600082601f83011261248257612482612217565b81356020612497612492836123f1565b612286565b82815260059290921b840181019181810190868411156124b9576124b9612415565b8286015b848110156124d457803583529183019183016124bd565b509695505050505050565b6000806000606084860312156124f7576124f7611fdf565b8335925060208085013567ffffffffffffffff8082111561251a5761251a61202f565b6125268883890161246e565b9450604087013591508082111561253f5761253f61202f565b508501601f8101871361255457612554612217565b8035612562612492826123f1565b81815260059190911b8201830190838101908983111561258457612584612415565b928401925b828410156125a257833582529284019290840190612589565b80955050505050509250925092565b6000602082840312156125c6576125c6611fdf565b610cfd82612378565b602081526000610cfd60208301846120f3565b801515811461072d57600080fd5b6000806040838503121561260657612606611fdf565b823567ffffffffffffffff808211156126215761262161202f565b61262d8683870161246e565b93506020915081850135818111156126475761264761202f565b85019050601f8101861361265d5761265d612217565b803561266b612492826123f1565b81815260059190911b8201830190838101908883111561268d5761268d612415565b928401925b828410156126b45783356126a5816125e2565b82529284019290840190612692565b80955050505050509250929050565b600080604083850312156126d9576126d9611fdf565b82359150602083013567ffffffffffffffff8111156126fa576126fa61202f565b612706858286016122b7565b9150509250929050565b602081526000610cfd60208301846120c7565b600181811c9082168061273757607f821691505b60208210810361142957634e487b7160e01b600052602260045260246000fd5b60006020828403121561276c5761276c611fdf565b5051919050565b634e487b7160e01b600052603260045260246000fd5b634e487b7160e01b600052601160045260246000fd5b6000600182016127b1576127b1612789565b5060010190565b6000828210156127ca576127ca612789565b500390565b600082198211156127e2576127e2612789565b500190565b82815260408101610cfd6020830184612197565b60006020828403121561281057612810611fdf565b8151610cfd816125e2565b6000825161282d81846020870161209b565b919091019291505056fe45746865722073656e7420746f206e6f6e2d70617961626c652066756e637469a2646970667358221220876af2a26bc85504b0c0723b9d76ec43fc49cb80bc219ff449e9d2b202b8125b64736f6c634300080d003343726561746564205461736b506f7274616c20726f6f74207461736b20776974682070617468",
    "linkReferences": {}
  },
  "methodIdentifiers": {
    "addShare(bytes32,bytes)": "e985ccd7",
    "addSolution(bytes32,bytes)": "ee5e9d9e",
    "addTask(bytes,address,uint256)": "5357d429",
    "getAllTasks()": "779900b4",
    "getNode(bytes32)": "50c946fe",
    "getTask(bytes32)": "15a29035",
    "hasSenderContributedToAnySubnode(bytes32)": "c059a6e1",
    "isTrustedForwarder(address)": "572b6c05",
    "nodesCount()": "f1a3c5b3",
    "owner()": "8da5cb5b",
    "payoutTask(bytes32,bytes32[],uint256[])": "5651a01f",
    "renounceOwnership()": "715018a6",
    "rootTaskPath()": "8973df07",
    "transferOwnership(address)": "f2fde38b",
    "updateNodesIsOpen(bytes32[],bool[])": "d03388db"
  },
  "id": 14
}