{
  "abi": [
    {
      "inputs": [],
      "stateMutability": "nonpayable",
      "type": "constructor"
    },
    {
      "anonymous": false,
      "inputs": [
        {
          "indexed": true,
          "internalType": "address",
          "name": "owner",
          "type": "address"
        },
        {
          "indexed": true,
          "internalType": "bytes32",
          "name": "parent",
          "type": "bytes32"
        },
        {
          "indexed": false,
          "internalType": "bytes32",
          "name": "path",
          "type": "bytes32"
        },
        {
          "indexed": false,
          "internalType": "enum NodeType",
          "name": "nodeType",
          "type": "uint8"
        }
      ],
      "name": "NewNodeCreated",
      "type": "event"
    },
    {
      "inputs": [
        {
          "internalType": "bytes32",
          "name": "_parent",
          "type": "bytes32"
        },
        {
          "internalType": "bytes",
          "name": "_data",
          "type": "bytes"
        }
      ],
      "name": "addShare",
      "outputs": [
        {
          "internalType": "bytes32",
          "name": "",
          "type": "bytes32"
        }
      ],
      "stateMutability": "nonpayable",
      "type": "function"
    },
    {
      "inputs": [
        {
          "internalType": "bytes32",
          "name": "_parent",
          "type": "bytes32"
        },
        {
          "internalType": "bytes",
          "name": "_data",
          "type": "bytes"
        }
      ],
      "name": "addSolution",
      "outputs": [
        {
          "internalType": "bytes32",
          "name": "",
          "type": "bytes32"
        }
      ],
      "stateMutability": "nonpayable",
      "type": "function"
    },
    {
      "inputs": [
        {
          "internalType": "bytes",
          "name": "_data",
          "type": "bytes"
        },
        {
          "internalType": "address",
          "name": "_tokenAddress",
          "type": "address"
        },
        {
          "internalType": "uint256",
          "name": "_amount",
          "type": "uint256"
        }
      ],
      "name": "addTask",
      "outputs": [
        {
          "internalType": "bytes32",
          "name": "",
          "type": "bytes32"
        }
      ],
      "stateMutability": "payable",
      "type": "function"
    },
    {
      "inputs": [],
      "name": "getAllTasks",
      "outputs": [
        {
          "internalType": "bytes32[]",
          "name": "",
          "type": "bytes32[]"
        }
      ],
      "stateMutability": "view",
      "type": "function"
    },
    {
      "inputs": [
        {
          "internalType": "bytes32",
          "name": "_path",
          "type": "bytes32"
        }
      ],
      "name": "getNode",
      "outputs": [
        {
          "internalType": "bytes32",
          "name": "",
          "type": "bytes32"
        },
        {
          "internalType": "address",
          "name": "",
          "type": "address"
        },
        {
          "internalType": "enum NodeType",
          "name": "",
          "type": "uint8"
        },
        {
          "internalType": "bytes",
          "name": "",
          "type": "bytes"
        },
        {
          "internalType": "bytes32[]",
          "name": "",
          "type": "bytes32[]"
        },
        {
          "internalType": "bool",
          "name": "",
          "type": "bool"
        },
        {
          "internalType": "bytes32",
          "name": "",
          "type": "bytes32"
        }
      ],
      "stateMutability": "view",
      "type": "function"
    },
    {
      "inputs": [
        {
          "internalType": "bytes32",
          "name": "_path",
          "type": "bytes32"
        }
      ],
      "name": "getTask",
      "outputs": [
        {
          "internalType": "address",
          "name": "",
          "type": "address"
        },
        {
          "internalType": "bytes",
          "name": "",
          "type": "bytes"
        },
        {
          "internalType": "bool",
          "name": "",
          "type": "bool"
        },
        {
          "internalType": "bytes32[]",
          "name": "",
          "type": "bytes32[]"
        },
        {
          "internalType": "address",
          "name": "",
          "type": "address"
        },
        {
          "internalType": "uint256",
          "name": "",
          "type": "uint256"
        }
      ],
      "stateMutability": "view",
      "type": "function"
    },
    {
      "inputs": [],
      "name": "nodesCount",
      "outputs": [
        {
          "internalType": "uint256",
          "name": "",
          "type": "uint256"
        }
      ],
      "stateMutability": "view",
      "type": "function"
    },
    {
      "inputs": [
        {
          "internalType": "bytes32",
          "name": "taskPath",
          "type": "bytes32"
        },
        {
          "internalType": "bytes32[]",
          "name": "paths",
          "type": "bytes32[]"
        }
      ],
      "name": "payoutTask",
      "outputs": [],
      "stateMutability": "nonpayable",
      "type": "function"
    },
    {
      "inputs": [],
      "name": "rootTaskPath",
      "outputs": [
        {
          "internalType": "bytes32",
          "name": "",
          "type": "bytes32"
        }
      ],
      "stateMutability": "view",
      "type": "function"
    },
    {
      "inputs": [
        {
          "internalType": "bytes32[]",
          "name": "_paths",
          "type": "bytes32[]"
        },
        {
          "internalType": "bool[]",
          "name": "_isOpens",
          "type": "bool[]"
        }
      ],
      "name": "updateNodesIsOpen",
      "outputs": [
        {
          "internalType": "uint256",
          "name": "",
          "type": "uint256"
        }
      ],
      "stateMutability": "nonpayable",
      "type": "function"
    },
    {
      "stateMutability": "payable",
      "type": "receive"
    }
  ],
  "bytecode": {
    "object": "0x60806040526000600255348015620000635760405162461bcd60e51b815260206004820152602260248201527f45746865722073656e7420746f206e6f6e2d70617961626c652066756e637469604482019081526137b760f11b6064830152608482fd5b506200009b600060405180604001604052806008815260200167526f6f745461736b60c01b815250336000806200010560201b60201c565b600381905550620000d060405180606001604052806026815260200162002503602691396200032760201b620004921760201c565b620000e86003546200037560201b620012cf1760201c565b620000ff6000620003c160201b620013141760201c565b62000659565b6000808551116200011557600080fd5b6000620001216200040f565b90506000878260405160200162000142929190918252602082015260400190565b604051602081830303815290604052805190602001209050604051806101000160405280828152602001898152602001858152602001876001600160a01b031681526020018660028111156200019c576200019c62000555565b815260208082018a90526040805160008082528184018352828501919091526001606094850181905286825280845290829020855181559285015190830155830151600280830191909155918301516003820180546001600160a01b039092166001600160a01b03198316811782556080860151939491926001600160a81b0319161790600160a01b9084908111156200023a576200023a62000555565b021790555060a082015180516200025c91600484019160209091019062000472565b5060c082015180516200027a91600584019160209091019062000501565b5060e091909101516006909101805460ff19169115159190911790556000888152600160208181526040832060050180548084018255908452908320018390556002805491929091620002cf9084906200056b565b9250508190555087866001600160a01b03167f92f79e4ee75e2f5728dfd026fd65e2fd7e6677ce4945b6e08f0a4d1d81da61a483886040516200031492919062000592565b60405180910390a3979650505050505050565b62000372816040516024016200033e9190620005c5565b60408051601f198184030181529190526020810180516001600160e01b0390811663104c13eb60e21b179091526200045116565b50565b62000372816040516024016200038d91815260200190565b60408051601f198184030181529190526020810180516001600160e01b039081166327b7cf8560e01b179091526200045116565b6040516001600160a01b0382166024820152620003729060440160408051601f198184030181529190526020810180516001600160e01b0390811663161765e160e11b179091526200045116565b600060025460016200042291906200056b565b604080516020810192909252339082015260600160405160208183030381529060405280519060200120905090565b80516a636f6e736f6c652e6c6f67602083016000808483855afa5050505050565b82805462000480906200061d565b90600052602060002090601f016020900481019282620004a45760008555620004ef565b82601f10620004bf57805160ff1916838001178555620004ef565b82800160010185558215620004ef579182015b82811115620004ef578251825591602001919060010190620004d2565b50620004fd9291506200053e565b5090565b828054828255906000526020600020908101928215620004ef5791602002820182811115620004ef578251825591602001919060010190620004d2565b5b80821115620004fd57600081556001016200053f565b634e487b7160e01b600052602160045260246000fd5b600082198211156200058d57634e487b7160e01b600052601160045260246000fd5b500190565b8281526040810160038310620005b857634e487b7160e01b600052602160045260246000fd5b8260208301529392505050565b600060208083528351808285015260005b81811015620005f457858101830151858201604001528201620005d6565b8181111562000607576000604083870101525b50601f01601f1916929092016040019392505050565b600181811c908216806200063257607f821691505b6020821081036200065357634e487b7160e01b600052602260045260246000fd5b50919050565b611e9a80620006696000396000f3fe6080604052600436106100955760003560e01c8063b25d5fe611610059578063b25d5fe6146102d5578063d03388db14610330578063e985ccd71461038b578063ee5e9d9e146103e6578063f1a3c5b314610441576100c9565b806315a290351461012257806350c946fe146101985780635357d42914610206578063779900b4146102275780638973df0714610284576100c9565b366100c9576100c76040518060400160405280600c81526020016b0a48a868a92ac8a88408aa8960a31b815250610492565b005b60405162461bcd60e51b815260206004820152602960248201527f556e6b6e6f776e207369676e617475726520616e64206e6f2066616c6c62616360448201908152681ac81919599a5b995960ba1b6064830152608482fd5b3480156101695760405162461bcd60e51b81526020600482015260226024820152600080516020611e25833981519152604482019081526137b760f11b6064830152608482fd5b5061017d61017836600461173c565b6104d8565b60405161018f969594939291906117e0565b60405180910390f35b3480156101df5760405162461bcd60e51b81526020600482015260226024820152600080516020611e25833981519152604482019081526137b760f11b6064830152608482fd5b506101f36101ee36600461173c565b610638565b60405161018f979695949392919061186b565b610219610214366004611a2a565b61078f565b60405190815260200161018f565b34801561026e5760405162461bcd60e51b81526020600482015260226024820152600080516020611e25833981519152604482019081526137b760f11b6064830152608482fd5b50610277610b1f565b60405161018f9190611a96565b3480156102cb5760405162461bcd60e51b81526020600482015260226024820152600080516020611e25833981519152604482019081526137b760f11b6064830152608482fd5b5061021960035481565b34801561031c5760405162461bcd60e51b81526020600482015260226024820152600080516020611e25833981519152604482019081526137b760f11b6064830152608482fd5b506100c761032b366004611b97565b610b85565b3480156103775760405162461bcd60e51b81526020600482015260226024820152600080516020611e25833981519152604482019081526137b760f11b6064830152608482fd5b50610219610386366004611bf2565b611051565b3480156103d25760405162461bcd60e51b81526020600482015260226024820152600080516020611e25833981519152604482019081526137b760f11b6064830152608482fd5b506102196103e1366004611cc5565b611201565b34801561042d5760405162461bcd60e51b81526020600482015260226024820152600080516020611e25833981519152604482019081526137b760f11b6064830152608482fd5b5061021961043c366004611cc5565b61126b565b3480156104885760405162461bcd60e51b81526020600482015260226024820152600080516020611e25833981519152604482019081526137b760f11b6064830152608482fd5b5061021960025481565b6104d5816040516024016104a69190611d08565b60408051601f198184030181529190526020810180516001600160e01b031663104c13eb60e21b179052611358565b50565b60008181526001602052606081818180866104f7565b60405180910390fd5b6000888152600160208181526040808420918490529092206003830154600684015482549383015460048601805494956001600160a01b0394851695919460ff909416936005890193911691859061054e90611d1b565b80601f016020809104026020016040519081016040528092919081815260200182805461057a90611d1b565b80156105c75780601f1061059c576101008083540402835291602001916105c7565b820191906000526020600020905b8154815290600101906020018083116105aa57829003601f168201915b505050505094508280548060200260200160405190810160405280929190818152602001828054801561061957602002820191906000526020600020905b815481526020019060010190808311610605575b5050505050925098509850985098509850985050505091939550919395565b6000818152600160205280806060808280876000898152600160208190526040909120908101546003820154600683015460028401546004850180546001600160a01b0385169460ff600160a01b909104811694929360058901939091169184906106a290611d1b565b80601f01602080910402602001604051908101604052809291908181526020018280546106ce90611d1b565b801561071b5780601f106106f05761010080835404028352916020019161071b565b820191906000526020600020905b8154815290600101906020018083116106fe57829003601f168201915b505050505093508280548060200260200160405190810160405280929190818152602001828054801561076d57602002820191906000526020600020905b815481526020019060010190808311610759575b5050505050925098509850985098509850985098505050919395979092949650565b6000806001600160a01b038416610816576000341161080f5760405162461bcd60e51b815260206004820152603660248201527f5472616e73616374696f6e206d75737420686176652076616c756520746f20636044820152757265617465207461736b207769746820626f756e747960501b60648201526084016104ee565b5034610a85565b6000846001600160a01b03163b116108815760405162461bcd60e51b815260206004820152602860248201527f5f746f6b656e41646472657373206d757374206265206120636f6e7472616374604482015267206164647265737360c01b60648201526084016104ee565b600083116108f75760405162461bcd60e51b815260206004820152603860248201527f455243323020746f6b656e206d7573742068617665205f616d6f756e7420746f60448201527f20637265617465207461736b207769746820626f756e7479000000000000000060648201526084016104ee565b6040516370a0823160e01b8152336004820152849082906001600160a01b038316906370a082319060240160206040518083038186803b1580156109785760405162461bcd60e51b81526020600482015260256024820152600080516020611e45833981519152604482019081526420636f646560d81b6064830152608482fd5b505afa15801561098c573d6000803e3d6000fd5b505050506040513d601f19601f820116820180604052508101906109b09190611d55565b10156109bb57600080fd5b6040516323b872dd60e01b8152336004820152306024820152604481018590528492506001600160a01b038216906323b872dd90606401602060405180830381600087803b158015610a4a5760405162461bcd60e51b81526020600482015260256024820152600080516020611e45833981519152604482019081526420636f646560d81b6064830152608482fd5b505af1158015610a5e573d6000803e3d6000fd5b505050506040513d601f19601f82011682018060405250810190610a829190611d71565b50505b6000610a976003548733600080611379565b6040805180820182526001600160a01b03888116825260208083018781526000868152808352859020935184546001600160a01b031916931692909217835590516001909201919091558151808301909252601082526f5461736b43726561746f72536861726560801b90820152909150610b13908290611201565b509150505b9392505050565b600354600090815260016020908152604091829020600501805483518184028101840190945280845260609392830182828015610b7b57602002820191906000526020600020905b815481526020019060010190808311610b67575b5050505050905090565b60008281526001602052604090206003015482906001600160a01b03163314610bf05760405162461bcd60e51b815260206004820152601d60248201527f4f6e6c79206e6f6465206f776e65722063616e2065646974206e6f646500000060448201526064016104ee565b6000825111610c1b5760405162461bcd60e51b815260206004820152600060248201526044016104ee565b60008381526020818152604091829020825180840190935280546001600160a01b0316835260010154908201819052610c5357600080fd5b600083518260200151610c669190611da7565b82519091506001600160a01b0316610df0578160200151471015610cd65760405162461bcd60e51b815260206004820152602160248201527f436f6e7472616374206d757374206861766520656e6f7567682062616c616e636044820152606560f81b60648201526084016104ee565b60005b8451811015610dea57600060016000878481518110610cfa57610cfa611dc9565b6020026020010151815260200190815260200160002060030160009054906101000a90046001600160a01b03166001600160a01b03168360405160006040518083038185875af1925050503d8060008114610d71576040519150601f19603f3d011682016040523d82523d6000602084013e610d76565b606091505b5050905080610dd75760405162461bcd60e51b815260206004820152602760248201527f4661696c656420746f207769746864726177206d6f6e65792066726f6d20636f604482015266373a3930b1ba1760c91b60648201526084016104ee565b5080610de281611ddf565b915050610cd9565b50611039565b815160208301516040516370a0823160e01b81523060048201526001600160a01b038316906370a082319060240160206040518083038186803b158015610e745760405162461bcd60e51b81526020600482015260256024820152600080516020611e45833981519152604482019081526420636f646560d81b6064830152608482fd5b505afa158015610e88573d6000803e3d6000fd5b505050506040513d601f19601f82011682018060405250810190610eac9190611d55565b1015610f0d5760405162461bcd60e51b815260206004820152602a60248201527f436f6e7472616374206d757374206861766520656e6f7567682062616c616e63604482015269329037b3103a37b5b2b760b11b60648201526084016104ee565b60005b855181101561103657816001600160a01b03166323b872dd30600160008a8681518110610f3f57610f3f611dc9565b602090810291909101810151825281019190915260409081016000206003015490516001600160e01b031960e085901b1681526001600160a01b0392831660048201529116602482015260448101869052606401602060405180830381600087803b158015610feb5760405162461bcd60e51b81526020600482015260256024820152600080516020611e45833981519152604482019081526420636f646560d81b6064830152608482fd5b505af1158015610fff573d6000803e3d6000fd5b505050506040513d601f19601f820116820180604052508101906110239190611d71565b508061102e81611ddf565b915050610f10565b50505b50505060009182525060208190526040812060010155565b600081518351146110b95760405162461bcd60e51b815260206004820152602c60248201527f4e6f646520706174687320616e642069734f70656e73206d757374206861766560448201526b040e6c2daca40d8cadccee8d60a31b60648201526084016104ee565b6000805b84518110156111f9576000336001600160a01b0316600160008885815181106110e8576110e8611dc9565b6020908102919091018101518252810191909152604001600020600301546001600160a01b031614801561116f575084828151811061112957611129611dc9565b602002602001015115156001600088858151811061114957611149611dc9565b60209081029190910181015182528101919091526040016000206006015460ff16151514155b905080156111e65784828151811061118957611189611dc9565b6020026020010151600160008885815181106111a7576111a7611dc9565b6020026020010151815260200190815260200160002060060160006101000a81548160ff02191690831515021790555082806111e290611ddf565b9350505b50806111f181611ddf565b9150506110bd565b509392505050565b600082815260016020526040812060030154839082908190600160a01b900460ff16600281111561123457611234611833565b03611240575083611254565b506000848152600160205260409020600201545b611262858533600285611379565b95945050505050565b6000828152600160205260408120600301548390600290600160a01b900460ff168181111561129c5761129c611833565b146112a657600080fd5b600060016000868152602001908152602001600020600201549050611262858533600185611379565b6104d5816040516024016112e591815260200190565b60408051601f198184030181529190526020810180516001600160e01b03166327b7cf8560e01b179052611358565b6040516001600160a01b03821660248201526104d59060440160408051601f198184030181529190526020810180516001600160e01b031663161765e160e11b1790525b80516a636f6e736f6c652e6c6f67602083016000808483855afa5050505050565b60008085511161138857600080fd5b6000611392611589565b9050600087826040516020016113b2929190918252602082015260400190565b604051602081830303815290604052805190602001209050604051806101000160405280828152602001898152602001858152602001876001600160a01b0316815260200186600281111561140957611409611833565b815260208082018a90526040805160008082528184018352828501919091526001606094850181905286825280845290829020855181559285015190830155830151600280830191909155918301516003820180546001600160a01b039092166001600160a01b03198316811782556080860151939491926001600160a81b0319161790600160a01b9084908111156114a4576114a4611833565b021790555060a082015180516114c49160048401916020909101906115c9565b5060c082015180516114e091600584019160209091019061164d565b5060e091909101516006909101805460ff19169115159190911790556000888152600160208181526040832060050180548084018255908452908320018390556002805491929091611533908490611df8565b9250508190555087866001600160a01b03167f92f79e4ee75e2f5728dfd026fd65e2fd7e6677ce4945b6e08f0a4d1d81da61a48388604051611576929190611e10565b60405180910390a3979650505050505050565b6000600254600161159a9190611df8565b604080516020810192909252339082015260600160405160208183030381529060405280519060200120905090565b8280546115d590611d1b565b90600052602060002090601f0160209004810192826115f7576000855561163d565b82601f1061161057805160ff191683800117855561163d565b8280016001018555821561163d579182015b8281111561163d578251825591602001919060010190611622565b50611649929150611687565b5090565b82805482825590600052602060002090810192821561163d579160200282018281111561163d578251825591602001919060010190611622565b5b808211156116495760008155600101611688565b60405162461bcd60e51b815260206004820152602260248201527f414249206465636f64696e673a207475706c65206461746120746f6f2073686f6044820152611c9d60f21b6064820152608481fd5b60405162461bcd60e51b815260206004820152602260248201527f414249206465636f64696e673a20696e76616c6964207475706c65206f666673604482015261195d60f21b6064820152608481fd5b6000602082840312156117515761175161169c565b5035919050565b6000815180845260005b8181101561177e57602081850181015186830182015201611762565b81811115611790576000602083870101525b50601f01601f19169290920160200192915050565b600081518084526020808501945080840160005b838110156117d5578151875295820195908201906001016117b9565b509495945050505050565b600060018060a01b03808916835260c0602084015261180260c0840189611758565b8715156040850152838103606085015261181c81886117a5565b959091166080840152505060a00152949350505050565b634e487b7160e01b600052602160045260246000fd5b6003811061186757634e487b7160e01b600052602160045260246000fd5b9052565b8781526001600160a01b038716602082015261188a6040820187611849565b60e0606082015260006118a060e0830187611758565b82810360808401526118b281876117a5565b94151560a0840152505060c0015295945050505050565b60405162461bcd60e51b815260206004820152602b60248201527f414249206465636f64696e673a20696e76616c69642063616c6c64617461206160448201526a1c9c985e481bd9999cd95d60aa1b6064820152608481fd5b634e487b7160e01b600052604160045260246000fd5b604051601f8201601f1916810167ffffffffffffffff8111828210171561196157611961611922565b604052919050565b600082601f83011261197d5761197d6118c9565b8135602067ffffffffffffffff82111561199957611999611922565b6119ab601f8301601f19168201611938565b8281528582848701011115611a0f5760405162461bcd60e51b815260048101839052602760248201527f414249206465636f64696e673a20696e76616c69642062797465206172726179604482015266040d8cadccee8d60cb1b6064820152608481fd5b82828601838301376000928101909101919091529392505050565b600080600060608486031215611a4257611a4261169c565b833567ffffffffffffffff811115611a5c57611a5c6116ec565b611a6886828701611969565b93505060208401356001600160a01b0381168114611a8557600080fd5b929592945050506040919091013590565b602081526000610b1860208301846117a5565b600067ffffffffffffffff821115611ac357611ac3611922565b5060051b60200190565b60405162461bcd60e51b815260206004820152602b60248201527f414249206465636f64696e673a20696e76616c69642063616c6c64617461206160448201526a727261792073747269646560a81b6064820152608481fd5b600082601f830112611b3a57611b3a6118c9565b81356020611b4f611b4a83611aa9565b611938565b82815260059290921b84018101918181019086841115611b7157611b71611acd565b8286015b84811015611b8c5780358352918301918301611b75565b509695505050505050565b60008060408385031215611bad57611bad61169c565b82359150602083013567ffffffffffffffff811115611bce57611bce6116ec565b611bda85828601611b26565b9150509250929050565b80151581146104d557600080fd5b60008060408385031215611c0857611c0861169c565b823567ffffffffffffffff80821115611c2357611c236116ec565b611c2f86838701611b26565b9350602091508185013581811115611c4957611c496116ec565b85019050601f81018613611c5f57611c5f6118c9565b8035611c6d611b4a82611aa9565b81815260059190911b82018301908381019088831115611c8f57611c8f611acd565b928401925b82841015611cb6578335611ca781611be4565b82529284019290840190611c94565b80955050505050509250929050565b60008060408385031215611cdb57611cdb61169c565b82359150602083013567ffffffffffffffff811115611cfc57611cfc6116ec565b611bda85828601611969565b602081526000610b186020830184611758565b600181811c90821680611d2f57607f821691505b602082108103611d4f57634e487b7160e01b600052602260045260246000fd5b50919050565b600060208284031215611d6a57611d6a61169c565b5051919050565b600060208284031215611d8657611d8661169c565b8151610b1881611be4565b634e487b7160e01b600052601160045260246000fd5b600082611dc457634e487b7160e01b600052601260045260246000fd5b500490565b634e487b7160e01b600052603260045260246000fd5b600060018201611df157611df1611d91565b5060010190565b60008219821115611e0b57611e0b611d91565b500190565b82815260408101610b18602083018461184956fe45746865722073656e7420746f206e6f6e2d70617961626c652066756e63746954617267657420636f6e747261637420646f6573206e6f7420636f6e7461696ea2646970667358221220aa5431c56dcf7ea10a955e3c643bd2efa4d8a9f21a76cc16a04e8a4ec8603e3064736f6c634300080d003343726561746564205461736b506f7274616c20726f6f74207461736b20776974682070617468",
    "linkReferences": {}
  },
  "methodIdentifiers": {
    "addShare(bytes32,bytes)": "e985ccd7",
    "addSolution(bytes32,bytes)": "ee5e9d9e",
    "addTask(bytes,address,uint256)": "5357d429",
    "getAllTasks()": "779900b4",
    "getNode(bytes32)": "50c946fe",
    "getTask(bytes32)": "15a29035",
    "nodesCount()": "f1a3c5b3",
    "payoutTask(bytes32,bytes32[])": "b25d5fe6",
    "rootTaskPath()": "8973df07",
    "updateNodesIsOpen(bytes32[],bool[])": "d03388db"
  },
  "id": 8
}