{
  "abi": [
    {
      "inputs": [
        {
          "internalType": "address",
          "name": "_trustedForwarder",
          "type": "address"
        }
      ],
      "stateMutability": "nonpayable",
      "type": "constructor"
    },
    {
      "anonymous": false,
      "inputs": [
        {
          "indexed": true,
          "internalType": "bytes32",
          "name": "path",
          "type": "bytes32"
        },
        {
          "indexed": true,
          "internalType": "address",
          "name": "tokenAddress",
          "type": "address"
        },
        {
          "indexed": false,
          "internalType": "uint256",
          "name": "amount",
          "type": "uint256"
        }
      ],
      "name": "BountyUpdated",
      "type": "event"
    },
    {
      "anonymous": false,
      "inputs": [
        {
          "indexed": true,
          "internalType": "bytes32",
          "name": "path",
          "type": "bytes32"
        },
        {
          "indexed": true,
          "internalType": "address",
          "name": "owner",
          "type": "address"
        },
        {
          "indexed": true,
          "internalType": "enum NodeType",
          "name": "nodeType",
          "type": "uint8"
        },
        {
          "indexed": false,
          "internalType": "bytes32",
          "name": "parent",
          "type": "bytes32"
        }
      ],
      "name": "NodeUpdated",
      "type": "event"
    },
    {
      "anonymous": false,
      "inputs": [
        {
          "indexed": true,
          "internalType": "address",
          "name": "previousOwner",
          "type": "address"
        },
        {
          "indexed": true,
          "internalType": "address",
          "name": "newOwner",
          "type": "address"
        }
      ],
      "name": "OwnershipTransferred",
      "type": "event"
    },
    {
      "inputs": [
        {
          "internalType": "bytes32",
          "name": "_parent",
          "type": "bytes32"
        },
        {
          "internalType": "bytes",
          "name": "_data",
          "type": "bytes"
        }
      ],
      "name": "addShare",
      "outputs": [
        {
          "internalType": "bytes32",
          "name": "",
          "type": "bytes32"
        }
      ],
      "stateMutability": "nonpayable",
      "type": "function"
    },
    {
      "inputs": [
        {
          "internalType": "bytes32",
          "name": "_parent",
          "type": "bytes32"
        },
        {
          "internalType": "bytes",
          "name": "_data",
          "type": "bytes"
        }
      ],
      "name": "addSolution",
      "outputs": [
        {
          "internalType": "bytes32",
          "name": "",
          "type": "bytes32"
        }
      ],
      "stateMutability": "nonpayable",
      "type": "function"
    },
    {
      "inputs": [
        {
          "internalType": "bytes",
          "name": "_data",
          "type": "bytes"
        },
        {
          "internalType": "address",
          "name": "_tokenAddress",
          "type": "address"
        },
        {
          "internalType": "uint256",
          "name": "_amount",
          "type": "uint256"
        }
      ],
      "name": "addTask",
      "outputs": [
        {
          "internalType": "bytes32",
          "name": "",
          "type": "bytes32"
        }
      ],
      "stateMutability": "payable",
      "type": "function"
    },
    {
      "inputs": [],
      "name": "getAllTasks",
      "outputs": [
        {
          "internalType": "bytes32[]",
          "name": "",
          "type": "bytes32[]"
        }
      ],
      "stateMutability": "view",
      "type": "function"
    },
    {
      "inputs": [
        {
          "internalType": "bytes32",
          "name": "_path",
          "type": "bytes32"
        }
      ],
      "name": "getBountiesForTask",
      "outputs": [
        {
          "components": [
            {
              "internalType": "address",
              "name": "tokenAddress",
              "type": "address"
            },
            {
              "internalType": "uint256",
              "name": "amount",
              "type": "uint256"
            }
          ],
          "internalType": "struct Bounty[]",
          "name": "",
          "type": "tuple[]"
        }
      ],
      "stateMutability": "view",
      "type": "function"
    },
    {
      "inputs": [
        {
          "internalType": "bytes32",
          "name": "_path",
          "type": "bytes32"
        }
      ],
      "name": "getNode",
      "outputs": [
        {
          "internalType": "bytes32",
          "name": "",
          "type": "bytes32"
        },
        {
          "internalType": "address",
          "name": "",
          "type": "address"
        },
        {
          "internalType": "enum NodeType",
          "name": "",
          "type": "uint8"
        },
        {
          "internalType": "bytes",
          "name": "",
          "type": "bytes"
        },
        {
          "internalType": "bytes32[]",
          "name": "",
          "type": "bytes32[]"
        },
        {
          "internalType": "bool",
          "name": "",
          "type": "bool"
        },
        {
          "internalType": "bytes32",
          "name": "",
          "type": "bytes32"
        }
      ],
      "stateMutability": "view",
      "type": "function"
    },
    {
      "inputs": [
        {
          "internalType": "bytes32",
          "name": "_path",
          "type": "bytes32"
        }
      ],
      "name": "getTask",
      "outputs": [
        {
          "internalType": "address",
          "name": "",
          "type": "address"
        },
        {
          "internalType": "bytes",
          "name": "",
          "type": "bytes"
        },
        {
          "internalType": "bool",
          "name": "",
          "type": "bool"
        },
        {
          "internalType": "bytes32[]",
          "name": "",
          "type": "bytes32[]"
        }
      ],
      "stateMutability": "view",
      "type": "function"
    },
    {
      "inputs": [
        {
          "internalType": "bytes32",
          "name": "_taskPath",
          "type": "bytes32"
        },
        {
          "internalType": "address",
          "name": "_tokenAddress",
          "type": "address"
        },
        {
          "internalType": "uint256",
          "name": "_amount",
          "type": "uint256"
        }
      ],
      "name": "increaseBounty",
      "outputs": [],
      "stateMutability": "payable",
      "type": "function"
    },
    {
      "inputs": [
        {
          "internalType": "address",
          "name": "forwarder",
          "type": "address"
        }
      ],
      "name": "isTrustedForwarder",
      "outputs": [
        {
          "internalType": "bool",
          "name": "",
          "type": "bool"
        }
      ],
      "stateMutability": "view",
      "type": "function"
    },
    {
      "inputs": [],
      "name": "nodesCount",
      "outputs": [
        {
          "internalType": "uint256",
          "name": "",
          "type": "uint256"
        }
      ],
      "stateMutability": "view",
      "type": "function"
    },
    {
      "inputs": [],
      "name": "owner",
      "outputs": [
        {
          "internalType": "address",
          "name": "",
          "type": "address"
        }
      ],
      "stateMutability": "view",
      "type": "function"
    },
    {
      "inputs": [
        {
          "internalType": "bytes32",
          "name": "taskPath",
          "type": "bytes32"
        },
        {
          "internalType": "address[]",
          "name": "addresses",
          "type": "address[]"
        },
        {
          "internalType": "address[]",
          "name": "tokenAddresses",
          "type": "address[]"
        },
        {
          "internalType": "uint256[]",
          "name": "amounts",
          "type": "uint256[]"
        }
      ],
      "name": "payoutTask",
      "outputs": [],
      "stateMutability": "nonpayable",
      "type": "function"
    },
    {
      "inputs": [],
      "name": "renounceOwnership",
      "outputs": [],
      "stateMutability": "nonpayable",
      "type": "function"
    },
    {
      "inputs": [],
      "name": "rootTaskPath",
      "outputs": [
        {
          "internalType": "bytes32",
          "name": "",
          "type": "bytes32"
        }
      ],
      "stateMutability": "view",
      "type": "function"
    },
    {
      "inputs": [
        {
          "internalType": "address",
          "name": "_trustedForwarder",
          "type": "address"
        }
      ],
      "name": "setTrustedForwarder",
      "outputs": [],
      "stateMutability": "nonpayable",
      "type": "function"
    },
    {
      "inputs": [
        {
          "internalType": "address",
          "name": "newOwner",
          "type": "address"
        }
      ],
      "name": "transferOwnership",
      "outputs": [],
      "stateMutability": "nonpayable",
      "type": "function"
    },
    {
      "inputs": [],
      "name": "trustedForwarder",
      "outputs": [
        {
          "internalType": "address",
          "name": "",
          "type": "address"
        }
      ],
      "stateMutability": "view",
      "type": "function"
    },
    {
      "inputs": [
        {
          "internalType": "bytes32[]",
          "name": "_paths",
          "type": "bytes32[]"
        },
        {
          "internalType": "bool[]",
          "name": "_isOpens",
          "type": "bool[]"
        }
      ],
      "name": "updateNodesIsOpen",
      "outputs": [
        {
          "internalType": "uint256",
          "name": "",
          "type": "uint256"
        }
      ],
      "stateMutability": "nonpayable",
      "type": "function"
    },
    {
      "inputs": [
        {
          "internalType": "bytes32",
          "name": "_path",
          "type": "bytes32"
        },
        {
          "internalType": "bytes",
          "name": "_data",
          "type": "bytes"
        }
      ],
      "name": "updateTaskData",
      "outputs": [],
      "stateMutability": "nonpayable",
      "type": "function"
    },
    {
      "inputs": [
        {
          "internalType": "bytes32",
          "name": "_path",
          "type": "bytes32"
        },
        {
          "internalType": "address",
          "name": "_newOwner",
          "type": "address"
        }
      ],
      "name": "updateTaskOwner",
      "outputs": [],
      "stateMutability": "nonpayable",
      "type": "function"
    },
    {
      "inputs": [
        {
          "internalType": "uint256",
          "name": "_amount",
          "type": "uint256"
        }
      ],
      "name": "withdrawToOwner",
      "outputs": [],
      "stateMutability": "nonpayable",
      "type": "function"
    },
    {
      "inputs": [
        {
          "internalType": "address",
          "name": "_tokenAddress",
          "type": "address"
        },
        {
          "internalType": "uint256",
          "name": "_amount",
          "type": "uint256"
        }
      ],
      "name": "withdrawTokenToOwner",
      "outputs": [],
      "stateMutability": "nonpayable",
      "type": "function"
    },
    {
      "stateMutability": "payable",
      "type": "receive"
    }
  ],
  "bytecode": {
    "object": "0x60a06040526000600355348015620000635760405162461bcd60e51b815260206004820152602260248201527f45746865722073656e7420746f206e6f6e2d70617961626c652066756e637469604482019081526137b760f11b6064830152608482fd5b50604051620038f1380380620038f18339810160408190526200008691620004f8565b6001600160a01b038116608052620000a7620000a1620000e8565b62000104565b620000de600060405180604001604052806008815260200167526f6f745461736b60c01b815250336000806200015460201b60201c565b60045550620005ee565b6000620000ff6200037d60201b62001d871760201c565b905090565b600080546001600160a01b038381166001600160a01b0319831681178455604051919092169283917f8be0079c531659141344cd1fd0a4f28419497f9722a3daafe3b4186f6b6457e09190a35050565b6000808551116200016457600080fd5b600062000170620003b5565b90506000878260405160200162000191929190918252602082015260400190565b60408051601f198184030181528282528051602091820120610100840183526001600160a01b038a1684528184018b9052825160008152918201835291830152915060608101866002811115620001ec57620001ec62000575565b8152600160208083018290526040808401869052606084018d90526080909301889052600085815282825292909220835181546001600160a01b0319166001600160a01b039091161781558383015180519193620002509385019291019062000415565b50604082015180516200026e916002840191602090910190620004a4565b50606082015160038201805460ff1916600183600281111562000295576200029562000575565b02179055506080820151600380830180549215156101000261ff00199093169290921790915560a0830151600483015560c0830151600583015560e090920151600690910155600089815260016020818152604083206002018054808401825590845290832001849055825490929190620003129084906200058b565b9091555085905060028111156200032d576200032d62000575565b866001600160a01b0316827fcd4204a6cfd0ad4e00073973d9db47cc8ee30485ec5f0fe3c9b23538f2c7d2488b6040516200036a91815260200190565b60405180910390a4979650505050505050565b6080516000906001600160a01b03163303620003a0575060131936013560601c90565b620000ff6200041160201b62001dd01760201c565b60006003546001620003c891906200058b565b620003d2620000e8565b604051602001620003f69291909182526001600160a01b0316602082015260400190565b60405160208183030381529060405280519060200120905090565b3390565b8280546200042390620005b2565b90600052602060002090601f01602090048101928262000447576000855562000492565b82601f106200046257805160ff191683800117855562000492565b8280016001018555821562000492579182015b828111156200049257825182559160200191906001019062000475565b50620004a0929150620004e1565b5090565b8280548282559060005260206000209081019282156200049257916020028201828111156200049257825182559160200191906001019062000475565b5b80821115620004a05760008155600101620004e2565b600060208284031215620005565760405162461bcd60e51b815260206004820152602260248201527f414249206465636f64696e673a207475706c65206461746120746f6f2073686f6044820152611c9d60f21b6064820152608481fd5b81516001600160a01b03811681146200056e57600080fd5b9392505050565b634e487b7160e01b600052602160045260246000fd5b60008219821115620005ad57634e487b7160e01b600052601160045260246000fd5b500190565b600181811c90821680620005c757607f821691505b602082108103620005e857634e487b7160e01b600052602260045260246000fd5b50919050565b6080516132e0620006116000396000818161049a0152611d8b01526132e06000f3fe6080604052600436106101395760003560e01c80637da0a877116100ab578063e985ccd71161006f578063e985ccd7146107b5578063ee5e9d9e14610810578063f1a3c5b31461086b578063f2fde38b146108bc578063fe40865814610917578063fe949a11146109725761016d565b80637da0a877146105e25780638973df07146106555780638da5cb5b146106a6578063d03388db146106ff578063da7422281461075a5761016d565b80635357d429116100fd5780635357d429146103c657806356a6338f146103e7578063572b6c05146104425780636a5bbc1d146104da578063715018a614610535578063779900b4146105855761016d565b806315a29035146101c65780633047c26d1461023a5780634498c6cf146102955780634723218d146102fd57806350c946fe146103585761016d565b3661016d5761016b6040518060400160405280600c81526020016b0a48a868a92ac8a88408aa8960a31b815250610985565b005b60405162461bcd60e51b815260206004820152602960248201527f556e6b6e6f776e207369676e617475726520616e64206e6f2066616c6c62616360448201908152681ac81919599a5b995960ba1b6064830152608482fd5b34801561020d5760405162461bcd60e51b8152602060048201526022602482015260008051602061326b833981519152604482019081526137b760f11b6064830152608482fd5b5061022161021c366004612880565b6109cb565b604051610231949392919061292f565b60405180910390f35b3480156102815760405162461bcd60e51b8152602060048201526022602482015260008051602061326b833981519152604482019081526137b760f11b6064830152608482fd5b5061016b610290366004612b1e565b610b57565b3480156102dc5760405162461bcd60e51b8152602060048201526022602482015260008051602061326b833981519152604482019081526137b760f11b6064830152608482fd5b506102f06102eb366004612880565b61109d565b6040516102319190612c16565b3480156103445760405162461bcd60e51b8152602060048201526022602482015260008051602061326b833981519152604482019081526137b760f11b6064830152608482fd5b5061016b610353366004612c6e565b611166565b34801561039f5760405162461bcd60e51b8152602060048201526022602482015260008051602061326b833981519152604482019081526137b760f11b6064830152608482fd5b506103b36103ae366004612880565b611292565b6040516102319796959493929190612cb3565b6103d96103d4366004612de9565b6113e7565b604051908152602001610231565b34801561042e5760405162461bcd60e51b8152602060048201526022602482015260008051602061326b833981519152604482019081526137b760f11b6064830152608482fd5b5061016b61043d366004612e46565b6114e8565b3480156104895760405162461bcd60e51b8152602060048201526022602482015260008051602061326b833981519152604482019081526137b760f11b6064830152608482fd5b506104ca610498366004612e73565b7f00000000000000000000000000000000000000000000000000000000000000006001600160a01b0390811691161490565b6040519015158152602001610231565b3480156105215760405162461bcd60e51b8152602060048201526022602482015260008051602061326b833981519152604482019081526137b760f11b6064830152608482fd5b5061016b610530366004612880565b611636565b34801561057c5760405162461bcd60e51b8152602060048201526022602482015260008051602061326b833981519152604482019081526137b760f11b6064830152608482fd5b5061016b61169b565b3480156105cc5760405162461bcd60e51b8152602060048201526022602482015260008051602061326b833981519152604482019081526137b760f11b6064830152608482fd5b506105d56116af565b6040516102319190612e98565b3480156106295760405162461bcd60e51b8152602060048201526022602482015260008051602061326b833981519152604482019081526137b760f11b6064830152608482fd5b5060055461063d906001600160a01b031681565b6040516001600160a01b039091168152602001610231565b34801561069c5760405162461bcd60e51b8152602060048201526022602482015260008051602061326b833981519152604482019081526137b760f11b6064830152608482fd5b506103d960045481565b3480156106ed5760405162461bcd60e51b8152602060048201526022602482015260008051602061326b833981519152604482019081526137b760f11b6064830152608482fd5b506000546001600160a01b031661063d565b3480156107465760405162461bcd60e51b8152602060048201526022602482015260008051602061326b833981519152604482019081526137b760f11b6064830152608482fd5b506103d9610755366004612f23565b611715565b3480156107a15760405162461bcd60e51b8152602060048201526022602482015260008051602061326b833981519152604482019081526137b760f11b6064830152608482fd5b5061016b6107b0366004612e73565b611990565b3480156107fc5760405162461bcd60e51b8152602060048201526022602482015260008051602061326b833981519152604482019081526137b760f11b6064830152608482fd5b506103d961080b366004612feb565b6119ba565b3480156108575760405162461bcd60e51b8152602060048201526022602482015260008051602061326b833981519152604482019081526137b760f11b6064830152608482fd5b506103d9610866366004612feb565b611a24565b3480156108b25760405162461bcd60e51b8152602060048201526022602482015260008051602061326b833981519152604482019081526137b760f11b6064830152608482fd5b506103d960035481565b3480156109035760405162461bcd60e51b8152602060048201526022602482015260008051602061326b833981519152604482019081526137b760f11b6064830152608482fd5b5061016b610912366004612e73565b611a7f565b34801561095e5760405162461bcd60e51b8152602060048201526022602482015260008051602061326b833981519152604482019081526137b760f11b6064830152608482fd5b5061016b61096d366004612feb565b611af5565b61016b61098036600461302e565b611bd2565b6109c8816040516024016109999190613056565b60408051601f198184030181529190526020810180516001600160e01b031663104c13eb60e21b179052611dd4565b50565b6000818152600160205260608181846109e8565b60405180910390fd5b856000808281526001602052604090206003015460ff166002811115610a1057610a10612c9d565b14610a2d5760405162461bcd60e51b81526004016109df90613069565b600087815260016020819052604090912080546003820154928201805492936001600160a01b03909216929091610100900460ff169060028501908390610a7390613096565b80601f0160208091040260200160405190810160405280929190818152602001828054610a9f90613096565b8015610aec5780601f10610ac157610100808354040283529160200191610aec565b820191906000526020600020905b815481529060010190602001808311610acf57829003601f168201915b5050505050925080805480602002602001604051908101604052809291908181526020018280548015610b3e57602002820191906000526020600020905b815481526020019060010190808311610b2a575b5050505050905096509650965096505050509193509193565b6000849052600160205283610b6a611df5565b6000828152600160205260409020546001600160a01b03908116911614610ba35760405162461bcd60e51b81526004016109df906130d0565b846000808281526001602052604090206003015460ff166002811115610bcb57610bcb612c9d565b14610be85760405162461bcd60e51b81526004016109df90613069565b6000855111610c315760405162461bcd60e51b8152602060048201526015602482015274139bc81859191c995cdcd95cc81c1c9bdd9a591959605a1b60448201526064016109df565b8251855114610c975760405162461bcd60e51b815260206004820152602c60248201527f4d7573742062652073616d65206e756d626572206f662061646472657373657360448201526b20616e6420616d6f756e747360a01b60648201526084016109df565b6000805b8651811015611093576000858281518110610cb857610cb8613107565b602002602001015111610cca57600080fd5b858181518110610cdc57610cdc613107565b6020026020010151915060005b60008981526002602052604090205481101561108057600089815260026020526040902080546001600160a01b038516919083908110610d2b57610d2b613107565b60009182526020909120600290910201546001600160a01b03160361106e57858281518110610d5c57610d5c613107565b6020026020010151600260008b81526020019081526020016000208281548110610d8857610d88613107565b9060005260206000209060020201600101541015610da557600080fd5b858281518110610db757610db7613107565b6020026020010151600260008b81526020019081526020016000208281548110610de357610de3613107565b90600052602060002090600202016001016000828254610e039190613133565b90915550506001600160a01b038316610ec057858281518110610e2857610e28613107565b6020026020010151471015610e4f5760405162461bcd60e51b81526004016109df9061314a565b878281518110610e6157610e61613107565b60200260200101516001600160a01b03166108fc878481518110610e8757610e87613107565b60200260200101519081150290604051600060405180830381858888f19350505050158015610eba573d6000803e3d6000fd5b5061106e565b6000839050868381518110610ed757610ed7613107565b60209081029190910101516040516370a0823160e01b81523060048201526001600160a01b038316906370a082319060240160206040518083038186803b158015610f5f5760405162461bcd60e51b8152602060048201526025602482015260008051602061328b833981519152604482019081526420636f646560d81b6064830152608482fd5b505afa158015610f73573d6000803e3d6000fd5b505050506040513d601f19601f82011682018060405250810190610f97919061318b565b1015610fe55760405162461bcd60e51b815260206004820181905260248201527f436f6e7472616374206d757374206861766520656e6f75676820746f6b656e7360448201526064016109df565b61101c30888581518110610ffb57610ffb613107565b6020026020010151836001600160a01b0316611dff9092919063ffffffff16565b61106c89848151811061103157611031613107565b602002602001015188858151811061104b5761104b613107565b6020026020010151836001600160a01b0316611f379092919063ffffffff16565b505b80611078816131a7565b915050610ce9565b508061108b816131a7565b915050610c9b565b5050505050505050565b600081815260016020526040812060030154606091839182919060ff1660028111156110cb576110cb612c9d565b146110e85760405162461bcd60e51b81526004016109df90613069565b600084815260026020908152604080832080548251818502810185019093528083529193909284015b82821015611159576000848152602090819020604080518082019091526002850290910180546001600160a01b03168252600190810154828401529083529092019101611111565b5050505092505050919050565b6000829052600160205281611179611df5565b6000828152600160205260409020546001600160a01b039081169116146111b25760405162461bcd60e51b81526004016109df906130d0565b826000808281526001602052604090206003015460ff1660028111156111da576111da612c9d565b146111f75760405162461bcd60e51b81526004016109df90613069565b600084815260016020526040902080546001600160a01b0319166001600160a01b0385161781556003015460ff16600281111561123657611236612c9d565b600085815260016020908152604091829020805460059091015492519283526001600160a01b03169187917fcd4204a6cfd0ad4e00073973d9db47cc8ee30485ec5f0fe3c9b23538f2c7d248910160405180910390a450505050565b6000818152600160208190526040822060058101548154600383015460068401549484018054879687966060968796899687968e96949593946001600160a01b039093169360ff8084169492936002890193610100909104909116919084906112fa90613096565b80601f016020809104026020016040519081016040528092919081815260200182805461132690613096565b80156113735780601f1061134857610100808354040283529160200191611373565b820191906000526020600020905b81548152906001019060200180831161135657829003601f168201915b50505050509350828054806020026020016040519081016040528092919081815260200182805480156113c557602002820191906000526020600020905b8154815260200190600101908083116113b1575b5050505050925098509850985098509850985098505050919395979092949650565b6000806001600160a01b03841661141f57600034116114185760405162461bcd60e51b81526004016109df906131c0565b503461142c565b6114298484611f67565b50815b60006114456004548761143d611df5565b60008061213e565b6000818152600260208181526040808420815180830183526001600160a01b038c811682528185018a81528354600180820186559489529786902092519790960290910180546001600160a01b03191696909116959095178555925193909201929092558051808201909152601081526f5461736b43726561746f72536861726560801b918101919091529091506114de9082906119ba565b5095945050505050565b6114f0612353565b6040516370a0823160e01b8152306004820152829082906001600160a01b038316906370a082319060240160206040518083038186803b1580156115715760405162461bcd60e51b8152602060048201526025602482015260008051602061328b833981519152604482019081526420636f646560d81b6064830152608482fd5b505afa158015611585573d6000803e3d6000fd5b505050506040513d601f19601f820116820180604052508101906115a9919061318b565b10156115f75760405162461bcd60e51b815260206004820181905260248201527f436f6e7472616374206d757374206861766520656e6f75676820746f6b656e7360448201526064016109df565b61160b6001600160a01b0382163084611dff565b6116316116206000546001600160a01b031690565b6001600160a01b0383169084611f37565b505050565b61163e612353565b8047101561165e5760405162461bcd60e51b81526004016109df9061314a565b600080546040516001600160a01b039091169183156108fc02918491818181858888f19350505050158015611697573d6000803e3d6000fd5b5050565b6116a3612353565b6116ad60006123cc565b565b60045460009081526001602090815260409182902060020180548351818402810184019094528084526060939283018282801561170b57602002820191906000526020600020905b8154815260200190600101908083116116f7575b5050505050905090565b6000815183511461177f5760405162461bcd60e51b815260206004820152602e60248201527f4e756d626572206f66206e6f646520706174687320616e642069734f70656e7360448201526d081b5d5cdd08189948195c5d585b60921b60648201526084016109df565b6000805b845181101561198857600080600160008885815181106117a5576117a5613107565b60209081029190910181015182528101919091526040016000206003015460ff1660028111156117d7576117d7612c9d565b0361181d57600160008784815181106117f2576117f2613107565b6020908102919091018101518252810191909152604001600020546001600160a01b03169050611879565b600160006001600089868151811061183757611837613107565b6020026020010151815260200190815260200160002060060154815260200190815260200160002060000160009054906101000a90046001600160a01b031690505b6000611883611df5565b6001600160a01b0316826001600160a01b03161480156118fc57508583815181106118b0576118b0613107565b60200260200101511515600160008986815181106118d0576118d0613107565b6020026020010151815260200190815260200160002060030160019054906101000a900460ff16151514155b905080156119735785838151811061191657611916613107565b60200260200101516001600089868151811061193457611934613107565b6020026020010151815260200190815260200160002060030160016101000a81548160ff021916908315150217905550838061196f906131a7565b9450505b50508080611980906131a7565b915050611783565b509392505050565b611998612353565b600580546001600160a01b0319166001600160a01b0392909216919091179055565b60008281526001602052604081206003015483908290819060ff1660028111156119e6576119e6612c9d565b036119f2575083611a06565b506000848152600160205260409020600601545b611a1b8585611a13611df5565b60028561213e565b95945050505050565b600082815260016020526040812060030154839060029060ff1681811115611a4e57611a4e612c9d565b14611a5857600080fd5b600084815260016020526040902060060154611a1b8585611a77611df5565b60018561213e565b611a87612353565b6001600160a01b038116611aec5760405162461bcd60e51b815260206004820152602660248201527f4f776e61626c653a206e6577206f776e657220697320746865207a65726f206160448201526564647265737360d01b60648201526084016109df565b6109c8816123cc565b6000829052600160205281611b08611df5565b6000828152600160205260409020546001600160a01b03908116911614611b415760405162461bcd60e51b81526004016109df906130d0565b826000808281526001602052604090206003015460ff166002811115611b6957611b69612c9d565b14611b865760405162461bcd60e51b81526004016109df90613069565b60008481526001602081815260409092208551611bab9391909201919086019061270d565b5060008481526001602052604090206003015460ff16600281111561123657611236612c9d565b6000838152600160205260408120600301548491829160ff166002811115611bfc57611bfc612c9d565b14611c195760405162461bcd60e51b81526004016109df90613069565b60006001600160a01b038516611c505760003411611c495760405162461bcd60e51b81526004016109df906131c0565b5034611c5d565b611c5a8585611f67565b50825b60005b600087815260026020526040902054811015611d2357600087815260026020526040902080546001600160a01b038816919083908110611ca257611ca2613107565b60009182526020909120600290910201546001600160a01b031603611d11576000878152600260205260409020805483919083908110611ce457611ce4613107565b90600052602060002090600202016001016000828254611d049190613216565b90915550611d8092505050565b80611d1b816131a7565b915050611c60565b50600086815260026020818152604080842081518083019092526001600160a01b038a81168352828401968752815460018082018455928752939095209151929093020180546001600160a01b0319169190931617825591519101555b5050505050565b60007f00000000000000000000000000000000000000000000000000000000000000006001600160a01b03163303611dc6575060131936013560601c90565b503390565b905090565b3390565b80516a636f6e736f6c652e6c6f67602083016000808483855afa5050505050565b6000611dcb611d87565b604051636eb1769f60e11b81523060048201526001600160a01b038381166024830152600091839186169063dd62ed3e9060440160206040518083038186803b158015611e895760405162461bcd60e51b8152602060048201526025602482015260008051602061328b833981519152604482019081526420636f646560d81b6064830152608482fd5b505afa158015611e9d573d6000803e3d6000fd5b505050506040513d601f19601f82011682018060405250810190611ec1919061318b565b611ecb9190613216565b6040516001600160a01b038516602482015260448101829052909150611f3190859063095ea7b360e01b906064015b60408051601f198184030181529190526020810180516001600160e01b03166001600160e01b03199093169290921790915261241c565b50505050565b6040516001600160a01b03831660248201526044810182905261163190849063a9059cbb60e01b90606401611efa565b6000826001600160a01b03163b11611fd25760405162461bcd60e51b815260206004820152602860248201527f5f746f6b656e41646472657373206d757374206265206120636f6e7472616374604482015267206164647265737360c01b60648201526084016109df565b600081116120485760405162461bcd60e51b815260206004820152603860248201527f455243323020746f6b656e206d7573742068617665205f616d6f756e7420746f60448201527f20637265617465207461736b207769746820626f756e7479000000000000000060648201526084016109df565b81816001600160a01b0382166370a08231612061611df5565b6040516001600160e01b031960e084901b1681526001600160a01b03909116600482015260240160206040518083038186803b1580156120de5760405162461bcd60e51b8152602060048201526025602482015260008051602061328b833981519152604482019081526420636f646560d81b6064830152608482fd5b505afa1580156120f2573d6000803e3d6000fd5b505050506040513d601f19601f82011682018060405250810190612116919061318b565b101561212157600080fd5b61163161212c611df5565b6001600160a01b0383169030856124ee565b60008085511161214d57600080fd5b6000612157612526565b905060008782604051602001612177929190918252602082015260400190565b60408051601f198184030181528282528051602091820120610100840183526001600160a01b038a1684528184018b90528251600081529182018352918301529150606081018660028111156121cf576121cf612c9d565b8152600160208083018290526040808401869052606084018d90526080909301889052600085815282825292909220835181546001600160a01b0319166001600160a01b0390911617815583830151805191936122319385019291019061270d565b506040820151805161224d916002840191602090910190612791565b50606082015160038201805460ff1916600183600281111561227157612271612c9d565b02179055506080820151600380830180549215156101000261ff00199093169290921790915560a0830151600483015560c0830151600583015560e0909201516006909101556000898152600160208181526040832060020180548084018255908452908320018490558254909291906122ec908490613216565b90915550859050600281111561230457612304612c9d565b866001600160a01b0316827fcd4204a6cfd0ad4e00073973d9db47cc8ee30485ec5f0fe3c9b23538f2c7d2488b60405161234091815260200190565b60405180910390a4979650505050505050565b61235b611df5565b6001600160a01b03166123766000546001600160a01b031690565b6001600160a01b0316146116ad5760405162461bcd60e51b815260206004820181905260248201527f4f776e61626c653a2063616c6c6572206973206e6f7420746865206f776e657260448201526064016109df565b600080546001600160a01b038381166001600160a01b0319831681178455604051919092169283917f8be0079c531659141344cd1fd0a4f28419497f9722a3daafe3b4186f6b6457e09190a35050565b6000612471826040518060400160405280602081526020017f5361666545524332303a206c6f772d6c6576656c2063616c6c206661696c6564815250856001600160a01b031661257d9092919063ffffffff16565b805190915015611631578080602001905181019061248f919061322e565b6116315760405162461bcd60e51b815260206004820152602a60248201527f5361666545524332303a204552433230206f7065726174696f6e20646964206e6044820152691bdd081cdd58d8d9595960b21b60648201526084016109df565b6040516001600160a01b0380851660248301528316604482015260648101829052611f319085906323b872dd60e01b90608401611efa565b600060035460016125379190613216565b61253f611df5565b6040516020016125629291909182526001600160a01b0316602082015260400190565b60405160208183030381529060405280519060200120905090565b606061258c8484600085612594565b949350505050565b6060824710156125f55760405162461bcd60e51b815260206004820152602660248201527f416464726573733a20696e73756666696369656e742062616c616e636520666f6044820152651c8818d85b1b60d21b60648201526084016109df565b600080866001600160a01b03168587604051612611919061324e565b60006040518083038185875af1925050503d806000811461264e576040519150601f19603f3d011682016040523d82523d6000602084013e612653565b606091505b50915091506126648783838761266f565b979650505050505050565b606083156126de5782516000036126d7576001600160a01b0385163b6126d75760405162461bcd60e51b815260206004820152601d60248201527f416464726573733a2063616c6c20746f206e6f6e2d636f6e747261637400000060448201526064016109df565b508161258c565b61258c83838151156126f35781518083602001fd5b8060405162461bcd60e51b81526004016109df9190613056565b82805461271990613096565b90600052602060002090601f01602090048101928261273b5760008555612781565b82601f1061275457805160ff1916838001178555612781565b82800160010185558215612781579182015b82811115612781578251825591602001919060010190612766565b5061278d9291506127cb565b5090565b8280548282559060005260206000209081019282156127815791602002820182811115612781578251825591602001919060010190612766565b5b8082111561278d57600081556001016127cc565b60405162461bcd60e51b815260206004820152602260248201527f414249206465636f64696e673a207475706c65206461746120746f6f2073686f6044820152611c9d60f21b6064820152608481fd5b60405162461bcd60e51b815260206004820152602260248201527f414249206465636f64696e673a20696e76616c6964207475706c65206f666673604482015261195d60f21b6064820152608481fd5b600060208284031215612895576128956127e0565b5035919050565b60005b838110156128b757818101518382015260200161289f565b83811115611f315750506000910152565b600081518084526128e081602086016020860161289c565b601f01601f19169290920160200192915050565b600081518084526020808501945080840160005b8381101561292457815187529582019590820190600101612908565b509495945050505050565b6001600160a01b0385168152608060208201819052600090612953908301866128c8565b8415156040840152828103606084015261266481856128f4565b60405162461bcd60e51b815260206004820152602b60248201527f414249206465636f64696e673a20696e76616c69642063616c6c64617461206160448201526a1c9c985e481bd9999cd95d60aa1b6064820152608481fd5b634e487b7160e01b600052604160045260246000fd5b604051601f8201601f1916810167ffffffffffffffff81118282101715612a0557612a056129c6565b604052919050565b600067ffffffffffffffff821115612a2757612a276129c6565b5060051b60200190565b60405162461bcd60e51b815260206004820152602b60248201527f414249206465636f64696e673a20696e76616c69642063616c6c64617461206160448201526a727261792073747269646560a81b6064820152608481fd5b80356001600160a01b0381168114612aa157600080fd5b919050565b600082601f830112612aba57612aba61296d565b81356020612acf612aca83612a0d565b6129dc565b82815260059290921b84018101918181019086841115612af157612af1612a31565b8286015b84811015612b1357612b0681612a8a565b8352918301918301612af5565b509695505050505050565b60008060008060808587031215612b3757612b376127e0565b8435935060208086013567ffffffffffffffff80821115612b5a57612b5a612830565b612b6689838a01612aa6565b95506040880135915080821115612b7f57612b7f612830565b612b8b89838a01612aa6565b94506060880135915080821115612ba457612ba4612830565b508601601f81018813612bb957612bb961296d565b8035612bc7612aca82612a0d565b81815260059190911b8201830190838101908a831115612be957612be9612a31565b928401925b82841015612c0757833582529284019290840190612bee565b979a9699509497505050505050565b602080825282518282018190526000919060409081850190868401855b82811015612c6157815180516001600160a01b03168552860151868501529284019290850190600101612c33565b5091979650505050505050565b60008060408385031215612c8457612c846127e0565b82359150612c9460208401612a8a565b90509250929050565b634e487b7160e01b600052602160045260246000fd5b8781526001600160a01b0387166020820152600060038710612ce557634e487b7160e01b600052602160045260246000fd5b86604083015260e06060830152612cff60e08301876128c8565b8281036080840152612d1181876128f4565b94151560a0840152505060c0015295945050505050565b600082601f830112612d3c57612d3c61296d565b8135602067ffffffffffffffff821115612d5857612d586129c6565b612d6a601f8301601f191682016129dc565b8281528582848701011115612dce5760405162461bcd60e51b815260048101839052602760248201527f414249206465636f64696e673a20696e76616c69642062797465206172726179604482015266040d8cadccee8d60cb1b6064820152608481fd5b82828601838301376000928101909101919091529392505050565b600080600060608486031215612e0157612e016127e0565b833567ffffffffffffffff811115612e1b57612e1b612830565b612e2786828701612d28565b935050612e3660208501612a8a565b9150604084013590509250925092565b60008060408385031215612e5c57612e5c6127e0565b612e6583612a8a565b946020939093013593505050565b600060208284031215612e8857612e886127e0565b612e9182612a8a565b9392505050565b602081526000612e9160208301846128f4565b80151581146109c857600080fd5b600082601f830112612ecd57612ecd61296d565b81356020612edd612aca83612a0d565b82815260059290921b84018101918181019086841115612eff57612eff612a31565b8286015b84811015612b13578035612f1681612eab565b8352918301918301612f03565b60008060408385031215612f3957612f396127e0565b823567ffffffffffffffff80821115612f5457612f54612830565b818501915085601f830112612f6b57612f6b61296d565b81356020612f7b612aca83612a0d565b82815260059290921b84018101918181019089841115612f9d57612f9d612a31565b948201945b83861015612fbb57853582529482019490820190612fa2565b96505086013592505080821115612fd457612fd4612830565b50612fe185828601612eb9565b9150509250929050565b60008060408385031215613001576130016127e0565b82359150602083013567ffffffffffffffff81111561302257613022612830565b612fe185828601612d28565b600080600060608486031215613046576130466127e0565b83359250612e3660208501612a8a565b602081526000612e9160208301846128c8565b6020808252601390820152724e6f6465206d7573742062652061207461736b60681b604082015260600190565b600181811c908216806130aa57607f821691505b6020821081036130ca57634e487b7160e01b600052602260045260246000fd5b50919050565b6020808252601d908201527f4f6e6c79206e6f6465206f776e65722063616e2065646974206e6f6465000000604082015260600190565b634e487b7160e01b600052603260045260246000fd5b634e487b7160e01b600052601160045260246000fd5b6000828210156131455761314561311d565b500390565b60208082526021908201527f436f6e7472616374206d757374206861766520656e6f7567682062616c616e636040820152606560f81b606082015260800190565b6000602082840312156131a0576131a06127e0565b5051919050565b6000600182016131b9576131b961311d565b5060010190565b60208082526036908201527f5472616e73616374696f6e206d75737420686176652076616c756520746f20636040820152757265617465207461736b207769746820626f756e747960501b606082015260800190565b600082198211156132295761322961311d565b500190565b600060208284031215613243576132436127e0565b8151612e9181612eab565b6000825161326081846020870161289c565b919091019291505056fe45746865722073656e7420746f206e6f6e2d70617961626c652066756e63746954617267657420636f6e747261637420646f6573206e6f7420636f6e7461696ea2646970667358221220b19e8f5f8536e41efe749a6fea8155378ab41d7abc28f4818d3891a146631da264736f6c634300080d0033",
    "linkReferences": {}
  },
  "methodIdentifiers": {
    "addShare(bytes32,bytes)": "e985ccd7",
    "addSolution(bytes32,bytes)": "ee5e9d9e",
    "addTask(bytes,address,uint256)": "5357d429",
    "getAllTasks()": "779900b4",
    "getBountiesForTask(bytes32)": "4498c6cf",
    "getNode(bytes32)": "50c946fe",
    "getTask(bytes32)": "15a29035",
    "increaseBounty(bytes32,address,uint256)": "fe949a11",
    "isTrustedForwarder(address)": "572b6c05",
    "nodesCount()": "f1a3c5b3",
    "owner()": "8da5cb5b",
    "payoutTask(bytes32,address[],address[],uint256[])": "3047c26d",
    "renounceOwnership()": "715018a6",
    "rootTaskPath()": "8973df07",
    "setTrustedForwarder(address)": "da742228",
    "transferOwnership(address)": "f2fde38b",
    "trustedForwarder()": "7da0a877",
    "updateNodesIsOpen(bytes32[],bool[])": "d03388db",
    "updateTaskData(bytes32,bytes)": "fe408658",
    "updateTaskOwner(bytes32,address)": "4723218d",
    "withdrawToOwner(uint256)": "6a5bbc1d",
    "withdrawTokenToOwner(address,uint256)": "56a6338f"
  },
  "id": 16
}